{
  "contractName": "NodeControlDb",
  "abi": [
    {
      "constant": true,
      "inputs": [],
      "name": "nodeControlLookUp",
      "outputs": [
        {
          "name": "",
          "type": "address"
        }
      ],
      "payable": false,
      "stateMutability": "view",
      "type": "function"
    },
    {
      "constant": true,
      "inputs": [
        {
          "name": "",
          "type": "address"
        }
      ],
      "name": "currentState",
      "outputs": [
        {
          "name": "dockerSha",
          "type": "bytes"
        },
        {
          "name": "dockerName",
          "type": "string"
        },
        {
          "name": "chainSpecSha",
          "type": "bytes"
        },
        {
          "name": "chainSpecUrl",
          "type": "string"
        },
        {
          "name": "isSigning",
          "type": "bool"
        },
        {
          "name": "updateIntroduced",
          "type": "uint256"
        },
        {
          "name": "updateConfirmed",
          "type": "uint256"
        }
      ],
      "payable": false,
      "stateMutability": "view",
      "type": "function"
    },
    {
      "constant": true,
      "inputs": [],
      "name": "owner",
      "outputs": [
        {
          "name": "",
          "type": "address"
        }
      ],
      "payable": false,
      "stateMutability": "view",
      "type": "function"
    },
    {
      "constant": true,
      "inputs": [],
      "name": "isOwner",
      "outputs": [
        {
          "name": "",
          "type": "bool"
        }
      ],
      "payable": false,
      "stateMutability": "view",
      "type": "function"
    },
    {
      "constant": false,
      "inputs": [
        {
          "name": "newOwner",
          "type": "address"
        }
      ],
      "name": "transferOwnership",
      "outputs": [],
      "payable": false,
      "stateMutability": "nonpayable",
      "type": "function"
    },
    {
      "inputs": [
        {
          "name": "_lookUpContract",
          "type": "address"
        },
        {
          "name": "_owner",
          "type": "address"
        }
      ],
      "payable": false,
      "stateMutability": "nonpayable",
      "type": "constructor"
    },
    {
      "anonymous": false,
      "inputs": [
        {
          "indexed": true,
          "name": "previousOwner",
          "type": "address"
        },
        {
          "indexed": true,
          "name": "newOwner",
          "type": "address"
        }
      ],
      "name": "OwnershipTransferred",
      "type": "event"
    },
    {
      "constant": false,
      "inputs": [
        {
          "name": "_newLookUp",
          "type": "address"
        }
      ],
      "name": "changeLookUpContract",
      "outputs": [],
      "payable": false,
      "stateMutability": "nonpayable",
      "type": "function"
    },
    {
      "constant": false,
      "inputs": [
        {
          "name": "_targetValidator",
          "type": "address"
        },
        {
          "name": "_dockerSha",
          "type": "bytes"
        },
        {
          "name": "_dockerName",
          "type": "string"
        },
        {
          "name": "_chainSpecSha",
          "type": "bytes"
        },
        {
          "name": "_chainSpecUrl",
          "type": "string"
        },
        {
          "name": "_isSigning",
          "type": "bool"
        }
      ],
      "name": "setState",
      "outputs": [],
      "payable": false,
      "stateMutability": "nonpayable",
      "type": "function"
    },
    {
      "constant": false,
      "inputs": [
        {
          "name": "_targetValidator",
          "type": "address"
        }
      ],
      "name": "setUpdateConfirmed",
      "outputs": [],
      "payable": false,
      "stateMutability": "nonpayable",
      "type": "function"
    },
    {
      "constant": true,
      "inputs": [
        {
          "name": "_targetValidator",
          "type": "address"
        }
      ],
      "name": "isUpdateConfirmed",
      "outputs": [
        {
          "name": "",
          "type": "bool"
        }
      ],
      "payable": false,
      "stateMutability": "view",
      "type": "function"
    },
    {
      "constant": true,
      "inputs": [
        {
          "name": "_targetValidator",
          "type": "address"
        }
      ],
      "name": "getState",
      "outputs": [
        {
          "components": [
            {
              "name": "dockerSha",
              "type": "bytes"
            },
            {
              "name": "dockerName",
              "type": "string"
            },
            {
              "name": "chainSpecSha",
              "type": "bytes"
            },
            {
              "name": "chainSpecUrl",
              "type": "string"
            },
            {
              "name": "isSigning",
              "type": "bool"
            },
            {
              "name": "updateIntroduced",
              "type": "uint256"
            },
            {
              "name": "updateConfirmed",
              "type": "uint256"
            }
          ],
          "name": "",
          "type": "tuple"
        }
      ],
      "payable": false,
      "stateMutability": "view",
      "type": "function"
    },
    {
      "constant": true,
      "inputs": [
        {
          "name": "_targetValidator",
          "type": "address"
        }
      ],
      "name": "getDockerSha",
      "outputs": [
        {
          "name": "",
          "type": "bytes"
        }
      ],
      "payable": false,
      "stateMutability": "view",
      "type": "function"
    },
    {
      "constant": true,
      "inputs": [
        {
          "name": "_targetValidator",
          "type": "address"
        }
      ],
      "name": "getDockerName",
      "outputs": [
        {
          "name": "",
          "type": "string"
        }
      ],
      "payable": false,
      "stateMutability": "view",
      "type": "function"
    },
    {
      "constant": true,
      "inputs": [
        {
          "name": "_targetValidator",
          "type": "address"
        }
      ],
      "name": "getChainSpecSha",
      "outputs": [
        {
          "name": "",
          "type": "bytes"
        }
      ],
      "payable": false,
      "stateMutability": "view",
      "type": "function"
    },
    {
      "constant": true,
      "inputs": [
        {
          "name": "_targetValidator",
          "type": "address"
        }
      ],
      "name": "getChainSpecUrl",
      "outputs": [
        {
          "name": "",
          "type": "string"
        }
      ],
      "payable": false,
      "stateMutability": "view",
      "type": "function"
    },
    {
      "constant": true,
      "inputs": [
        {
          "name": "_targetValidator",
          "type": "address"
        }
      ],
      "name": "getIsSigning",
      "outputs": [
        {
          "name": "",
          "type": "bool"
        }
      ],
      "payable": false,
      "stateMutability": "view",
      "type": "function"
    }
  ],
  "bytecode": "0x60806040523480156200001157600080fd5b506040516040806200298b8339810180604052620000339190810190620002a8565b336000806101000a81548173ffffffffffffffffffffffffffffffffffffffff021916908373ffffffffffffffffffffffffffffffffffffffff1602179055506000809054906101000a900473ffffffffffffffffffffffffffffffffffffffff1673ffffffffffffffffffffffffffffffffffffffff16600073ffffffffffffffffffffffffffffffffffffffff167f8be0079c531659141344cd1fd0a4f28419497f9722a3daafe3b4186f6b6457e060405160405180910390a381600260006101000a81548173ffffffffffffffffffffffffffffffffffffffff021916908373ffffffffffffffffffffffffffffffffffffffff16021790555062000141816200014960201b60201c565b5050620003da565b600073ffffffffffffffffffffffffffffffffffffffff168173ffffffffffffffffffffffffffffffffffffffff161415620001bc576040517f08c379a0000000000000000000000000000000000000000000000000000000008152600401620001b3906200032b565b60405180910390fd5b8073ffffffffffffffffffffffffffffffffffffffff166000809054906101000a900473ffffffffffffffffffffffffffffffffffffffff1673ffffffffffffffffffffffffffffffffffffffff167f8be0079c531659141344cd1fd0a4f28419497f9722a3daafe3b4186f6b6457e060405160405180910390a3806000806101000a81548173ffffffffffffffffffffffffffffffffffffffff021916908373ffffffffffffffffffffffffffffffffffffffff16021790555050565b6000815190506200028b81620003a6565b92915050565b600081519050620002a281620003c0565b92915050565b60008060408385031215620002bc57600080fd5b6000620002cc8582860162000291565b9250506020620002df858286016200027a565b9150509250929050565b6000620002f8601f836200034d565b91507f4e6577206f776e657220616464726573732063616e6e6f7420626520307830006000830152602082019050919050565b600060208201905081810360008301526200034681620002e9565b9050919050565b600082825260208201905092915050565b60006200036b8262000386565b9050919050565b60006200037f826200035e565b9050919050565b600073ffffffffffffffffffffffffffffffffffffffff82169050919050565b620003b1816200035e565b8114620003bd57600080fd5b50565b620003cb8162000372565b8114620003d757600080fd5b50565b6125a180620003ea6000396000f3fe608060405234801561001057600080fd5b50600436106100f55760003560e01c8063954029c911610097578063eab7ad9211610066578063eab7ad92146102b2578063ee7ee0fd146102ce578063f2fde38b146102fe578063fbd74f841461031a576100f5565b8063954029c91461021a578063a999809f14610236578063b71da0d114610266578063da5393d514610296576100f5565b80636a564261116100d35780636a5642611461017857806370a05b18146101ae5780638da5cb5b146101de5780638f32d59b146101fc576100f5565b80631bab58f5146100fa5780632c5653e21461012a57806332d91c0e14610148575b600080fd5b610114600480360361010f9190810190611d82565b61034a565b60405161012191906123f7565b60405180910390f35b610132610767565b60405161013f919061233a565b60405180910390f35b610162600480360361015d9190810190611d82565b61078d565b60405161016f9190612355565b60405180910390f35b610192600480360361018d9190810190611d82565b61097e565b6040516101a597969594939291906122af565b60405180910390f35b6101c860048036036101c39190810190611d82565b610c2d565b6040516101d5919061228d565b60405180910390f35b6101e6610e1e565b6040516101f39190612257565b60405180910390f35b610204610e47565b6040516102119190612272565b60405180910390f35b610234600480360361022f9190810190611d82565b610e9e565b005b610250600480360361024b9190810190611d82565b610ff5565b60405161025d9190612355565b60405180910390f35b610280600480360361027b9190810190611d82565b6111e6565b60405161028d9190612272565b60405180910390f35b6102b060048036036102ab9190810190611d82565b611276565b005b6102cc60048036036102c79190810190611dd4565b611371565b005b6102e860048036036102e39190810190611d82565b611673565b6040516102f59190612272565b60405180910390f35b61031860048036036103139190810190611d82565b6117d9565b005b610334600480360361032f9190810190611d82565b61182c565b604051610341919061228d565b60405180910390f35b610352611b4b565b600260009054906101000a900473ffffffffffffffffffffffffffffffffffffffff1673ffffffffffffffffffffffffffffffffffffffff16636ddc4a076040518163ffffffff1660e01b815260040160206040518083038186803b1580156103ba57600080fd5b505afa1580156103ce573d6000803e3d6000fd5b505050506040513d601f19601f820116820180604052506103f29190810190611dab565b73ffffffffffffffffffffffffffffffffffffffff163373ffffffffffffffffffffffffffffffffffffffff161461045f576040517f08c379a000000000000000000000000000000000000000000000000000000000815260040161045690612377565b60405180910390fd5b600160008373ffffffffffffffffffffffffffffffffffffffff1673ffffffffffffffffffffffffffffffffffffffff1681526020019081526020016000206040518060e0016040529081600082018054600181600116156101000203166002900480601f0160208091040260200160405190810160405280929190818152602001828054600181600116156101000203166002900480156105425780601f1061051757610100808354040283529160200191610542565b820191906000526020600020905b81548152906001019060200180831161052557829003601f168201915b50505050508152602001600182018054600181600116156101000203166002900480601f0160208091040260200160405190810160405280929190818152602001828054600181600116156101000203166002900480156105e45780601f106105b9576101008083540402835291602001916105e4565b820191906000526020600020905b8154815290600101906020018083116105c757829003601f168201915b50505050508152602001600282018054600181600116156101000203166002900480601f0160208091040260200160405190810160405280929190818152602001828054600181600116156101000203166002900480156106865780601f1061065b57610100808354040283529160200191610686565b820191906000526020600020905b81548152906001019060200180831161066957829003601f168201915b50505050508152602001600382018054600181600116156101000203166002900480601f0160208091040260200160405190810160405280929190818152602001828054600181600116156101000203166002900480156107285780601f106106fd57610100808354040283529160200191610728565b820191906000526020600020905b81548152906001019060200180831161070b57829003601f168201915b505050505081526020016004820160009054906101000a900460ff16151515158152602001600582015481526020016006820154815250509050919050565b600260009054906101000a900473ffffffffffffffffffffffffffffffffffffffff1681565b6060600260009054906101000a900473ffffffffffffffffffffffffffffffffffffffff1673ffffffffffffffffffffffffffffffffffffffff16636ddc4a076040518163ffffffff1660e01b815260040160206040518083038186803b1580156107f757600080fd5b505afa15801561080b573d6000803e3d6000fd5b505050506040513d601f19601f8201168201806040525061082f9190810190611dab565b73ffffffffffffffffffffffffffffffffffffffff163373ffffffffffffffffffffffffffffffffffffffff161461089c576040517f08c379a000000000000000000000000000000000000000000000000000000000815260040161089390612377565b60405180910390fd5b600160008373ffffffffffffffffffffffffffffffffffffffff1673ffffffffffffffffffffffffffffffffffffffff1681526020019081526020016000206003018054600181600116156101000203166002900480601f0160208091040260200160405190810160405280929190818152602001828054600181600116156101000203166002900480156109725780601f1061094757610100808354040283529160200191610972565b820191906000526020600020905b81548152906001019060200180831161095557829003601f168201915b50505050509050919050565b6001602052806000526040600020600091509050806000018054600181600116156101000203166002900480601f016020809104026020016040519081016040528092919081815260200182805460018160011615610100020316600290048015610a2a5780601f106109ff57610100808354040283529160200191610a2a565b820191906000526020600020905b815481529060010190602001808311610a0d57829003601f168201915b505050505090806001018054600181600116156101000203166002900480601f016020809104026020016040519081016040528092919081815260200182805460018160011615610100020316600290048015610ac85780601f10610a9d57610100808354040283529160200191610ac8565b820191906000526020600020905b815481529060010190602001808311610aab57829003601f168201915b505050505090806002018054600181600116156101000203166002900480601f016020809104026020016040519081016040528092919081815260200182805460018160011615610100020316600290048015610b665780601f10610b3b57610100808354040283529160200191610b66565b820191906000526020600020905b815481529060010190602001808311610b4957829003601f168201915b505050505090806003018054600181600116156101000203166002900480601f016020809104026020016040519081016040528092919081815260200182805460018160011615610100020316600290048015610c045780601f10610bd957610100808354040283529160200191610c04565b820191906000526020600020905b815481529060010190602001808311610be757829003601f168201915b5050505050908060040160009054906101000a900460ff16908060050154908060060154905087565b6060600260009054906101000a900473ffffffffffffffffffffffffffffffffffffffff1673ffffffffffffffffffffffffffffffffffffffff16636ddc4a076040518163ffffffff1660e01b815260040160206040518083038186803b158015610c9757600080fd5b505afa158015610cab573d6000803e3d6000fd5b505050506040513d601f19601f82011682018060405250610ccf9190810190611dab565b73ffffffffffffffffffffffffffffffffffffffff163373ffffffffffffffffffffffffffffffffffffffff1614610d3c576040517f08c379a0000000000000000000000000000000000000000000000000000000008152600401610d3390612377565b60405180910390fd5b600160008373ffffffffffffffffffffffffffffffffffffffff1673ffffffffffffffffffffffffffffffffffffffff1681526020019081526020016000206002018054600181600116156101000203166002900480601f016020809104026020016040519081016040528092919081815260200182805460018160011615610100020316600290048015610e125780601f10610de757610100808354040283529160200191610e12565b820191906000526020600020905b815481529060010190602001808311610df557829003601f168201915b50505050509050919050565b60008060009054906101000a900473ffffffffffffffffffffffffffffffffffffffff16905090565b60008060009054906101000a900473ffffffffffffffffffffffffffffffffffffffff1673ffffffffffffffffffffffffffffffffffffffff163373ffffffffffffffffffffffffffffffffffffffff1614905090565b600260009054906101000a900473ffffffffffffffffffffffffffffffffffffffff1673ffffffffffffffffffffffffffffffffffffffff16636ddc4a076040518163ffffffff1660e01b815260040160206040518083038186803b158015610f0657600080fd5b505afa158015610f1a573d6000803e3d6000fd5b505050506040513d601f19601f82011682018060405250610f3e9190810190611dab565b73ffffffffffffffffffffffffffffffffffffffff163373ffffffffffffffffffffffffffffffffffffffff1614610fab576040517f08c379a0000000000000000000000000000000000000000000000000000000008152600401610fa290612377565b60405180910390fd5b43600160008373ffffffffffffffffffffffffffffffffffffffff1673ffffffffffffffffffffffffffffffffffffffff1681526020019081526020016000206006018190555050565b6060600260009054906101000a900473ffffffffffffffffffffffffffffffffffffffff1673ffffffffffffffffffffffffffffffffffffffff16636ddc4a076040518163ffffffff1660e01b815260040160206040518083038186803b15801561105f57600080fd5b505afa158015611073573d6000803e3d6000fd5b505050506040513d601f19601f820116820180604052506110979190810190611dab565b73ffffffffffffffffffffffffffffffffffffffff163373ffffffffffffffffffffffffffffffffffffffff1614611104576040517f08c379a00000000000000000000000000000000000000000000000000000000081526004016110fb90612377565b60405180910390fd5b600160008373ffffffffffffffffffffffffffffffffffffffff1673ffffffffffffffffffffffffffffffffffffffff1681526020019081526020016000206001018054600181600116156101000203166002900480601f0160208091040260200160405190810160405280929190818152602001828054600181600116156101000203166002900480156111da5780601f106111af576101008083540402835291602001916111da565b820191906000526020600020905b8154815290600101906020018083116111bd57829003601f168201915b50505050509050919050565b6000600160008373ffffffffffffffffffffffffffffffffffffffff1673ffffffffffffffffffffffffffffffffffffffff16815260200190815260200160002060060154600160008473ffffffffffffffffffffffffffffffffffffffff1673ffffffffffffffffffffffffffffffffffffffff16815260200190815260200160002060050154109050919050565b61127e610e47565b6112bd576040517f08c379a00000000000000000000000000000000000000000000000000000000081526004016112b4906123d7565b60405180910390fd5b600073ffffffffffffffffffffffffffffffffffffffff168173ffffffffffffffffffffffffffffffffffffffff16141561132d576040517f08c379a000000000000000000000000000000000000000000000000000000000815260040161132490612397565b60405180910390fd5b80600260006101000a81548173ffffffffffffffffffffffffffffffffffffffff021916908373ffffffffffffffffffffffffffffffffffffffff16021790555050565b600260009054906101000a900473ffffffffffffffffffffffffffffffffffffffff1673ffffffffffffffffffffffffffffffffffffffff16636ddc4a076040518163ffffffff1660e01b815260040160206040518083038186803b1580156113d957600080fd5b505afa1580156113ed573d6000803e3d6000fd5b505050506040513d601f19601f820116820180604052506114119190810190611dab565b73ffffffffffffffffffffffffffffffffffffffff163373ffffffffffffffffffffffffffffffffffffffff161461147e576040517f08c379a000000000000000000000000000000000000000000000000000000000815260040161147590612377565b60405180910390fd5b8888600160008d73ffffffffffffffffffffffffffffffffffffffff1673ffffffffffffffffffffffffffffffffffffffff16815260200190815260200160002060000191906114cf929190611b8a565b508686600160008d73ffffffffffffffffffffffffffffffffffffffff1673ffffffffffffffffffffffffffffffffffffffff1681526020019081526020016000206001019190611521929190611c0a565b508484600160008d73ffffffffffffffffffffffffffffffffffffffff1673ffffffffffffffffffffffffffffffffffffffff1681526020019081526020016000206002019190611573929190611b8a565b508282600160008d73ffffffffffffffffffffffffffffffffffffffff1673ffffffffffffffffffffffffffffffffffffffff16815260200190815260200160002060030191906115c5929190611c0a565b5080600160008c73ffffffffffffffffffffffffffffffffffffffff1673ffffffffffffffffffffffffffffffffffffffff16815260200190815260200160002060040160006101000a81548160ff02191690831515021790555043600160008c73ffffffffffffffffffffffffffffffffffffffff1673ffffffffffffffffffffffffffffffffffffffff1681526020019081526020016000206005018190555050505050505050505050565b6000600260009054906101000a900473ffffffffffffffffffffffffffffffffffffffff1673ffffffffffffffffffffffffffffffffffffffff16636ddc4a076040518163ffffffff1660e01b815260040160206040518083038186803b1580156116dd57600080fd5b505afa1580156116f1573d6000803e3d6000fd5b505050506040513d601f19601f820116820180604052506117159190810190611dab565b73ffffffffffffffffffffffffffffffffffffffff163373ffffffffffffffffffffffffffffffffffffffff1614611782576040517f08c379a000000000000000000000000000000000000000000000000000000000815260040161177990612377565b60405180910390fd5b600160008373ffffffffffffffffffffffffffffffffffffffff1673ffffffffffffffffffffffffffffffffffffffff16815260200190815260200160002060040160009054906101000a900460ff169050919050565b6117e1610e47565b611820576040517f08c379a0000000000000000000000000000000000000000000000000000000008152600401611817906123d7565b60405180910390fd5b61182981611a1d565b50565b6060600260009054906101000a900473ffffffffffffffffffffffffffffffffffffffff1673ffffffffffffffffffffffffffffffffffffffff16636ddc4a076040518163ffffffff1660e01b815260040160206040518083038186803b15801561189657600080fd5b505afa1580156118aa573d6000803e3d6000fd5b505050506040513d601f19601f820116820180604052506118ce9190810190611dab565b73ffffffffffffffffffffffffffffffffffffffff163373ffffffffffffffffffffffffffffffffffffffff161461193b576040517f08c379a000000000000000000000000000000000000000000000000000000000815260040161193290612377565b60405180910390fd5b600160008373ffffffffffffffffffffffffffffffffffffffff1673ffffffffffffffffffffffffffffffffffffffff1681526020019081526020016000206000018054600181600116156101000203166002900480601f016020809104026020016040519081016040528092919081815260200182805460018160011615610100020316600290048015611a115780601f106119e657610100808354040283529160200191611a11565b820191906000526020600020905b8154815290600101906020018083116119f457829003601f168201915b50505050509050919050565b600073ffffffffffffffffffffffffffffffffffffffff168173ffffffffffffffffffffffffffffffffffffffff161415611a8d576040517f08c379a0000000000000000000000000000000000000000000000000000000008152600401611a84906123b7565b60405180910390fd5b8073ffffffffffffffffffffffffffffffffffffffff166000809054906101000a900473ffffffffffffffffffffffffffffffffffffffff1673ffffffffffffffffffffffffffffffffffffffff167f8be0079c531659141344cd1fd0a4f28419497f9722a3daafe3b4186f6b6457e060405160405180910390a3806000806101000a81548173ffffffffffffffffffffffffffffffffffffffff021916908373ffffffffffffffffffffffffffffffffffffffff16021790555050565b6040518060e001604052806060815260200160608152602001606081526020016060815260200160001515815260200160008152602001600081525090565b828054600181600116156101000203166002900490600052602060002090601f016020900481019282601f10611bcb57803560ff1916838001178555611bf9565b82800160010185558215611bf9579182015b82811115611bf8578235825591602001919060010190611bdd565b5b509050611c069190611c8a565b5090565b828054600181600116156101000203166002900490600052602060002090601f016020900481019282601f10611c4b57803560ff1916838001178555611c79565b82800160010185558215611c79579182015b82811115611c78578235825591602001919060010190611c5d565b5b509050611c869190611c8a565b5090565b611cac91905b80821115611ca8576000816000905550600101611c90565b5090565b90565b600081359050611cbe81612539565b92915050565b600081519050611cd381612539565b92915050565b600081359050611ce881612550565b92915050565b60008083601f840112611d0057600080fd5b8235905067ffffffffffffffff811115611d1957600080fd5b602083019150836001820283011115611d3157600080fd5b9250929050565b60008083601f840112611d4a57600080fd5b8235905067ffffffffffffffff811115611d6357600080fd5b602083019150836001820283011115611d7b57600080fd5b9250929050565b600060208284031215611d9457600080fd5b6000611da284828501611caf565b91505092915050565b600060208284031215611dbd57600080fd5b6000611dcb84828501611cc4565b91505092915050565b60008060008060008060008060008060c08b8d031215611df357600080fd5b6000611e018d828e01611caf565b9a505060208b013567ffffffffffffffff811115611e1e57600080fd5b611e2a8d828e01611cee565b995099505060408b013567ffffffffffffffff811115611e4957600080fd5b611e558d828e01611d38565b975097505060608b013567ffffffffffffffff811115611e7457600080fd5b611e808d828e01611cee565b955095505060808b013567ffffffffffffffff811115611e9f57600080fd5b611eab8d828e01611d38565b935093505060a0611ebe8d828e01611cd9565b9150509295989b9194979a5092959850565b611ed981612489565b82525050565b611ee88161249b565b82525050565b611ef78161249b565b82525050565b6000611f0882612424565b611f128185612456565b9350611f228185602086016124f5565b611f2b81612528565b840191505092915050565b6000611f4182612419565b611f4b8185612445565b9350611f5b8185602086016124f5565b611f6481612528565b840191505092915050565b6000611f7a82612419565b611f848185612456565b9350611f948185602086016124f5565b611f9d81612528565b840191505092915050565b611fb1816124d1565b82525050565b6000611fc28261243a565b611fcc8185612478565b9350611fdc8185602086016124f5565b611fe581612528565b840191505092915050565b6000611ffb8261242f565b6120058185612467565b93506120158185602086016124f5565b61201e81612528565b840191505092915050565b60006120348261242f565b61203e8185612478565b935061204e8185602086016124f5565b61205781612528565b840191505092915050565b600061206f601383612478565b91507f4572726f723a206f6e6c794c6f676963204462000000000000000000000000006000830152602082019050919050565b60006120af602983612478565b91507f4572726f723a206e65774c6f6f6b5570206973206e6f7420616c6c6f7765642060008301527f746f2062652030783000000000000000000000000000000000000000000000006020830152604082019050919050565b6000612115601f83612478565b91507f4e6577206f776e657220616464726573732063616e6e6f7420626520307830006000830152602082019050919050565b6000612155601383612478565b91507f53656e646572206973206e6f74206f776e6572000000000000000000000000006000830152602082019050919050565b600060e08301600083015184820360008601526121a58282611f36565b915050602083015184820360208601526121bf8282611ff0565b915050604083015184820360408601526121d98282611f36565b915050606083015184820360608601526121f38282611ff0565b91505060808301516122086080860182611edf565b5060a083015161221b60a0860182612239565b5060c083015161222e60c0860182612239565b508091505092915050565b612242816124c7565b82525050565b612251816124c7565b82525050565b600060208201905061226c6000830184611ed0565b92915050565b60006020820190506122876000830184611eee565b92915050565b600060208201905081810360008301526122a78184611efd565b905092915050565b600060e08201905081810360008301526122c9818a611f6f565b905081810360208301526122dd8189612029565b905081810360408301526122f18188611f6f565b905081810360608301526123058187612029565b90506123146080830186611eee565b61232160a0830185612248565b61232e60c0830184612248565b98975050505050505050565b600060208201905061234f6000830184611fa8565b92915050565b6000602082019050818103600083015261236f8184611fb7565b905092915050565b6000602082019050818103600083015261239081612062565b9050919050565b600060208201905081810360008301526123b0816120a2565b9050919050565b600060208201905081810360008301526123d081612108565b9050919050565b600060208201905081810360008301526123f081612148565b9050919050565b600060208201905081810360008301526124118184612188565b905092915050565b600081519050919050565b600081519050919050565b600081519050919050565b600081519050919050565b600082825260208201905092915050565b600082825260208201905092915050565b600082825260208201905092915050565b600082825260208201905092915050565b6000612494826124a7565b9050919050565b60008115159050919050565b600073ffffffffffffffffffffffffffffffffffffffff82169050919050565b6000819050919050565b60006124dc826124e3565b9050919050565b60006124ee826124a7565b9050919050565b60005b838110156125135780820151818401526020810190506124f8565b83811115612522576000848401525b50505050565b6000601f19601f8301169050919050565b61254281612489565b811461254d57600080fd5b50565b6125598161249b565b811461256457600080fd5b5056fea265627a7a723058204e9bd56e9adad319bbbe5c532ac1ae8860d5e53f627d9653f9c6253effcfe28b6c6578706572696d656e74616cf50037",
  "source": "pragma solidity 0.5.8;\npragma experimental ABIEncoderV2;\n\nimport \"../interfaces/INodeControl.sol\";\nimport \"./NodeControlLookUp.sol\";\nimport \"../misc/Ownable.sol\";\n\n\ncontract NodeControlDb is Ownable {\n    mapping (address => INodeControl.ValidatorState) public currentState;\n\n    NodeControlLookUp public nodeControlLookUp;\n\n    modifier onlyLogic {\n        require(msg.sender == nodeControlLookUp.nodeControlContract(), \"Error: onlyLogic Db\");\n        _;\n    }\n\n    /// @notice Constructor that sets the owner of the database\n    constructor(NodeControlLookUp _lookUpContract, address _owner)\n        public \n    {\n        nodeControlLookUp = _lookUpContract;\n        _transferOwnership(_owner);\n    }\n\n    /// @notice Changes the logic contract (can only be called by the owner of the database)\n    /// @param _newLookUp the new logic that is allowed to write data\n    function changeLookUpContract(address _newLookUp) \n        external \n        onlyOwner \n    {\n        require(_newLookUp != address(0x0), \"Error: newLookUp is not allowed to be 0x0\");\n        nodeControlLookUp = NodeControlLookUp(_newLookUp);\n    }\n\n    /// @notice Sets the state for a validator\n    /// @param _targetValidator The validator whos state needs to be updated\n    /// @param _dockerSha The sha of the dockerfile\n    /// @param _dockerName The name of the dockerfile\n    /// @param _chainSpecSha The sha of the chainSpecFile\n    /// @param _chainSpecUrl The url where the chainSpecFile can be found\n    /// @param _isSigning Indicates if the validator shall sign blocks\n    function setState (\n        address _targetValidator, \n        bytes calldata _dockerSha, \n        string calldata _dockerName, \n        bytes calldata _chainSpecSha, \n        string calldata _chainSpecUrl, \n        bool _isSigning\n    )   \n        external \n        onlyLogic \n    {\n        currentState[_targetValidator].dockerSha = _dockerSha;\n        currentState[_targetValidator].dockerName = _dockerName;\n        currentState[_targetValidator].chainSpecSha = _chainSpecSha;\n        currentState[_targetValidator].chainSpecUrl = _chainSpecUrl;\n        currentState[_targetValidator].isSigning = _isSigning;\n        currentState[_targetValidator].updateIntroduced = block.number;\n    }\n\n    /// @notice Sets the confirm\n    /// @param _targetValidator The validator that confirms the update\n    function setUpdateConfirmed(address _targetValidator) \n        external \n        onlyLogic \n    {\n        currentState[_targetValidator].updateConfirmed = block.number;\n    }\n\n    /// @notice View method to check if an update was confirmed by the validator\n    /// @param _targetValidator The validator that is supposed to be checked\n    function isUpdateConfirmed(address _targetValidator) \n        external \n        view \n        returns(bool) \n    {\n        return (currentState[_targetValidator].updateIntroduced < currentState[_targetValidator].updateConfirmed);\n    }\n\n    /// @notice Gets the state for a validator\n    /// @param _targetValidator The validator whos state you want\n    function getState(address _targetValidator) \n        external \n        view \n        onlyLogic \n        returns (INodeControl.ValidatorState memory)\n    {\n        return currentState[_targetValidator];\n    }\n\n    /// @notice Gets the dockerSha\n    /// @param _targetValidator The validator whos dockerSha you want\n    function getDockerSha(address _targetValidator) \n        external \n        view \n        onlyLogic \n        returns(bytes memory) \n    {\n        return currentState[_targetValidator].dockerSha;\n    }\n\n    /// @notice Gets the dockerName\n    /// @param _targetValidator The validator whos dockerName you want\n    function getDockerName(address _targetValidator) \n        external \n        view \n        onlyLogic \n        returns(string memory) \n    {\n        return currentState[_targetValidator].dockerName;\n    }\n\n    /// @notice Gets the chainSpecSha\n    /// @param _targetValidator The validator whos chainSpecSha you want\n    function getChainSpecSha(address _targetValidator) \n        external \n        view \n        onlyLogic \n        returns(bytes memory) \n    {\n        return currentState[_targetValidator].chainSpecSha;\n    }\n\n    /// @notice Gets the chainSpecUrl\n    /// @param _targetValidator The validator whos chainSpecUrl you want\n    function getChainSpecUrl(address _targetValidator) \n        external \n        view \n        onlyLogic \n        returns(string memory) \n    {\n        return currentState[_targetValidator].chainSpecUrl;\n    }\n\n    /// @notice Gets the isSigning\n    /// @param _targetValidator The validator you want to know of if they are signing\n    function getIsSigning(address _targetValidator) \n        external \n        view \n        onlyLogic \n        returns(bool) \n    {\n        return currentState[_targetValidator].isSigning;\n    }\n}\n",
  "sourcePath": "/Users/mikovainio/WebstormProjects/smarthub-system-contracts/contracts/nodecontrol/NodeControlDb.sol",
  "compiler": {
    "name": "solc",
    "version": "0.5.8+commit.23d335f2.Emscripten.clang"
  },
  "schemaVersion": "3.0.10",
  "updatedAt": "2020-03-04T11:19:07.937Z",
  "devdoc": {
    "methods": {
      "changeLookUpContract(address)": {
        "params": {
          "_newLookUp": "the new logic that is allowed to write data"
        }
      },
      "getChainSpecSha(address)": {
        "params": {
          "_targetValidator": "The validator whos chainSpecSha you want"
        }
      },
      "getChainSpecUrl(address)": {
        "params": {
          "_targetValidator": "The validator whos chainSpecUrl you want"
        }
      },
      "getDockerName(address)": {
        "params": {
          "_targetValidator": "The validator whos dockerName you want"
        }
      },
      "getDockerSha(address)": {
        "params": {
          "_targetValidator": "The validator whos dockerSha you want"
        }
      },
      "getIsSigning(address)": {
        "params": {
          "_targetValidator": "The validator you want to know of if they are signing"
        }
      },
      "getState(address)": {
        "params": {
          "_targetValidator": "The validator whos state you want"
        }
      },
      "isOwner()": {
        "return": "true if `msg.sender` is the owner of the contract."
      },
      "isUpdateConfirmed(address)": {
        "params": {
          "_targetValidator": "The validator that is supposed to be checked"
        }
      },
      "owner()": {
        "return": "the address of the owner."
      },
      "setState(address,bytes,string,bytes,string,bool)": {
        "params": {
          "_chainSpecSha": "The sha of the chainSpecFile",
          "_chainSpecUrl": "The url where the chainSpecFile can be found",
          "_dockerName": "The name of the dockerfile",
          "_dockerSha": "The sha of the dockerfile",
          "_isSigning": "Indicates if the validator shall sign blocks",
          "_targetValidator": "The validator whos state needs to be updated"
        }
      },
      "setUpdateConfirmed(address)": {
        "params": {
          "_targetValidator": "The validator that confirms the update"
        }
      },
      "transferOwnership(address)": {
        "details": "Allows the current owner to transfer control of the contract to a newOwner.",
        "params": {
          "newOwner": "The address to transfer ownership to."
        }
      }
    }
  },
  "userdoc": {
    "methods": {
      "changeLookUpContract(address)": {
        "notice": "Changes the logic contract (can only be called by the owner of the database)"
      },
      "constructor": "Constructor that sets the owner of the database",
      "getChainSpecSha(address)": {
        "notice": "Gets the chainSpecSha"
      },
      "getChainSpecUrl(address)": {
        "notice": "Gets the chainSpecUrl"
      },
      "getDockerName(address)": {
        "notice": "Gets the dockerName"
      },
      "getDockerSha(address)": {
        "notice": "Gets the dockerSha"
      },
      "getIsSigning(address)": {
        "notice": "Gets the isSigning"
      },
      "getState(address)": {
        "notice": "Gets the state for a validator"
      },
      "isUpdateConfirmed(address)": {
        "notice": "View method to check if an update was confirmed by the validator"
      },
      "setState(address,bytes,string,bytes,string,bool)": {
        "notice": "Sets the state for a validator"
      },
      "setUpdateConfirmed(address)": {
        "notice": "Sets the confirm"
      }
    }
  }
}