{
  "contractName": "NodeControlSimple",
  "abi": [
    {
      "constant": true,
      "inputs": [],
      "name": "owner",
      "outputs": [
        {
          "name": "",
          "type": "address"
        }
      ],
      "payable": false,
      "stateMutability": "view",
      "type": "function"
    },
    {
      "constant": true,
      "inputs": [],
      "name": "isOwner",
      "outputs": [
        {
          "name": "",
          "type": "bool"
        }
      ],
      "payable": false,
      "stateMutability": "view",
      "type": "function"
    },
    {
      "constant": true,
      "inputs": [],
      "name": "nodeControlDb",
      "outputs": [
        {
          "name": "",
          "type": "address"
        }
      ],
      "payable": false,
      "stateMutability": "view",
      "type": "function"
    },
    {
      "constant": false,
      "inputs": [
        {
          "name": "newOwner",
          "type": "address"
        }
      ],
      "name": "transferOwnership",
      "outputs": [],
      "payable": false,
      "stateMutability": "nonpayable",
      "type": "function"
    },
    {
      "inputs": [
        {
          "name": "_nodeControlDb",
          "type": "address"
        },
        {
          "name": "_owner",
          "type": "address"
        }
      ],
      "payable": false,
      "stateMutability": "nonpayable",
      "type": "constructor"
    },
    {
      "anonymous": false,
      "inputs": [
        {
          "indexed": true,
          "name": "previousOwner",
          "type": "address"
        },
        {
          "indexed": true,
          "name": "newOwner",
          "type": "address"
        }
      ],
      "name": "OwnershipTransferred",
      "type": "event"
    },
    {
      "anonymous": false,
      "inputs": [
        {
          "indexed": true,
          "name": "_targetValidator",
          "type": "address"
        }
      ],
      "name": "UpdateAvailable",
      "type": "event"
    },
    {
      "constant": false,
      "inputs": [],
      "name": "confirmUpdate",
      "outputs": [],
      "payable": false,
      "stateMutability": "nonpayable",
      "type": "function"
    },
    {
      "constant": true,
      "inputs": [
        {
          "name": "_targetValidator",
          "type": "address"
        }
      ],
      "name": "retrieveExpectedState",
      "outputs": [
        {
          "components": [
            {
              "name": "dockerSha",
              "type": "bytes"
            },
            {
              "name": "dockerName",
              "type": "string"
            },
            {
              "name": "chainSpecSha",
              "type": "bytes"
            },
            {
              "name": "chainSpecUrl",
              "type": "string"
            },
            {
              "name": "isSigning",
              "type": "bool"
            },
            {
              "name": "updateIntroduced",
              "type": "uint256"
            },
            {
              "name": "updateConfirmed",
              "type": "uint256"
            }
          ],
          "name": "",
          "type": "tuple"
        }
      ],
      "payable": false,
      "stateMutability": "view",
      "type": "function"
    },
    {
      "constant": true,
      "inputs": [
        {
          "name": "_targetValidator",
          "type": "address"
        }
      ],
      "name": "isUpdateConfirmed",
      "outputs": [
        {
          "name": "",
          "type": "bool"
        }
      ],
      "payable": false,
      "stateMutability": "view",
      "type": "function"
    },
    {
      "constant": false,
      "inputs": [
        {
          "name": "_targetValidator",
          "type": "address"
        },
        {
          "name": "_dockerSha",
          "type": "bytes"
        },
        {
          "name": "_dockerName",
          "type": "string"
        },
        {
          "name": "_chainSpecSha",
          "type": "bytes"
        },
        {
          "name": "_chainSpecUrl",
          "type": "string"
        },
        {
          "name": "_isSigning",
          "type": "bool"
        }
      ],
      "name": "updateValidator",
      "outputs": [],
      "payable": false,
      "stateMutability": "nonpayable",
      "type": "function"
    }
  ],
  "bytecode": "0x60806040523480156200001157600080fd5b506040516040806200208d8339810180604052620000339190810190620002a8565b336000806101000a81548173ffffffffffffffffffffffffffffffffffffffff021916908373ffffffffffffffffffffffffffffffffffffffff1602179055506000809054906101000a900473ffffffffffffffffffffffffffffffffffffffff1673ffffffffffffffffffffffffffffffffffffffff16600073ffffffffffffffffffffffffffffffffffffffff167f8be0079c531659141344cd1fd0a4f28419497f9722a3daafe3b4186f6b6457e060405160405180910390a381600160006101000a81548173ffffffffffffffffffffffffffffffffffffffff021916908373ffffffffffffffffffffffffffffffffffffffff16021790555062000141816200014960201b60201c565b5050620003da565b600073ffffffffffffffffffffffffffffffffffffffff168173ffffffffffffffffffffffffffffffffffffffff161415620001bc576040517f08c379a0000000000000000000000000000000000000000000000000000000008152600401620001b3906200032b565b60405180910390fd5b8073ffffffffffffffffffffffffffffffffffffffff166000809054906101000a900473ffffffffffffffffffffffffffffffffffffffff1673ffffffffffffffffffffffffffffffffffffffff167f8be0079c531659141344cd1fd0a4f28419497f9722a3daafe3b4186f6b6457e060405160405180910390a3806000806101000a81548173ffffffffffffffffffffffffffffffffffffffff021916908373ffffffffffffffffffffffffffffffffffffffff16021790555050565b6000815190506200028b81620003a6565b92915050565b600081519050620002a281620003c0565b92915050565b60008060408385031215620002bc57600080fd5b6000620002cc8582860162000291565b9250506020620002df858286016200027a565b9150509250929050565b6000620002f8601f836200034d565b91507f4e6577206f776e657220616464726573732063616e6e6f7420626520307830006000830152602082019050919050565b600060208201905081810360008301526200034681620002e9565b9050919050565b600082825260208201905092915050565b60006200036b8262000386565b9050919050565b60006200037f826200035e565b9050919050565b600073ffffffffffffffffffffffffffffffffffffffff82169050919050565b620003b1816200035e565b8114620003bd57600080fd5b50565b620003cb8162000372565b8114620003d757600080fd5b50565b611ca380620003ea6000396000f3fe608060405234801561001057600080fd5b50600436106100885760003560e01c80638f32d59b1161005b5780638f32d59b14610101578063b71da0d11461011f578063ec2626111461014f578063f2fde38b1461016d57610088565b806312127ed71461008d5780633f67c333146100a957806389c3ce1e146100b35780638da5cb5b146100e3575b600080fd5b6100a760048036036100a2919081019061118d565b610189565b005b6100b16107d7565b005b6100cd60048036036100c89190810190611164565b610a23565b6040516100da91906119c0565b60405180910390f35b6100eb610aee565b6040516100f891906117b7565b60405180910390f35b610109610b17565b604051610116919061186a565b60405180910390f35b61013960048036036101349190810190611164565b610b6e565b604051610146919061186a565b60405180910390f35b610157610c22565b6040516101649190611885565b60405180910390f35b61018760048036036101829190810190611164565b610c48565b005b610191610b17565b6101d0576040517f08c379a00000000000000000000000000000000000000000000000000000000081526004016101c790611940565b60405180910390fd5b600085511415610215576040517f08c379a000000000000000000000000000000000000000000000000000000000815260040161020c906118e0565b60405180910390fd5b60008451141561025a576040517f08c379a000000000000000000000000000000000000000000000000000000000815260040161025190611980565b60405180910390fd5b60008351141561029f576040517f08c379a0000000000000000000000000000000000000000000000000000000008152600401610296906118a0565b60405180910390fd5b6000825114156102e4576040517f08c379a00000000000000000000000000000000000000000000000000000000081526004016102db906118c0565b60405180910390fd5b8480519060200120600160009054906101000a900473ffffffffffffffffffffffffffffffffffffffff1673ffffffffffffffffffffffffffffffffffffffff1663fbd74f84886040518263ffffffff1660e01b815260040161034791906117b7565b60006040518083038186803b15801561035f57600080fd5b505afa158015610373573d6000803e3d6000fd5b505050506040513d6000823e3d601f19601f8201168201806040525061039c919081019061129f565b8051906020012014801561046c57508380519060200120600160009054906101000a900473ffffffffffffffffffffffffffffffffffffffff1673ffffffffffffffffffffffffffffffffffffffff1663a999809f886040518263ffffffff1660e01b815260040161040e91906117b7565b60006040518083038186803b15801561042657600080fd5b505afa15801561043a573d6000803e3d6000fd5b505050506040513d6000823e3d601f19601f8201168201806040525061046391908101906112e0565b80519060200120145b801561053457508280519060200120600160009054906101000a900473ffffffffffffffffffffffffffffffffffffffff1673ffffffffffffffffffffffffffffffffffffffff166370a05b18886040518263ffffffff1660e01b81526004016104d691906117b7565b60006040518083038186803b1580156104ee57600080fd5b505afa158015610502573d6000803e3d6000fd5b505050506040513d6000823e3d601f19601f8201168201806040525061052b919081019061129f565b80519060200120145b80156105fc57508180519060200120600160009054906101000a900473ffffffffffffffffffffffffffffffffffffffff1673ffffffffffffffffffffffffffffffffffffffff166332d91c0e886040518263ffffffff1660e01b815260040161059e91906117b7565b60006040518083038186803b1580156105b657600080fd5b505afa1580156105ca573d6000803e3d6000fd5b505050506040513d6000823e3d601f19601f820116820180604052506105f391908101906112e0565b80519060200120145b80156106b55750801515600160009054906101000a900473ffffffffffffffffffffffffffffffffffffffff1673ffffffffffffffffffffffffffffffffffffffff1663ee7ee0fd886040518263ffffffff1660e01b815260040161066191906117b7565b60206040518083038186803b15801561067957600080fd5b505afa15801561068d573d6000803e3d6000fd5b505050506040513d601f19601f820116820180604052506106b19190810190611276565b1515145b156106f5576040517f08c379a00000000000000000000000000000000000000000000000000000000081526004016106ec90611960565b60405180910390fd5b600160009054906101000a900473ffffffffffffffffffffffffffffffffffffffff1673ffffffffffffffffffffffffffffffffffffffff1663eab7ad928787878787876040518763ffffffff1660e01b815260040161075a969594939291906117ed565b600060405180830381600087803b15801561077457600080fd5b505af1158015610788573d6000803e3d6000fd5b505050508573ffffffffffffffffffffffffffffffffffffffff167fc9e49a024d50440c73d2d12d0ae05064094dca76b46dc95e99ea6848eb8f27e960405160405180910390a2505050505050565b6000600160009054906101000a900473ffffffffffffffffffffffffffffffffffffffff1673ffffffffffffffffffffffffffffffffffffffff1663fbd74f84336040518263ffffffff1660e01b815260040161083491906117d2565b60006040518083038186803b15801561084c57600080fd5b505afa158015610860573d6000803e3d6000fd5b505050506040513d6000823e3d601f19601f82011682018060405250610889919081019061129f565b5114156108cb576040517f08c379a00000000000000000000000000000000000000000000000000000000081526004016108c2906119a0565b60405180910390fd5b3073ffffffffffffffffffffffffffffffffffffffff1663b71da0d1336040518263ffffffff1660e01b815260040161090491906117d2565b60206040518083038186803b15801561091c57600080fd5b505afa158015610930573d6000803e3d6000fd5b505050506040513d601f19601f820116820180604052506109549190810190611276565b15610994576040517f08c379a000000000000000000000000000000000000000000000000000000000815260040161098b90611900565b60405180910390fd5b600160009054906101000a900473ffffffffffffffffffffffffffffffffffffffff1673ffffffffffffffffffffffffffffffffffffffff1663954029c9336040518263ffffffff1660e01b81526004016109ef91906117d2565b600060405180830381600087803b158015610a0957600080fd5b505af1158015610a1d573d6000803e3d6000fd5b50505050565b610a2b610dc9565b610a33610dc9565b600160009054906101000a900473ffffffffffffffffffffffffffffffffffffffff1673ffffffffffffffffffffffffffffffffffffffff16631bab58f5846040518263ffffffff1660e01b8152600401610a8e91906117b7565b60006040518083038186803b158015610aa657600080fd5b505afa158015610aba573d6000803e3d6000fd5b505050506040513d6000823e3d601f19601f82011682018060405250610ae39190810190611321565b905080915050919050565b60008060009054906101000a900473ffffffffffffffffffffffffffffffffffffffff16905090565b60008060009054906101000a900473ffffffffffffffffffffffffffffffffffffffff1673ffffffffffffffffffffffffffffffffffffffff163373ffffffffffffffffffffffffffffffffffffffff1614905090565b6000600160009054906101000a900473ffffffffffffffffffffffffffffffffffffffff1673ffffffffffffffffffffffffffffffffffffffff1663b71da0d1836040518263ffffffff1660e01b8152600401610bcb91906117b7565b60206040518083038186803b158015610be357600080fd5b505afa158015610bf7573d6000803e3d6000fd5b505050506040513d601f19601f82011682018060405250610c1b9190810190611276565b9050919050565b600160009054906101000a900473ffffffffffffffffffffffffffffffffffffffff1681565b610c50610b17565b610c8f576040517f08c379a0000000000000000000000000000000000000000000000000000000008152600401610c8690611940565b60405180910390fd5b610c9881610c9b565b50565b600073ffffffffffffffffffffffffffffffffffffffff168173ffffffffffffffffffffffffffffffffffffffff161415610d0b576040517f08c379a0000000000000000000000000000000000000000000000000000000008152600401610d0290611920565b60405180910390fd5b8073ffffffffffffffffffffffffffffffffffffffff166000809054906101000a900473ffffffffffffffffffffffffffffffffffffffff1673ffffffffffffffffffffffffffffffffffffffff167f8be0079c531659141344cd1fd0a4f28419497f9722a3daafe3b4186f6b6457e060405160405180910390a3806000806101000a81548173ffffffffffffffffffffffffffffffffffffffff021916908373ffffffffffffffffffffffffffffffffffffffff16021790555050565b6040518060e001604052806060815260200160608152602001606081526020016060815260200160001515815260200160008152602001600081525090565b600081359050610e1781611c24565b92915050565b600081359050610e2c81611c3b565b92915050565b600081519050610e4181611c3b565b92915050565b600082601f830112610e5857600080fd5b8151610e6b610e6682611a0f565b6119e2565b91508082526020830160208301858383011115610e8757600080fd5b610e92838284611be0565b50505092915050565b600082601f830112610eac57600080fd5b8135610ebf610eba82611a3b565b6119e2565b91508082526020830160208301858383011115610edb57600080fd5b610ee6838284611bd1565b50505092915050565b600082601f830112610f0057600080fd5b8151610f13610f0e82611a3b565b6119e2565b91508082526020830160208301858383011115610f2f57600080fd5b610f3a838284611be0565b50505092915050565b600082601f830112610f5457600080fd5b8151610f67610f6282611a67565b6119e2565b91508082526020830160208301858383011115610f8357600080fd5b610f8e838284611be0565b50505092915050565b600082601f830112610fa857600080fd5b8135610fbb610fb682611a93565b6119e2565b91508082526020830160208301858383011115610fd757600080fd5b610fe2838284611bd1565b50505092915050565b600082601f830112610ffc57600080fd5b815161100f61100a82611a93565b6119e2565b9150808252602083016020830185838301111561102b57600080fd5b611036838284611be0565b50505092915050565b600060e0828403121561105157600080fd5b61105b60e06119e2565b9050600082015167ffffffffffffffff81111561107757600080fd5b61108384828501610e47565b600083015250602082015167ffffffffffffffff8111156110a357600080fd5b6110af84828501610f43565b602083015250604082015167ffffffffffffffff8111156110cf57600080fd5b6110db84828501610e47565b604083015250606082015167ffffffffffffffff8111156110fb57600080fd5b61110784828501610f43565b606083015250608061111b84828501610e32565b60808301525060a061112f8482850161114f565b60a08301525060c06111438482850161114f565b60c08301525092915050565b60008151905061115e81611c52565b92915050565b60006020828403121561117657600080fd5b600061118484828501610e08565b91505092915050565b60008060008060008060c087890312156111a657600080fd5b60006111b489828a01610e08565b965050602087013567ffffffffffffffff8111156111d157600080fd5b6111dd89828a01610e9b565b955050604087013567ffffffffffffffff8111156111fa57600080fd5b61120689828a01610f97565b945050606087013567ffffffffffffffff81111561122357600080fd5b61122f89828a01610e9b565b935050608087013567ffffffffffffffff81111561124c57600080fd5b61125889828a01610f97565b92505060a061126989828a01610e1d565b9150509295509295509295565b60006020828403121561128857600080fd5b600061129684828501610e32565b91505092915050565b6000602082840312156112b157600080fd5b600082015167ffffffffffffffff8111156112cb57600080fd5b6112d784828501610eef565b91505092915050565b6000602082840312156112f257600080fd5b600082015167ffffffffffffffff81111561130c57600080fd5b61131884828501610feb565b91505092915050565b60006020828403121561133357600080fd5b600082015167ffffffffffffffff81111561134d57600080fd5b6113598482850161103f565b91505092915050565b61136b81611b77565b82525050565b61137a81611b2f565b82525050565b61138981611b41565b82525050565b61139881611b41565b82525050565b60006113a982611aca565b6113b38185611afc565b93506113c3818560208601611be0565b6113cc81611c13565b840191505092915050565b60006113e282611abf565b6113ec8185611aeb565b93506113fc818560208601611be0565b61140581611c13565b840191505092915050565b61141981611b89565b82525050565b600061142a82611ae0565b6114348185611b1e565b9350611444818560208601611be0565b61144d81611c13565b840191505092915050565b600061146382611ad5565b61146d8185611b0d565b935061147d818560208601611be0565b61148681611c13565b840191505092915050565b600061149e602083611b1e565b91507f436861696e537065635368612073686f756c64206e6f7420626520656d7074796000830152602082019050919050565b60006114de602083611b1e565b91507f436861696e5370656355726c2073686f756c64206e6f7420626520656d7074796000830152602082019050919050565b600061151e601d83611b1e565b91507f446f636b65725368612073686f756c64206e6f7420626520656d7074790000006000830152602082019050919050565b600061155e601883611b1e565b91507f4572726f723a20416c726561647920436f6e6669726d656400000000000000006000830152602082019050919050565b600061159e601f83611b1e565b91507f4e6577206f776e657220616464726573732063616e6e6f7420626520307830006000830152602082019050919050565b60006115de601383611b1e565b91507f53656e646572206973206e6f74206f776e6572000000000000000000000000006000830152602082019050919050565b600061161e602583611b1e565b91507f4572726f723a204e6f206368616e67657320696e20746865207061737365642060008301527f53746174650000000000000000000000000000000000000000000000000000006020830152604082019050919050565b6000611684601e83611b1e565b91507f446f636b65724e616d652073686f756c64206e6f7420626520656d70747900006000830152602082019050919050565b60006116c4601f83611b1e565b91507f4572726f723a20596f7520617265206e6f7420612076616c696461746f7221006000830152602082019050919050565b600060e083016000830151848203600086015261171482826113d7565b9150506020830151848203602086015261172e8282611458565b9150506040830151848203604086015261174882826113d7565b915050606083015184820360608601526117628282611458565b91505060808301516117776080860182611380565b5060a083015161178a60a08601826117a8565b5060c083015161179d60c08601826117a8565b508091505092915050565b6117b181611b6d565b82525050565b60006020820190506117cc6000830184611371565b92915050565b60006020820190506117e76000830184611362565b92915050565b600060c0820190506118026000830189611371565b8181036020830152611814818861139e565b90508181036040830152611828818761141f565b9050818103606083015261183c818661139e565b90508181036080830152611850818561141f565b905061185f60a083018461138f565b979650505050505050565b600060208201905061187f600083018461138f565b92915050565b600060208201905061189a6000830184611410565b92915050565b600060208201905081810360008301526118b981611491565b9050919050565b600060208201905081810360008301526118d9816114d1565b9050919050565b600060208201905081810360008301526118f981611511565b9050919050565b6000602082019050818103600083015261191981611551565b9050919050565b6000602082019050818103600083015261193981611591565b9050919050565b60006020820190508181036000830152611959816115d1565b9050919050565b6000602082019050818103600083015261197981611611565b9050919050565b6000602082019050818103600083015261199981611677565b9050919050565b600060208201905081810360008301526119b9816116b7565b9050919050565b600060208201905081810360008301526119da81846116f7565b905092915050565b6000604051905081810181811067ffffffffffffffff82111715611a0557600080fd5b8060405250919050565b600067ffffffffffffffff821115611a2657600080fd5b601f19601f8301169050602081019050919050565b600067ffffffffffffffff821115611a5257600080fd5b601f19601f8301169050602081019050919050565b600067ffffffffffffffff821115611a7e57600080fd5b601f19601f8301169050602081019050919050565b600067ffffffffffffffff821115611aaa57600080fd5b601f19601f8301169050602081019050919050565b600081519050919050565b600081519050919050565b600081519050919050565b600081519050919050565b600082825260208201905092915050565b600082825260208201905092915050565b600082825260208201905092915050565b600082825260208201905092915050565b6000611b3a82611b4d565b9050919050565b60008115159050919050565b600073ffffffffffffffffffffffffffffffffffffffff82169050919050565b6000819050919050565b6000611b8282611bad565b9050919050565b6000611b9482611b9b565b9050919050565b6000611ba682611b4d565b9050919050565b6000611bb882611bbf565b9050919050565b6000611bca82611b4d565b9050919050565b82818337600083830152505050565b60005b83811015611bfe578082015181840152602081019050611be3565b83811115611c0d576000848401525b50505050565b6000601f19601f8301169050919050565b611c2d81611b2f565b8114611c3857600080fd5b50565b611c4481611b41565b8114611c4f57600080fd5b50565b611c5b81611b6d565b8114611c6657600080fd5b5056fea265627a7a72305820290276b4015d57f13a6463a8cae86f034bcaf7fa0fec97f17b80fe2a55675bde6c6578706572696d656e74616cf50037",
  "source": "pragma solidity 0.5.8;\npragma experimental ABIEncoderV2;\n\nimport \"../interfaces/INodeControl.sol\";\nimport \"./NodeControlDb.sol\";\nimport \"../misc/Ownable.sol\";\n\n\ncontract NodeControlSimple is INodeControl, Ownable {\n\n    NodeControlDb public nodeControlDb;\n\n    /// @notice Constructor\n    /// @param _nodeControlDb The db contract that should be used\n    constructor(NodeControlDb _nodeControlDb, address _owner)\n        public \n    {\n        nodeControlDb = _nodeControlDb;\n        _transferOwnership(_owner);\n    }\n\n    /// @notice Lets the validator confirm the update\n    function confirmUpdate() \n        external \n    {\n        require(nodeControlDb.getDockerSha(msg.sender).length != 0, \"Error: You are not a validator!\");\n        require(!this.isUpdateConfirmed(msg.sender), \"Error: Already Confirmed\");\n        nodeControlDb.setUpdateConfirmed(msg.sender);\n    }\n\n    /// @notice Returns the expected state of a validator\n    /// @param _targetValidator The validator whos state you want\n    /// @return The state of the validator\n    function retrieveExpectedState(address _targetValidator) \n        external \n        view \n        returns (ValidatorState memory) \n    {\n        ValidatorState memory vs = nodeControlDb.getState(_targetValidator);\n        return vs;\n    }\n\n    /// @notice View method to check if an update was confirmed by the validator\n    /// @param _targetValidator The validator that is supposed to be checked\n    function isUpdateConfirmed(address _targetValidator) \n        external \n        view \n        returns(bool) \n    {\n        return nodeControlDb.isUpdateConfirmed(_targetValidator);\n    }\n\n    /// @notice Sets the state for a validator and emits update event\n    /// @param _targetValidator The validator whos state needs to be updated\n    /// @param _dockerSha The sha of the dockerfile\n    /// @param _dockerName The name of the dockerfile\n    /// @param _chainSpecSha The sha of the chainSpecFile\n    /// @param _chainSpecUrl The url where the chainSpecFile can be found\n    /// @param _isSigning Indicates if the validator shall sign blocks\n    function updateValidator(\n        address _targetValidator, \n        bytes memory _dockerSha, \n        string memory _dockerName, \n        bytes memory _chainSpecSha,\n        string memory _chainSpecUrl,\n        bool _isSigning\n    ) \n        public \n        onlyOwner \n    {\n        require(_dockerSha.length != 0, \"DockerSha should not be empty\");\n        require(bytes(_dockerName).length != 0, \"DockerName should not be empty\");\n        require(_chainSpecSha.length != 0, \"ChainSpecSha should not be empty\");\n        require(bytes(_chainSpecUrl).length != 0, \"ChainSpecUrl should not be empty\");\n        // It is necessary to generate the hash of the SHAs passed as parameter \n        // because bytes need to be hashed to compare them\n        require(\n            !(keccak256(bytes(nodeControlDb.getDockerSha(_targetValidator))) == \n            keccak256(bytes(_dockerSha)) && keccak256(bytes(nodeControlDb.getDockerName(_targetValidator))) == \n            keccak256(bytes(_dockerName)) && keccak256(bytes(nodeControlDb.getChainSpecSha(_targetValidator))) == \n            keccak256(bytes(_chainSpecSha)) && keccak256(bytes(nodeControlDb.getChainSpecUrl(_targetValidator))) == \n            keccak256(bytes(_chainSpecUrl)) && nodeControlDb.getIsSigning(_targetValidator) == _isSigning), \n            \"Error: No changes in the passed State\"\n        );\n        \n        nodeControlDb.setState(\n            _targetValidator, \n            _dockerSha, \n            _dockerName, \n            _chainSpecSha, \n            _chainSpecUrl, \n            _isSigning\n        );\n\n        emit UpdateAvailable(_targetValidator);\n    }\n}\n",
  "sourcePath": "/Users/mikovainio/WebstormProjects/smarthub-system-contracts/contracts/nodecontrol/NodeControlSimple.sol",
  "compiler": {
    "name": "solc",
    "version": "0.5.8+commit.23d335f2.Emscripten.clang"
  },
  "schemaVersion": "3.0.10",
  "updatedAt": "2020-03-04T11:19:07.941Z",
  "devdoc": {
    "methods": {
      "constructor": {
        "params": {
          "_nodeControlDb": "The db contract that should be used"
        }
      },
      "isOwner()": {
        "return": "true if `msg.sender` is the owner of the contract."
      },
      "isUpdateConfirmed(address)": {
        "params": {
          "_targetValidator": "The validator that is supposed to be checked"
        }
      },
      "owner()": {
        "return": "the address of the owner."
      },
      "retrieveExpectedState(address)": {
        "params": {
          "_targetValidator": "The validator whos state you want"
        },
        "return": "The state of the validator"
      },
      "transferOwnership(address)": {
        "details": "Allows the current owner to transfer control of the contract to a newOwner.",
        "params": {
          "newOwner": "The address to transfer ownership to."
        }
      },
      "updateValidator(address,bytes,string,bytes,string,bool)": {
        "params": {
          "_chainSpecSha": "The sha of the chainSpecFile",
          "_chainSpecUrl": "The url where the chainSpecFile can be found",
          "_dockerName": "The name of the dockerfile",
          "_dockerSha": "The sha of the dockerfile",
          "_isSigning": "Indicates if the validator shall sign blocks",
          "_targetValidator": "The validator whos state needs to be updated"
        }
      }
    }
  },
  "userdoc": {
    "methods": {
      "confirmUpdate()": {
        "notice": "Lets the validator confirm the update"
      },
      "constructor": "Constructor",
      "isUpdateConfirmed(address)": {
        "notice": "View method to check if an update was confirmed by the validator"
      },
      "retrieveExpectedState(address)": {
        "notice": "Returns the expected state of a validator"
      },
      "updateValidator(address,bytes,string,bytes,string,bool)": {
        "notice": "Sets the state for a validator and emits update event"
      }
    }
  }
}