{
  "contractName": "SCurveProvider",
  "abi": [
    {
      "constant": true,
      "inputs": [],
      "name": "rewardPeriodEnd",
      "outputs": [
        {
          "name": "",
          "type": "uint256"
        }
      ],
      "payable": false,
      "stateMutability": "view",
      "type": "function"
    },
    {
      "constant": true,
      "inputs": [
        {
          "name": "",
          "type": "uint256"
        }
      ],
      "name": "sCurve",
      "outputs": [
        {
          "name": "",
          "type": "uint256"
        }
      ],
      "payable": false,
      "stateMutability": "view",
      "type": "function"
    },
    {
      "constant": true,
      "inputs": [],
      "name": "REQUIRED_CURVE_LENGTH",
      "outputs": [
        {
          "name": "",
          "type": "uint256"
        }
      ],
      "payable": false,
      "stateMutability": "view",
      "type": "function"
    },
    {
      "constant": true,
      "inputs": [],
      "name": "blockStepSize",
      "outputs": [
        {
          "name": "",
          "type": "uint256"
        }
      ],
      "payable": false,
      "stateMutability": "view",
      "type": "function"
    },
    {
      "inputs": [],
      "payable": false,
      "stateMutability": "nonpayable",
      "type": "constructor"
    },
    {
      "constant": true,
      "inputs": [
        {
          "name": "_currentBlock",
          "type": "uint256"
        }
      ],
      "name": "getBlockReward",
      "outputs": [
        {
          "name": "",
          "type": "uint256"
        }
      ],
      "payable": false,
      "stateMutability": "view",
      "type": "function"
    },
    {
      "constant": true,
      "inputs": [],
      "name": "checkRewardPeriodEnded",
      "outputs": [
        {
          "name": "",
          "type": "bool"
        }
      ],
      "payable": false,
      "stateMutability": "view",
      "type": "function"
    }
  ],
  "bytecode": "0x608060405234801561001057600080fd5b5061001f61008260201b60201c565b60786000805490501461007d576040517f08c379a00000000000000000000000000000000000000000000000000000000081526004018080602001828103825260278152602001806109c46027913960400191505060405180910390fd5b61078d565b60405180610f0001604052806704398372e97bae8081526020016704398372e97bae8081526020016704398372e97bae8081526020016704398372e97bae8081526020016704398372e97bae8081526020016704398372e97bae8081526020016704398372e97bae8081526020016704395680a6af46808152602001670438cfa9de4a0e808152602001670437eeee904c06808152602001670436b44ebcb52e8081526020016704351fca638586808152602001670433316184bd0e808152602001670430e914205bc680815260200167042e46e23661ae80815260200167042b4acbc6cec6808152602001670427f4d0d1a30e80815260200167042444f156de868081526020016704203b2d56812e80815260200167041bd784d08b0680815260200167041719f7c4fc0e808152602001670412028633d44680815260200167040c91301d13ae808152602001670406c5f580ba46808152602001670400a0d65ec80e8081526020016703fa21d2b73d068081526020016703f348ea8a192e8081526020016703ec161dd75c868081526020016703e4896c9f070e8081526020016703dca2d6e118c68081526020016703d4625c9d91ae8081526020016703cbc7fdd471c68081526020016703c2d3ba85b90e8081526020016703b98592b167868081526020016703afdd86577d2e8081526020016703a5db9577fa0680815260200167039b7fc012de0e808152602001670390ca06282946808152602001670385ba67b7dbae80815260200167037a50e4c1f54680815260200167036e8d7d46760e8081526020016703627031455e06808152602001670355f900bead2e80815260200167034927ebb2638680815260200167033bfcf220810e80815260200167032e78140905c680815260200167032099516bf1ae80815260200167031260aa4944c6808152602001670303ce1ea0ff0e8081526020016702f4e1ae7320868081526020016702e59b59bfa92e8081526020016702d5fb208699068081526020016702c60102c7f00e8081526020016702b5ad0083ae468081526020016702a4ff19b9d3ae808152602001670293f74e6a6046808152602001670282959e95540e808152602001670270da0a3aaf0680815260200167025ec4915a712e80815260200167024c5533f49a86808152602001670238da1d6b04400081526020016702260c5cdf4d240081526020016702138f83989f90008152602001670201639196fb840081526020016701ef8886da61000081526020016701ddfe6362d0040081526020016701ccc5273048900081526020016701bbdcd242caa40081526020016701ab45649a564000815260200167019afede36eb6400815260200167018b093f188a1000815260200167017b64873f324400815260200167016c10b6aae40000815260200167015d0dcd5b9f4400815260200167014e5bcb51641000815260200167013ffab08c3264008152602001670131ea7d0c0a400081526020016701242b30d0eba4008152602001670116bccbdad6900081526020016701099f4e29cb0400815260200166fcd2b7bdc90000815260200166f0570896d08400815260200166e42c40b4e19000815260200166d8526017fc2400815260200166ccc966c0204000815260200166c19154ad4de400815260200166b6aa29df851000815260200166ac13e656c5c400815260200166a1ce8a1310000081526020016697da151463c4008152602001668e36875ac1100081526020016684e3e0e627e4008152602001667be221b6984000815260200166733149cc1224008152602001666ad1592695900081526020016662c24fc62284008152602001665b042daab900008152602001665396f2d45904008152602001664c7a9f4302900081526020016645af32f6b5a4008152602001663f34adef724000815260200166390b102d386400815260200166333259b00810008152602001662daa8a77e144008152602001662873a284c40000815260200166238da1d6b044008152602001661ef8886da610008152602001661ab45649a5640081526020016616c10b6aae4000815260200166131ea7d0c0a4008152602001660fcd2b7bdc90008152602001660ccc966c0204008152602001660a1ce8a131000081526020016607be221b69840081526020016605b042daab900081526020016603f34adef7240081526020016602873a284c4000815260200166016c10b6aae400815260200165a1ce8a1310008152602001652873a284c400815250600090607861070292919061071b565b5062080520600181905550607860015402600281905550565b828054828255906000526020600020908101928215610757579160200282015b8281111561075657825182559160200191906001019061073b565b5b5090506107649190610768565b5090565b61078a91905b8082111561078657600081600090555060010161076e565b5090565b90565b6102288061079c6000396000f3fe608060405234801561001057600080fd5b50600436106100625760003560e01c8063078d8e7a146100675780630f411cdb1461008957806318129375146100a75780634f4013fb146100e957806394f7f62b14610107578063fb1ac52514610149575b600080fd5b61006f610167565b604051808215151515815260200191505060405180910390f35b610091610177565b6040518082815260200191505060405180910390f35b6100d3600480360360208110156100bd57600080fd5b810190808035906020019092919050505061017d565b6040518082815260200191505060405180910390f35b6100f161019e565b6040518082815260200191505060405180910390f35b6101336004803603602081101561011d57600080fd5b81019080803590602001909291905050506101a3565b6040518082815260200191505060405180910390f35b6101516101e7565b6040518082815260200191505060405180910390f35b6000610172436101ed565b905090565b60025481565b6000818154811061018a57fe5b906000526020600020016000915090505481565b607881565b60006101ae826101ed565b156101bc57600090506101e2565b600060015483816101c957fe5b04815481106101d457fe5b906000526020600020015490505b919050565b60015481565b6000600254821015905091905056fea165627a7a723058208de8a12015e803773608122031b0c6a9b9e97172a4969f3ac716fa03b611c0a90029526577617264206375727665206973206e6f7420746865207265717569726564206c656e677468",
  "source": "pragma solidity 0.5.8;\n\n\n/// @title S Curve Reward provider\n/// @notice Provides the appropriate block author rewards\n/// based on points of a discrete, inverse S curve\ncontract SCurveProvider {\n\n    /// Required length of the discrete S curve\n    uint256 public constant REQUIRED_CURVE_LENGTH = 120;\n\n    /// Discrete points of the curve\n    uint256[] public sCurve;\n    /// Discrete step size\n    uint256 public blockStepSize;\n    /// End of the reward period (both block- and community reward)\n    /// expressed in block number\n    uint256 public rewardPeriodEnd;\n\n    constructor()\n        public\n    {\n        _initCurve();\n        // This check is for protecting against some tampering\n        // for chainspec deployment\n        require(sCurve.length == REQUIRED_CURVE_LENGTH, \"Reward curve is not the required length\");\n    }\n\n    /// @notice Returns the block reward amount based on the block number\n    /// and points of the S curve\n    /// @param _currentBlock The block number to calculate the reward to\n    /// @return The block reward amount in wei\n    function getBlockReward(uint256 _currentBlock)\n        public\n        view\n        returns (uint256)\n    {\n        if (_checkRewardPeriodEnded(_currentBlock)) {\n            return 0;\n        }\n        return sCurve[_currentBlock / blockStepSize];\n    }\n\n    /// @notice Checks whether the reward period is over or not (block and community)\n    /// @return True if the reward period has ended, false otherwise\n    function checkRewardPeriodEnded()\n        public\n        view\n        returns (bool)\n    {\n        return _checkRewardPeriodEnded(block.number);\n    }\n\n    /// @notice Checks whether the block reward period is over or not\n    /// @param _currentBlock The block number to check on\n    /// @return True if the block reward period has ended, false otherwise\n    function _checkRewardPeriodEnded(uint256 _currentBlock)\n        internal\n        view\n        returns (bool)\n    {\n        return (_currentBlock >= rewardPeriodEnd);\n    }\n\n    // solhint-disable function-max-lines\n    /// @dev Inits the S curve. Values are hardcoded,\n    /// everyhting is calculated beforehand\n    function _initCurve()\n        private\n    {   \n        sCurve = [\n            uint256(304418979390926464),\n            304418979390926464,\n            304418979390926464,\n            304418979390926464,\n            304418979390926464,\n            304418979390926464,\n            304418979390926464,\n            304369560376526464,\n            304221303333326464,\n            303974208261326464,\n            303628275160526464,\n            303183504030926464,\n            302639894872526464,\n            301997447685326464,\n            301256162469326464,\n            300416039224526464,\n            299477077950926464,\n            298439278648526464,\n            297302641317326464,\n            296067165957326464,\n            294732852568526464,\n            293299701150926464,\n            291767711704526464,\n            290136884229326464,\n            288407218725326464,\n            286578715192526464,\n            284651373630926464,\n            282625194040526464,\n            280500176421326464,\n            278276320773326464,\n            275953627096526464,\n            273532095390926464,\n            271011725656526464,\n            268392517893326464,\n            265674472101326464,\n            262857588280526464,\n            259941866430926464,\n            256927306552526464,\n            253813908645326464,\n            250601672709326464,\n            247290598744526464,\n            243880686750926464,\n            240371936728526464,\n            236764348677326464,\n            233057922597326464,\n            229252658488526464,\n            225348556350926464,\n            221345616184526464,\n            217243837989326464,\n            213043221765326464,\n            208743767512526464,\n            204345475230926464,\n            199848344920526464,\n            195252376581326464,\n            190557570213326464,\n            185763925816526464,\n            180871443390926464,\n            175880122936526464,\n            170789964453326464,\n            165600967941326464,\n            160117606656000000,\n            154824830213760000,\n            149621007997440000,\n            144506140007040000,\n            139480226242560000,\n            134543266704000000,\n            129695261391360000,\n            124936210304640000,\n            120266113443840000,\n            115684970808960000,\n            111192782400000000,\n            106789548216960000,\n            102475268259840000,\n            98249942528640000,\n            94113571023360000,\n            90066153744000000,\n            86107690690560000,\n            82238181863040000,\n            78457627261440000,\n            74766026885760000,\n            71163380736000000,\n            67649688812160000,\n            64224951114240000,\n            60889167642240000,\n            57642338396160000,\n            54484463376000000,\n            51415542581760000,\n            48435576013440000,\n            45544563671040000,\n            42742505554560000,\n            40029401664000000,\n            37405251999360000,\n            34870056560640000,\n            32423815347840000,\n            30066528360960000,\n            27798195600000000,\n            25618817064960000,\n            23528392755840000,\n            21526922672640000,\n            19614406815360000,\n            17790845184000000,\n            16056237778560000,\n            14410584599040000,\n            12853885645440000,\n            11386140917760000,\n            10007350416000000,\n            8717514140160000,\n            7516632090240000,\n            6404704266240000,\n            5381730668160000,\n            4447711296000000,\n            3602646149760000,\n            2846535229440000,\n            2179378535040000,\n            1601176066560000,\n            1111927824000000,\n            711633807360000,\n            400294016640000,\n            177908451840000,\n            44477112960000\n        ];\n        // roughly 1 month with a 5 sec step size\n        blockStepSize = 525600;\n        //roughly 10 years with a 5 sec step size\n        rewardPeriodEnd = blockStepSize * REQUIRED_CURVE_LENGTH;\n    }\n\n    // solhint-enable function-max-lines\n}\n",
  "sourcePath": "/Users/mikovainio/WebstormProjects/smarthub-system-contracts/contracts/reward/SCurveProvider.sol",
  "compiler": {
    "name": "solc",
    "version": "0.5.8+commit.23d335f2.Emscripten.clang"
  },
  "schemaVersion": "3.0.10",
  "updatedAt": "2020-03-04T11:19:07.967Z",
  "devdoc": {
    "methods": {
      "checkRewardPeriodEnded()": {
        "return": "True if the reward period has ended, false otherwise"
      },
      "getBlockReward(uint256)": {
        "params": {
          "_currentBlock": "The block number to calculate the reward to"
        },
        "return": "The block reward amount in wei"
      }
    },
    "title": "S Curve Reward provider"
  },
  "userdoc": {
    "methods": {
      "checkRewardPeriodEnded()": {
        "notice": "Checks whether the reward period is over or not (block and community)"
      },
      "getBlockReward(uint256)": {
        "notice": "Returns the block reward amount based on the block number and points of the S curve"
      }
    },
    "notice": "Provides the appropriate block author rewards based on points of a discrete, inverse S curve"
  }
}