{
  "contractName": "SimpleRegistry",
  "abi": [
    {
      "constant": true,
      "inputs": [
        {
          "name": "",
          "type": "bytes32"
        }
      ],
      "name": "entries",
      "outputs": [
        {
          "name": "owner",
          "type": "address"
        },
        {
          "name": "reverse",
          "type": "address"
        }
      ],
      "payable": false,
      "stateMutability": "view",
      "type": "function"
    },
    {
      "constant": true,
      "inputs": [
        {
          "name": "",
          "type": "address"
        }
      ],
      "name": "reverses",
      "outputs": [
        {
          "name": "",
          "type": "string"
        }
      ],
      "payable": false,
      "stateMutability": "view",
      "type": "function"
    },
    {
      "constant": true,
      "inputs": [],
      "name": "owner",
      "outputs": [
        {
          "name": "",
          "type": "address"
        }
      ],
      "payable": false,
      "stateMutability": "view",
      "type": "function"
    },
    {
      "constant": true,
      "inputs": [],
      "name": "isOwner",
      "outputs": [
        {
          "name": "",
          "type": "bool"
        }
      ],
      "payable": false,
      "stateMutability": "view",
      "type": "function"
    },
    {
      "constant": false,
      "inputs": [
        {
          "name": "newOwner",
          "type": "address"
        }
      ],
      "name": "transferOwnership",
      "outputs": [],
      "payable": false,
      "stateMutability": "nonpayable",
      "type": "function"
    },
    {
      "inputs": [
        {
          "name": "_owner",
          "type": "address"
        }
      ],
      "payable": false,
      "stateMutability": "nonpayable",
      "type": "constructor"
    },
    {
      "anonymous": false,
      "inputs": [
        {
          "indexed": false,
          "name": "amount",
          "type": "uint256"
        }
      ],
      "name": "Drained",
      "type": "event"
    },
    {
      "anonymous": false,
      "inputs": [
        {
          "indexed": false,
          "name": "amount",
          "type": "uint256"
        }
      ],
      "name": "FeeChanged",
      "type": "event"
    },
    {
      "anonymous": false,
      "inputs": [
        {
          "indexed": false,
          "name": "name",
          "type": "string"
        },
        {
          "indexed": true,
          "name": "reverse",
          "type": "address"
        }
      ],
      "name": "ReverseProposed",
      "type": "event"
    },
    {
      "anonymous": false,
      "inputs": [
        {
          "indexed": false,
          "name": "name",
          "type": "string"
        },
        {
          "indexed": true,
          "name": "reverse",
          "type": "address"
        }
      ],
      "name": "ReverseConfirmed",
      "type": "event"
    },
    {
      "anonymous": false,
      "inputs": [
        {
          "indexed": false,
          "name": "name",
          "type": "string"
        },
        {
          "indexed": true,
          "name": "reverse",
          "type": "address"
        }
      ],
      "name": "ReverseRemoved",
      "type": "event"
    },
    {
      "anonymous": false,
      "inputs": [
        {
          "indexed": true,
          "name": "name",
          "type": "bytes32"
        },
        {
          "indexed": true,
          "name": "owner",
          "type": "address"
        }
      ],
      "name": "Reserved",
      "type": "event"
    },
    {
      "anonymous": false,
      "inputs": [
        {
          "indexed": true,
          "name": "name",
          "type": "bytes32"
        },
        {
          "indexed": true,
          "name": "oldOwner",
          "type": "address"
        },
        {
          "indexed": true,
          "name": "newOwner",
          "type": "address"
        }
      ],
      "name": "Transferred",
      "type": "event"
    },
    {
      "anonymous": false,
      "inputs": [
        {
          "indexed": true,
          "name": "name",
          "type": "bytes32"
        },
        {
          "indexed": true,
          "name": "owner",
          "type": "address"
        }
      ],
      "name": "Dropped",
      "type": "event"
    },
    {
      "anonymous": false,
      "inputs": [
        {
          "indexed": true,
          "name": "name",
          "type": "bytes32"
        },
        {
          "indexed": false,
          "name": "key",
          "type": "string"
        },
        {
          "indexed": false,
          "name": "plainKey",
          "type": "string"
        }
      ],
      "name": "DataChanged",
      "type": "event"
    },
    {
      "anonymous": false,
      "inputs": [
        {
          "indexed": true,
          "name": "previousOwner",
          "type": "address"
        },
        {
          "indexed": true,
          "name": "newOwner",
          "type": "address"
        }
      ],
      "name": "OwnershipTransferred",
      "type": "event"
    },
    {
      "constant": false,
      "inputs": [
        {
          "name": "_name",
          "type": "bytes32"
        }
      ],
      "name": "reserve",
      "outputs": [
        {
          "name": "success",
          "type": "bool"
        }
      ],
      "payable": false,
      "stateMutability": "nonpayable",
      "type": "function"
    },
    {
      "constant": false,
      "inputs": [
        {
          "name": "_name",
          "type": "bytes32"
        },
        {
          "name": "_to",
          "type": "address"
        }
      ],
      "name": "transfer",
      "outputs": [
        {
          "name": "success",
          "type": "bool"
        }
      ],
      "payable": false,
      "stateMutability": "nonpayable",
      "type": "function"
    },
    {
      "constant": false,
      "inputs": [
        {
          "name": "_name",
          "type": "bytes32"
        }
      ],
      "name": "drop",
      "outputs": [
        {
          "name": "success",
          "type": "bool"
        }
      ],
      "payable": false,
      "stateMutability": "nonpayable",
      "type": "function"
    },
    {
      "constant": false,
      "inputs": [
        {
          "name": "_name",
          "type": "bytes32"
        },
        {
          "name": "_key",
          "type": "string"
        },
        {
          "name": "_value",
          "type": "bytes32"
        }
      ],
      "name": "setData",
      "outputs": [
        {
          "name": "success",
          "type": "bool"
        }
      ],
      "payable": false,
      "stateMutability": "nonpayable",
      "type": "function"
    },
    {
      "constant": false,
      "inputs": [
        {
          "name": "_name",
          "type": "bytes32"
        },
        {
          "name": "_key",
          "type": "string"
        },
        {
          "name": "_value",
          "type": "address"
        }
      ],
      "name": "setAddress",
      "outputs": [
        {
          "name": "success",
          "type": "bool"
        }
      ],
      "payable": false,
      "stateMutability": "nonpayable",
      "type": "function"
    },
    {
      "constant": false,
      "inputs": [
        {
          "name": "_name",
          "type": "bytes32"
        },
        {
          "name": "_key",
          "type": "string"
        },
        {
          "name": "_value",
          "type": "uint256"
        }
      ],
      "name": "setUint",
      "outputs": [
        {
          "name": "success",
          "type": "bool"
        }
      ],
      "payable": false,
      "stateMutability": "nonpayable",
      "type": "function"
    },
    {
      "constant": false,
      "inputs": [
        {
          "name": "_name",
          "type": "string"
        },
        {
          "name": "_who",
          "type": "address"
        }
      ],
      "name": "proposeReverse",
      "outputs": [
        {
          "name": "success",
          "type": "bool"
        }
      ],
      "payable": false,
      "stateMutability": "nonpayable",
      "type": "function"
    },
    {
      "constant": false,
      "inputs": [
        {
          "name": "_name",
          "type": "string"
        }
      ],
      "name": "confirmReverse",
      "outputs": [
        {
          "name": "success",
          "type": "bool"
        }
      ],
      "payable": false,
      "stateMutability": "nonpayable",
      "type": "function"
    },
    {
      "constant": false,
      "inputs": [
        {
          "name": "_name",
          "type": "string"
        },
        {
          "name": "_who",
          "type": "address"
        }
      ],
      "name": "confirmReverseAs",
      "outputs": [
        {
          "name": "success",
          "type": "bool"
        }
      ],
      "payable": false,
      "stateMutability": "nonpayable",
      "type": "function"
    },
    {
      "constant": false,
      "inputs": [],
      "name": "removeReverse",
      "outputs": [],
      "payable": false,
      "stateMutability": "nonpayable",
      "type": "function"
    },
    {
      "constant": true,
      "inputs": [
        {
          "name": "_name",
          "type": "bytes32"
        },
        {
          "name": "_key",
          "type": "string"
        }
      ],
      "name": "getData",
      "outputs": [
        {
          "name": "",
          "type": "bytes32"
        }
      ],
      "payable": false,
      "stateMutability": "view",
      "type": "function"
    },
    {
      "constant": true,
      "inputs": [
        {
          "name": "_name",
          "type": "bytes32"
        },
        {
          "name": "_key",
          "type": "string"
        }
      ],
      "name": "getAddress",
      "outputs": [
        {
          "name": "",
          "type": "address"
        }
      ],
      "payable": false,
      "stateMutability": "view",
      "type": "function"
    },
    {
      "constant": true,
      "inputs": [
        {
          "name": "_name",
          "type": "bytes32"
        },
        {
          "name": "_key",
          "type": "string"
        }
      ],
      "name": "getUint",
      "outputs": [
        {
          "name": "",
          "type": "uint256"
        }
      ],
      "payable": false,
      "stateMutability": "view",
      "type": "function"
    },
    {
      "constant": true,
      "inputs": [
        {
          "name": "_name",
          "type": "bytes32"
        }
      ],
      "name": "getOwner",
      "outputs": [
        {
          "name": "",
          "type": "address"
        }
      ],
      "payable": false,
      "stateMutability": "view",
      "type": "function"
    },
    {
      "constant": true,
      "inputs": [
        {
          "name": "_name",
          "type": "bytes32"
        }
      ],
      "name": "hasReverse",
      "outputs": [
        {
          "name": "",
          "type": "bool"
        }
      ],
      "payable": false,
      "stateMutability": "view",
      "type": "function"
    },
    {
      "constant": true,
      "inputs": [
        {
          "name": "_name",
          "type": "bytes32"
        }
      ],
      "name": "getReverse",
      "outputs": [
        {
          "name": "",
          "type": "address"
        }
      ],
      "payable": false,
      "stateMutability": "view",
      "type": "function"
    },
    {
      "constant": true,
      "inputs": [
        {
          "name": "_data",
          "type": "address"
        }
      ],
      "name": "canReverse",
      "outputs": [
        {
          "name": "",
          "type": "bool"
        }
      ],
      "payable": false,
      "stateMutability": "view",
      "type": "function"
    },
    {
      "constant": true,
      "inputs": [
        {
          "name": "_data",
          "type": "address"
        }
      ],
      "name": "reverse",
      "outputs": [
        {
          "name": "",
          "type": "string"
        }
      ],
      "payable": false,
      "stateMutability": "view",
      "type": "function"
    },
    {
      "constant": true,
      "inputs": [
        {
          "name": "_name",
          "type": "bytes32"
        }
      ],
      "name": "reserved",
      "outputs": [
        {
          "name": "",
          "type": "bool"
        }
      ],
      "payable": false,
      "stateMutability": "view",
      "type": "function"
    }
  ],
  "bytecode": "0x60806040523480156200001157600080fd5b5060405160208062003ed2833981018060405260208110156200003357600080fd5b8101908080519060200190929190505050336000806101000a81548173ffffffffffffffffffffffffffffffffffffffff021916908373ffffffffffffffffffffffffffffffffffffffff1602179055506000809054906101000a900473ffffffffffffffffffffffffffffffffffffffff1673ffffffffffffffffffffffffffffffffffffffff16600073ffffffffffffffffffffffffffffffffffffffff167f8be0079c531659141344cd1fd0a4f28419497f9722a3daafe3b4186f6b6457e060405160405180910390a362000111816200011860201b60201c565b506200027a565b600073ffffffffffffffffffffffffffffffffffffffff168173ffffffffffffffffffffffffffffffffffffffff161415620001bc576040517f08c379a000000000000000000000000000000000000000000000000000000000815260040180806020018281038252601f8152602001807f4e6577206f776e657220616464726573732063616e6e6f74206265203078300081525060200191505060405180910390fd5b8073ffffffffffffffffffffffffffffffffffffffff166000809054906101000a900473ffffffffffffffffffffffffffffffffffffffff1673ffffffffffffffffffffffffffffffffffffffff167f8be0079c531659141344cd1fd0a4f28419497f9722a3daafe3b4186f6b6457e060405160405180910390a3806000806101000a81548173ffffffffffffffffffffffffffffffffffffffff021916908373ffffffffffffffffffffffffffffffffffffffff16021790555050565b613c48806200028a6000396000f3fe608060405234801561001057600080fd5b50600436106101585760003560e01c806392698814116100c3578063e30bd7401161007c578063e30bd740146109b5578063eadf976014610a72578063ef5454d614610b17578063f25eb5c114610bc8578063f2fde38b14610bd2578063f6d339e414610c1657610158565b80639269881414610705578063ac4e73f91461074b578063ac72c120146107fc578063c3a3582514610842578063deb931a2146108d9578063df57b7421461094757610158565b80636795dbcd116101155780636795dbcd1461041c5780636a1acc3f146104df57806379ce9fac1461059c5780638da5cb5b146106025780638f32d59b1461064c57806390b97fc11461066e57610158565b806306b2ff471461015d57806319362a28146101b9578063267b69221461025e5780633f3935d1146102ff578063432ced04146103905780634f39ca59146103d6575b600080fd5b61019f6004803603602081101561017357600080fd5b81019080803573ffffffffffffffffffffffffffffffffffffffff169060200190929190505050610cd1565b604051808215151515815260200191505060405180910390f35b610244600480360360608110156101cf57600080fd5b8101908080359060200190929190803590602001906401000000008111156101f657600080fd5b82018360208201111561020857600080fd5b8035906020019184600183028401116401000000008311171561022a57600080fd5b909192939192939080359060200190929190505050610d31565b604051808215151515815260200191505060405180910390f35b61028a6004803603602081101561027457600080fd5b8101908080359060200190929190505050610fcb565b604051808373ffffffffffffffffffffffffffffffffffffffff1673ffffffffffffffffffffffffffffffffffffffff1681526020018273ffffffffffffffffffffffffffffffffffffffff1673ffffffffffffffffffffffffffffffffffffffff1681526020019250505060405180910390f35b6103766004803603602081101561031557600080fd5b810190808035906020019064010000000081111561033257600080fd5b82018360208201111561034457600080fd5b8035906020019184600183028401116401000000008311171561036657600080fd5b909192939192939050505061102f565b604051808215151515815260200191505060405180910390f35b6103bc600480360360208110156103a657600080fd5b810190808035906020019092919050505061134e565b604051808215151515815260200191505060405180910390f35b610402600480360360208110156103ec57600080fd5b8101908080359060200190929190505050611546565b604051808215151515815260200191505060405180910390f35b61049d6004803603604081101561043257600080fd5b81019080803590602001909291908035906020019064010000000081111561045957600080fd5b82018360208201111561046b57600080fd5b8035906020019184600183028401116401000000008311171561048d57600080fd5b9091929391929390505050611a8d565b604051808273ffffffffffffffffffffffffffffffffffffffff1673ffffffffffffffffffffffffffffffffffffffff16815260200191505060405180910390f35b610521600480360360208110156104f557600080fd5b81019080803573ffffffffffffffffffffffffffffffffffffffff169060200190929190505050611bb2565b6040518080602001828103825283818151815260200191508051906020019080838360005b83811015610561578082015181840152602081019050610546565b50505050905090810190601f16801561058e5780820380516001836020036101000a031916815260200191505b509250505060405180910390f35b6105e8600480360360408110156105b257600080fd5b8101908080359060200190929190803573ffffffffffffffffffffffffffffffffffffffff169060200190929190505050611c62565b604051808215151515815260200191505060405180910390f35b61060a611f58565b604051808273ffffffffffffffffffffffffffffffffffffffff1673ffffffffffffffffffffffffffffffffffffffff16815260200191505060405180910390f35b610654611f81565b604051808215151515815260200191505060405180910390f35b6106ef6004803603604081101561068457600080fd5b8101908080359060200190929190803590602001906401000000008111156106ab57600080fd5b8201836020820111156106bd57600080fd5b803590602001918460018302840111640100000000831117156106df57600080fd5b9091929391929390505050611fd8565b6040518082815260200191505060405180910390f35b6107316004803603602081101561071b57600080fd5b81019080803590602001909291905050506120fa565b604051808215151515815260200191505060405180910390f35b6107e26004803603604081101561076157600080fd5b810190808035906020019064010000000081111561077e57600080fd5b82018360208201111561079057600080fd5b803590602001918460018302840111640100000000831117156107b257600080fd5b9091929391929390803573ffffffffffffffffffffffffffffffffffffffff169060200190929190505050612245565b604051808215151515815260200191505060405180910390f35b6108286004803603602081101561081257600080fd5b81019080803590602001909291905050506127e7565b604051808215151515815260200191505060405180910390f35b6108c36004803603604081101561085857600080fd5b81019080803590602001909291908035906020019064010000000081111561087f57600080fd5b82018360208201111561089157600080fd5b803590602001918460018302840111640100000000831117156108b357600080fd5b9091929391929390505050612932565b6040518082815260200191505060405180910390f35b610905600480360360208110156108ef57600080fd5b8101908080359060200190929190505050612a57565b604051808273ffffffffffffffffffffffffffffffffffffffff1673ffffffffffffffffffffffffffffffffffffffff16815260200191505060405180910390f35b6109736004803603602081101561095d57600080fd5b8101908080359060200190929190505050612b72565b604051808273ffffffffffffffffffffffffffffffffffffffff1673ffffffffffffffffffffffffffffffffffffffff16815260200191505060405180910390f35b6109f7600480360360208110156109cb57600080fd5b81019080803573ffffffffffffffffffffffffffffffffffffffff169060200190929190505050612c8d565b6040518080602001828103825283818151815260200191508051906020019080838360005b83811015610a37578082015181840152602081019050610a1c565b50505050905090810190601f168015610a645780820380516001836020036101000a031916815260200191505b509250505060405180910390f35b610afd60048036036060811015610a8857600080fd5b810190808035906020019092919080359060200190640100000000811115610aaf57600080fd5b820183602082011115610ac157600080fd5b80359060200191846001830284011164010000000083111715610ae357600080fd5b909192939192939080359060200190929190505050612d6e565b604051808215151515815260200191505060405180910390f35b610bae60048036036040811015610b2d57600080fd5b8101908080359060200190640100000000811115610b4a57600080fd5b820183602082011115610b5c57600080fd5b80359060200191846001830284011164010000000083111715610b7e57600080fd5b9091929391929390803573ffffffffffffffffffffffffffffffffffffffff16906020019092919050505061300b565b604051808215151515815260200191505060405180910390f35b610bd0613281565b005b610c1460048036036020811015610be857600080fd5b81019080803573ffffffffffffffffffffffffffffffffffffffff169060200190929190505050613674565b005b610cb760048036036060811015610c2c57600080fd5b810190808035906020019092919080359060200190640100000000811115610c5357600080fd5b820183602082011115610c6557600080fd5b80359060200191846001830284011164010000000083111715610c8757600080fd5b9091929391929390803573ffffffffffffffffffffffffffffffffffffffff1690602001909291905050506136fa565b604051808215151515815260200191505060405180910390f35b600080600260008473ffffffffffffffffffffffffffffffffffffffff1673ffffffffffffffffffffffffffffffffffffffff16815260200190815260200160002080546001816001161561010002031660029004905014159050919050565b600084600073ffffffffffffffffffffffffffffffffffffffff166001600083815260200190815260200160002060000160009054906101000a900473ffffffffffffffffffffffffffffffffffffffff1673ffffffffffffffffffffffffffffffffffffffff161415610e0d576040517f08c379a000000000000000000000000000000000000000000000000000000000815260040180806020018281038252601a8152602001807f4572726f723a204f6e6c79207768656e20656e7472792072617700000000000081525060200191505060405180910390fd5b853373ffffffffffffffffffffffffffffffffffffffff166001600083815260200190815260200160002060000160009054906101000a900473ffffffffffffffffffffffffffffffffffffffff1673ffffffffffffffffffffffffffffffffffffffff1614610ee5576040517f08c379a00000000000000000000000000000000000000000000000000000000081526004018080602001828103825260148152602001807f4572726f723a204f6e6c79206f776e6572206f6600000000000000000000000081525060200191505060405180910390fd5b83600160008981526020019081526020016000206002018787604051808383808284378083019250505092505050908152602001604051809103902081905550867fb829c3e412537bbe794c048ccb9e4605bb4aaaa8e4d4c15c1a6e0c2adc1716ea878789896040518080602001806020018381038352878782818152602001925080828437600081840152601f19601f8201169050808301925050508381038252858582818152602001925080828437600081840152601f19601f820116905080830192505050965050505050505060405180910390a2600192505050949350505050565b60016020528060005260406000206000915090508060000160009054906101000a900473ffffffffffffffffffffffffffffffffffffffff16908060010160009054906101000a900473ffffffffffffffffffffffffffffffffffffffff16905082565b600082828080601f016020809104026020016040519081016040528093929190818152602001838380828437600081840152601f19601f82011690508083019250505050505050600073ffffffffffffffffffffffffffffffffffffffff16600160008380519060200120815260200190815260200160002060000160009054906101000a900473ffffffffffffffffffffffffffffffffffffffff1673ffffffffffffffffffffffffffffffffffffffff161415611156576040517f08c379a00000000000000000000000000000000000000000000000000000000081526004018080602001828103825260168152602001807f4572726f723a204f6e6c79207768656e20656e7472790000000000000000000081525060200191505060405180910390fd5b83838080601f016020809104026020016040519081016040528093929190818152602001838380828437600081840152601f19601f820116905080830192505050505050503373ffffffffffffffffffffffffffffffffffffffff16600160008380519060200120815260200190815260200160002060010160009054906101000a900473ffffffffffffffffffffffffffffffffffffffff1673ffffffffffffffffffffffffffffffffffffffff1614611279576040517f08c379a00000000000000000000000000000000000000000000000000000000081526004018080602001828103825260198152602001807f4572726f723a204f6e6c79207768656e2070726f706f7365640000000000000081525060200191505060405180910390fd5b8484600260003373ffffffffffffffffffffffffffffffffffffffff1673ffffffffffffffffffffffffffffffffffffffff16815260200190815260200160002091906112c7929190613b0e565b503373ffffffffffffffffffffffffffffffffffffffff167f098ae8581bb8bd9af1beaf7f2e9f51f31a8e5a8bfada4e303a645d71d9c91920868660405180806020018281038252848482818152602001925080828437600081840152601f19601f820116905080830192505050935050505060405180910390a260019250505092915050565b600081600073ffffffffffffffffffffffffffffffffffffffff166001600083815260200190815260200160002060000160009054906101000a900473ffffffffffffffffffffffffffffffffffffffff1673ffffffffffffffffffffffffffffffffffffffff1614611429576040517f08c379a000000000000000000000000000000000000000000000000000000000815260040180806020018281038252601b8152602001807f4572726f723a204f6e6c79207768656e20756e7265736572766564000000000081525060200191505060405180910390fd5b611431611f81565b6114a3576040517f08c379a00000000000000000000000000000000000000000000000000000000081526004018080602001828103825260138152602001807f53656e646572206973206e6f74206f776e65720000000000000000000000000081525060200191505060405180910390fd5b336001600085815260200190815260200160002060000160006101000a81548173ffffffffffffffffffffffffffffffffffffffff021916908373ffffffffffffffffffffffffffffffffffffffff1602179055503373ffffffffffffffffffffffffffffffffffffffff16837f4963513eca575aba66fdcd25f267aae85958fe6fb97e75fa25d783f1a091a22160405160405180910390a36001915050919050565b600081600073ffffffffffffffffffffffffffffffffffffffff166001600083815260200190815260200160002060000160009054906101000a900473ffffffffffffffffffffffffffffffffffffffff1673ffffffffffffffffffffffffffffffffffffffff161415611622576040517f08c379a000000000000000000000000000000000000000000000000000000000815260040180806020018281038252601a8152602001807f4572726f723a204f6e6c79207768656e20656e7472792072617700000000000081525060200191505060405180910390fd5b823373ffffffffffffffffffffffffffffffffffffffff166001600083815260200190815260200160002060000160009054906101000a900473ffffffffffffffffffffffffffffffffffffffff1673ffffffffffffffffffffffffffffffffffffffff16146116fa576040517f08c379a00000000000000000000000000000000000000000000000000000000081526004018080602001828103825260148152602001807f4572726f723a204f6e6c79206f776e6572206f6600000000000000000000000081525060200191505060405180910390fd5b83600260006001600088815260200190815260200160002060010160009054906101000a900473ffffffffffffffffffffffffffffffffffffffff1673ffffffffffffffffffffffffffffffffffffffff1673ffffffffffffffffffffffffffffffffffffffff16815260200190815260200160002060405180828054600181600116156101000203166002900480156117cb5780601f106117a95761010080835404028352918201916117cb565b820191906000526020600020905b8154815290600101906020018083116117b7575b5050915050604051809103902014156119da576001600085815260200190815260200160002060010160009054906101000a900473ffffffffffffffffffffffffffffffffffffffff1673ffffffffffffffffffffffffffffffffffffffff167f12491ad95fd945e444d88a894ffad3c21959880a4dcd8af99d4ae4ffc71d4abd600260006001600089815260200190815260200160002060010160009054906101000a900473ffffffffffffffffffffffffffffffffffffffff1673ffffffffffffffffffffffffffffffffffffffff1673ffffffffffffffffffffffffffffffffffffffff168152602001908152602001600020604051808060200182810382528381815460018160011615610100020316600290048152602001915080546001816001161561010002031660029004801561194a5780601f1061191f5761010080835404028352916020019161194a565b820191906000526020600020905b81548152906001019060200180831161192d57829003601f168201915b50509250505060405180910390a2600260006001600087815260200190815260200160002060010160009054906101000a900473ffffffffffffffffffffffffffffffffffffffff1673ffffffffffffffffffffffffffffffffffffffff1673ffffffffffffffffffffffffffffffffffffffff16815260200190815260200160002060006119d99190613b8e565b5b60016000858152602001908152602001600020600080820160006101000a81549073ffffffffffffffffffffffffffffffffffffffff02191690556001820160006101000a81549073ffffffffffffffffffffffffffffffffffffffff021916905550503373ffffffffffffffffffffffffffffffffffffffff16847fef1961b4d2909dc23643b309bfe5c3e5646842d98c3a58517037ef3871185af360405160405180910390a3600192505050919050565b600083600073ffffffffffffffffffffffffffffffffffffffff166001600083815260200190815260200160002060000160009054906101000a900473ffffffffffffffffffffffffffffffffffffffff1673ffffffffffffffffffffffffffffffffffffffff161415611b69576040517f08c379a000000000000000000000000000000000000000000000000000000000815260040180806020018281038252601a8152602001807f4572726f723a204f6e6c79207768656e20656e7472792072617700000000000081525060200191505060405180910390fd5b60016000868152602001908152602001600020600201848460405180838380828437808301925050509250505090815260200160405180910390205460001c9150509392505050565b60026020528060005260406000206000915090508054600181600116156101000203166002900480601f016020809104026020016040519081016040528092919081815260200182805460018160011615610100020316600290048015611c5a5780601f10611c2f57610100808354040283529160200191611c5a565b820191906000526020600020905b815481529060010190602001808311611c3d57829003601f168201915b505050505081565b600082600073ffffffffffffffffffffffffffffffffffffffff166001600083815260200190815260200160002060000160009054906101000a900473ffffffffffffffffffffffffffffffffffffffff1673ffffffffffffffffffffffffffffffffffffffff161415611d3e576040517f08c379a000000000000000000000000000000000000000000000000000000000815260040180806020018281038252601a8152602001807f4572726f723a204f6e6c79207768656e20656e7472792072617700000000000081525060200191505060405180910390fd5b833373ffffffffffffffffffffffffffffffffffffffff166001600083815260200190815260200160002060000160009054906101000a900473ffffffffffffffffffffffffffffffffffffffff1673ffffffffffffffffffffffffffffffffffffffff1614611e16576040517f08c379a00000000000000000000000000000000000000000000000000000000081526004018080602001828103825260148152602001807f4572726f723a204f6e6c79206f776e6572206f6600000000000000000000000081525060200191505060405180910390fd5b600073ffffffffffffffffffffffffffffffffffffffff168473ffffffffffffffffffffffffffffffffffffffff161415611e9c576040517f08c379a0000000000000000000000000000000000000000000000000000000008152600401808060200182810382526021815260200180613bfc6021913960400191505060405180910390fd5b836001600087815260200190815260200160002060000160006101000a81548173ffffffffffffffffffffffffffffffffffffffff021916908373ffffffffffffffffffffffffffffffffffffffff1602179055508373ffffffffffffffffffffffffffffffffffffffff163373ffffffffffffffffffffffffffffffffffffffff16867f7b97c62130aa09acbbcbf7482630e756592496f1759eaf702f469cf64dfb779460405160405180910390a460019250505092915050565b60008060009054906101000a900473ffffffffffffffffffffffffffffffffffffffff16905090565b60008060009054906101000a900473ffffffffffffffffffffffffffffffffffffffff1673ffffffffffffffffffffffffffffffffffffffff163373ffffffffffffffffffffffffffffffffffffffff1614905090565b600083600073ffffffffffffffffffffffffffffffffffffffff166001600083815260200190815260200160002060000160009054906101000a900473ffffffffffffffffffffffffffffffffffffffff1673ffffffffffffffffffffffffffffffffffffffff1614156120b4576040517f08c379a000000000000000000000000000000000000000000000000000000000815260040180806020018281038252601a8152602001807f4572726f723a204f6e6c79207768656e20656e7472792072617700000000000081525060200191505060405180910390fd5b6001600086815260200190815260200160002060020184846040518083838082843780830192505050925050509081526020016040518091039020549150509392505050565b600081600073ffffffffffffffffffffffffffffffffffffffff166001600083815260200190815260200160002060000160009054906101000a900473ffffffffffffffffffffffffffffffffffffffff1673ffffffffffffffffffffffffffffffffffffffff1614156121d6576040517f08c379a000000000000000000000000000000000000000000000000000000000815260040180806020018281038252601a8152602001807f4572726f723a204f6e6c79207768656e20656e7472792072617700000000000081525060200191505060405180910390fd5b600073ffffffffffffffffffffffffffffffffffffffff166001600085815260200190815260200160002060000160009054906101000a900473ffffffffffffffffffffffffffffffffffffffff1673ffffffffffffffffffffffffffffffffffffffff161415915050919050565b600083838080601f016020809104026020016040519081016040528093929190818152602001838380828437600081840152601f19601f82011690508083019250505050505050600073ffffffffffffffffffffffffffffffffffffffff16600160008380519060200120815260200190815260200160002060000160009054906101000a900473ffffffffffffffffffffffffffffffffffffffff1673ffffffffffffffffffffffffffffffffffffffff16141561236c576040517f08c379a00000000000000000000000000000000000000000000000000000000081526004018080602001828103825260168152602001807f4572726f723a204f6e6c79207768656e20656e7472790000000000000000000081525060200191505060405180910390fd5b848460405180838380828437808301925050509250505060405180910390203373ffffffffffffffffffffffffffffffffffffffff166001600083815260200190815260200160002060000160009054906101000a900473ffffffffffffffffffffffffffffffffffffffff1673ffffffffffffffffffffffffffffffffffffffff1614612462576040517f08c379a00000000000000000000000000000000000000000000000000000000081526004018080602001828103825260148152602001807f4572726f723a204f6e6c79206f776e6572206f6600000000000000000000000081525060200191505060405180910390fd5b6000868660405180838380828437808301925050509250505060405180910390209050600073ffffffffffffffffffffffffffffffffffffffff166001600083815260200190815260200160002060010160009054906101000a900473ffffffffffffffffffffffffffffffffffffffff1673ffffffffffffffffffffffffffffffffffffffff16141580156125d3575080600260006001600085815260200190815260200160002060010160009054906101000a900473ffffffffffffffffffffffffffffffffffffffff1673ffffffffffffffffffffffffffffffffffffffff1673ffffffffffffffffffffffffffffffffffffffff16815260200190815260200160002060405180828054600181600116156101000203166002900480156125c45780601f106125a25761010080835404028352918201916125c4565b820191906000526020600020905b8154815290600101906020018083116125b0575b50509150506040518091039020145b1561270a57600260006001600084815260200190815260200160002060010160009054906101000a900473ffffffffffffffffffffffffffffffffffffffff1673ffffffffffffffffffffffffffffffffffffffff1673ffffffffffffffffffffffffffffffffffffffff16815260200190815260200160002060006126599190613b8e565b6001600082815260200190815260200160002060010160009054906101000a900473ffffffffffffffffffffffffffffffffffffffff1673ffffffffffffffffffffffffffffffffffffffff167f12491ad95fd945e444d88a894ffad3c21959880a4dcd8af99d4ae4ffc71d4abd888860405180806020018281038252848482818152602001925080828437600081840152601f19601f820116905080830192505050935050505060405180910390a25b846001600083815260200190815260200160002060010160006101000a81548173ffffffffffffffffffffffffffffffffffffffff021916908373ffffffffffffffffffffffffffffffffffffffff1602179055508473ffffffffffffffffffffffffffffffffffffffff167f728435a0031f6a04538fcdd24922a7e06bc7bc945db03e83d22122d1bc5f28df888860405180806020018281038252848482818152602001925080828437600081840152601f19601f820116905080830192505050935050505060405180910390a2600193505050509392505050565b600081600073ffffffffffffffffffffffffffffffffffffffff166001600083815260200190815260200160002060000160009054906101000a900473ffffffffffffffffffffffffffffffffffffffff1673ffffffffffffffffffffffffffffffffffffffff1614156128c3576040517f08c379a000000000000000000000000000000000000000000000000000000000815260040180806020018281038252601a8152602001807f4572726f723a204f6e6c79207768656e20656e7472792072617700000000000081525060200191505060405180910390fd5b600073ffffffffffffffffffffffffffffffffffffffff166001600085815260200190815260200160002060010160009054906101000a900473ffffffffffffffffffffffffffffffffffffffff1673ffffffffffffffffffffffffffffffffffffffff161415915050919050565b600083600073ffffffffffffffffffffffffffffffffffffffff166001600083815260200190815260200160002060000160009054906101000a900473ffffffffffffffffffffffffffffffffffffffff1673ffffffffffffffffffffffffffffffffffffffff161415612a0e576040517f08c379a000000000000000000000000000000000000000000000000000000000815260040180806020018281038252601a8152602001807f4572726f723a204f6e6c79207768656e20656e7472792072617700000000000081525060200191505060405180910390fd5b60016000868152602001908152602001600020600201848460405180838380828437808301925050509250505090815260200160405180910390205460001c9150509392505050565b600081600073ffffffffffffffffffffffffffffffffffffffff166001600083815260200190815260200160002060000160009054906101000a900473ffffffffffffffffffffffffffffffffffffffff1673ffffffffffffffffffffffffffffffffffffffff161415612b33576040517f08c379a000000000000000000000000000000000000000000000000000000000815260040180806020018281038252601a8152602001807f4572726f723a204f6e6c79207768656e20656e7472792072617700000000000081525060200191505060405180910390fd5b6001600084815260200190815260200160002060000160009054906101000a900473ffffffffffffffffffffffffffffffffffffffff16915050919050565b600081600073ffffffffffffffffffffffffffffffffffffffff166001600083815260200190815260200160002060000160009054906101000a900473ffffffffffffffffffffffffffffffffffffffff1673ffffffffffffffffffffffffffffffffffffffff161415612c4e576040517f08c379a000000000000000000000000000000000000000000000000000000000815260040180806020018281038252601a8152602001807f4572726f723a204f6e6c79207768656e20656e7472792072617700000000000081525060200191505060405180910390fd5b6001600084815260200190815260200160002060010160009054906101000a900473ffffffffffffffffffffffffffffffffffffffff16915050919050565b6060600260008373ffffffffffffffffffffffffffffffffffffffff1673ffffffffffffffffffffffffffffffffffffffff1681526020019081526020016000208054600181600116156101000203166002900480601f016020809104026020016040519081016040528092919081815260200182805460018160011615610100020316600290048015612d625780601f10612d3757610100808354040283529160200191612d62565b820191906000526020600020905b815481529060010190602001808311612d4557829003601f168201915b50505050509050919050565b600084600073ffffffffffffffffffffffffffffffffffffffff166001600083815260200190815260200160002060000160009054906101000a900473ffffffffffffffffffffffffffffffffffffffff1673ffffffffffffffffffffffffffffffffffffffff161415612e4a576040517f08c379a000000000000000000000000000000000000000000000000000000000815260040180806020018281038252601a8152602001807f4572726f723a204f6e6c79207768656e20656e7472792072617700000000000081525060200191505060405180910390fd5b853373ffffffffffffffffffffffffffffffffffffffff166001600083815260200190815260200160002060000160009054906101000a900473ffffffffffffffffffffffffffffffffffffffff1673ffffffffffffffffffffffffffffffffffffffff1614612f22576040517f08c379a00000000000000000000000000000000000000000000000000000000081526004018080602001828103825260148152602001807f4572726f723a204f6e6c79206f776e6572206f6600000000000000000000000081525060200191505060405180910390fd5b8360001b600160008981526020019081526020016000206002018787604051808383808284378083019250505092505050908152602001604051809103902081905550867fb829c3e412537bbe794c048ccb9e4605bb4aaaa8e4d4c15c1a6e0c2adc1716ea878789896040518080602001806020018381038352878782818152602001925080828437600081840152601f19601f8201169050808301925050508381038252858582818152602001925080828437600081840152601f19601f820116905080830192505050965050505050505060405180910390a2600192505050949350505050565b600083838080601f016020809104026020016040519081016040528093929190818152602001838380828437600081840152601f19601f82011690508083019250505050505050600073ffffffffffffffffffffffffffffffffffffffff16600160008380519060200120815260200190815260200160002060000160009054906101000a900473ffffffffffffffffffffffffffffffffffffffff1673ffffffffffffffffffffffffffffffffffffffff161415613132576040517f08c379a00000000000000000000000000000000000000000000000000000000081526004018080602001828103825260168152602001807f4572726f723a204f6e6c79207768656e20656e7472790000000000000000000081525060200191505060405180910390fd5b61313a611f81565b6131ac576040517f08c379a00000000000000000000000000000000000000000000000000000000081526004018080602001828103825260138152602001807f53656e646572206973206e6f74206f776e65720000000000000000000000000081525060200191505060405180910390fd5b8484600260008673ffffffffffffffffffffffffffffffffffffffff1673ffffffffffffffffffffffffffffffffffffffff16815260200190815260200160002091906131fa929190613b0e565b508273ffffffffffffffffffffffffffffffffffffffff167f098ae8581bb8bd9af1beaf7f2e9f51f31a8e5a8bfada4e303a645d71d9c91920868660405180806020018281038252848482818152602001925080828437600081840152601f19601f820116905080830192505050935050505060405180910390a260019150509392505050565b600260003373ffffffffffffffffffffffffffffffffffffffff1673ffffffffffffffffffffffffffffffffffffffff1681526020019081526020016000208054600181600116156101000203166002900480601f0160208091040260200160405190810160405280929190818152602001828054600181600116156101000203166002900480156133545780601f1061332957610100808354040283529160200191613354565b820191906000526020600020905b81548152906001019060200180831161333757829003601f168201915b5050505050600073ffffffffffffffffffffffffffffffffffffffff16600160008380519060200120815260200190815260200160002060000160009054906101000a900473ffffffffffffffffffffffffffffffffffffffff1673ffffffffffffffffffffffffffffffffffffffff161415613439576040517f08c379a00000000000000000000000000000000000000000000000000000000081526004018080602001828103825260168152602001807f4572726f723a204f6e6c79207768656e20656e7472790000000000000000000081525060200191505060405180910390fd5b3373ffffffffffffffffffffffffffffffffffffffff167f12491ad95fd945e444d88a894ffad3c21959880a4dcd8af99d4ae4ffc71d4abd600260003373ffffffffffffffffffffffffffffffffffffffff1673ffffffffffffffffffffffffffffffffffffffff16815260200190815260200160002060405180806020018281038252838181546001816001161561010002031660029004815260200191508054600181600116156101000203166002900480156135395780601f1061350e57610100808354040283529160200191613539565b820191906000526020600020905b81548152906001019060200180831161351c57829003601f168201915b50509250505060405180910390a260016000600260003373ffffffffffffffffffffffffffffffffffffffff1673ffffffffffffffffffffffffffffffffffffffff16815260200190815260200160002060405180828054600181600116156101000203166002900480156135e55780601f106135c35761010080835404028352918201916135e5565b820191906000526020600020905b8154815290600101906020018083116135d1575b50509150506040518091039020815260200190815260200160002060010160006101000a81549073ffffffffffffffffffffffffffffffffffffffff0219169055600260003373ffffffffffffffffffffffffffffffffffffffff1673ffffffffffffffffffffffffffffffffffffffff16815260200190815260200160002060006136719190613b8e565b50565b61367c611f81565b6136ee576040517f08c379a00000000000000000000000000000000000000000000000000000000081526004018080602001828103825260138152602001807f53656e646572206973206e6f74206f776e65720000000000000000000000000081525060200191505060405180910390fd5b6136f7816139ad565b50565b600084600073ffffffffffffffffffffffffffffffffffffffff166001600083815260200190815260200160002060000160009054906101000a900473ffffffffffffffffffffffffffffffffffffffff1673ffffffffffffffffffffffffffffffffffffffff1614156137d6576040517f08c379a000000000000000000000000000000000000000000000000000000000815260040180806020018281038252601a8152602001807f4572726f723a204f6e6c79207768656e20656e7472792072617700000000000081525060200191505060405180910390fd5b853373ffffffffffffffffffffffffffffffffffffffff166001600083815260200190815260200160002060000160009054906101000a900473ffffffffffffffffffffffffffffffffffffffff1673ffffffffffffffffffffffffffffffffffffffff16146138ae576040517f08c379a00000000000000000000000000000000000000000000000000000000081526004018080602001828103825260148152602001807f4572726f723a204f6e6c79206f776e6572206f6600000000000000000000000081525060200191505060405180910390fd5b8373ffffffffffffffffffffffffffffffffffffffff1660001b600160008981526020019081526020016000206002018787604051808383808284378083019250505092505050908152602001604051809103902081905550867fb829c3e412537bbe794c048ccb9e4605bb4aaaa8e4d4c15c1a6e0c2adc1716ea878789896040518080602001806020018381038352878782818152602001925080828437600081840152601f19601f8201169050808301925050508381038252858582818152602001925080828437600081840152601f19601f820116905080830192505050965050505050505060405180910390a2600192505050949350505050565b600073ffffffffffffffffffffffffffffffffffffffff168173ffffffffffffffffffffffffffffffffffffffff161415613a50576040517f08c379a000000000000000000000000000000000000000000000000000000000815260040180806020018281038252601f8152602001807f4e6577206f776e657220616464726573732063616e6e6f74206265203078300081525060200191505060405180910390fd5b8073ffffffffffffffffffffffffffffffffffffffff166000809054906101000a900473ffffffffffffffffffffffffffffffffffffffff1673ffffffffffffffffffffffffffffffffffffffff167f8be0079c531659141344cd1fd0a4f28419497f9722a3daafe3b4186f6b6457e060405160405180910390a3806000806101000a81548173ffffffffffffffffffffffffffffffffffffffff021916908373ffffffffffffffffffffffffffffffffffffffff16021790555050565b828054600181600116156101000203166002900490600052602060002090601f016020900481019282601f10613b4f57803560ff1916838001178555613b7d565b82800160010185558215613b7d579182015b82811115613b7c578235825591602001919060010190613b61565b5b509050613b8a9190613bd6565b5090565b50805460018160011615610100020316600290046000825580601f10613bb45750613bd3565b601f016020900490600052602060002090810190613bd29190613bd6565b5b50565b613bf891905b80821115613bf4576000816000905550600101613bdc565b5090565b9056fe4572726f723a206e6f207472616e7366657220746f206164647265737320307830a165627a7a72305820767985e2c0a649dc414fe2d07433d882b5b0c51a8b1eb1216ad7ffb6c667a4a00029",
  "source": "//! Copyright (C) 2019 Energy Web Foundation\n//!\n//! Licensed under GPL3.\n//! You should have received a copy of the GNU General Public License v 3.0\n//! along with this file. If not, see \n//!\n//!     https://www.gnu.org/licenses/gpl-3.0.en.html.\n//!\n//! This file has been modified by Energy Web Foundation:\n//! 1. Contract is made Ownable.\n//! 2. \"only-owner\" restrictions are added to reserve-, confirmReverseAs-, setFee- and drain functions.\n//! 3. A security vulnerability is fixed where it is possible for a malicious entity to delete\n//!    somebody's reverse entry.\n//! 4. It is possible te re-reserve an entry.\n//! 5. It is impossible to transfer an entry to address 0x0.\n//! 6. No need to pay a fee.\n//!\n//! This file incorporates work covered by the following copyright and  \n//! permission notice:\n//!\n//!     The simple registry contract.\n//!\n//!     Copyright 2016 Gavin Wood, Parity Technologies Ltd.\n//!\n//!     Licensed under the Apache License, Version 2.0 (the \"License\");\n//!     you may not use this file except in compliance with the License.\n//!     You may obtain a copy of the License at\n//!\n//!         http://www.apache.org/licenses/LICENSE-2.0\n//!\n//!     Unless required by applicable law or agreed to in writing, software\n//!     distributed under the License is distributed on an \"AS IS\" BASIS,\n//!     WITHOUT WARRANTIES OR CONDITIONS OF ANY KIND, either express or implied.\n//!     See the License for the specific language governing permissions and\n//!     limitations under the License.\n\npragma solidity 0.5.8;\n\nimport \"../misc/Ownable.sol\";\nimport \"./Registry.sol\";\n\n\ncontract SimpleRegistry is Ownable, MetadataRegistry, OwnerRegistry, ReverseRegistry {\n\n    struct Entry {\n        address owner;\n        address reverse;\n        mapping (string => bytes32) data;\n    }\n\n    event Drained(uint amount);\n    event FeeChanged(uint amount);\n    event ReverseProposed(string name, address indexed reverse);\n\n    mapping (bytes32 => Entry) public entries;\n    mapping (address => string) public reverses;\n\n    modifier whenUnreserved(bytes32 _name) {\n        require(\n            entries[_name].owner == address(0),\n            \"Error: Only when unreserved\");\n        _;\n    }\n\n    modifier onlyOwnerOf(bytes32 _name) {\n        require(entries[_name].owner == msg.sender, \"Error: Only owner of\");\n        _;\n    }\n\n    modifier whenProposed(string memory _name) {\n        require(entries[keccak256(bytes(_name))].reverse == msg.sender, \"Error: Only when proposed\");\n        _;\n    }\n\n    modifier whenEntry(string memory _name) {\n        require(\n            entries[keccak256(bytes(_name))].owner != address(0),\n            \"Error: Only when entry\");\n        _;\n    }\n\n    modifier whenEntryRaw(bytes32 _name) {\n        require(\n            entries[_name].owner != address(0),\n            \"Error: Only when entry raw\"\n        );\n        _;\n    }\n\n    constructor(address _owner) public {\n        _transferOwnership(_owner);\n    }\n\n    // Reservation functions\n    function reserve(bytes32 _name)\n        external\n        whenUnreserved(_name)\n        onlyOwner\n        returns (bool success)\n    {\n        entries[_name].owner = msg.sender;\n        emit Reserved(_name, msg.sender);\n        return true;\n    }\n\n    function transfer(bytes32 _name, address _to)\n        external\n        whenEntryRaw(_name)\n        onlyOwnerOf(_name)\n        returns (bool success)\n    {\n        require(_to != address(0), \"Error: no transfer to address 0x0\");\n        entries[_name].owner = _to;\n        emit Transferred(_name, msg.sender, _to);\n        return true;\n    }\n\n    function drop(bytes32 _name)\n        external\n        whenEntryRaw(_name)\n        onlyOwnerOf(_name)\n        returns (bool success)\n    {\n        if (keccak256(bytes(reverses[entries[_name].reverse])) == _name) {\n            emit ReverseRemoved(reverses[entries[_name].reverse], entries[_name].reverse);\n            delete reverses[entries[_name].reverse];\n        }\n        delete entries[_name];\n        emit Dropped(_name, msg.sender);\n        return true;\n    }\n\n    // Data admin functions\n    function setData(bytes32 _name, string calldata _key, bytes32 _value)\n        external\n        whenEntryRaw(_name)\n        onlyOwnerOf(_name)\n        returns (bool success)\n    {\n        entries[_name].data[_key] = _value;\n        emit DataChanged(_name, _key, _key);\n        return true;\n    }\n\n    function setAddress(bytes32 _name, string calldata _key, address _value)\n        external\n        whenEntryRaw(_name)\n        onlyOwnerOf(_name)\n        returns (bool success)\n    {\n        entries[_name].data[_key] = bytes32(uint256(_value));\n        emit DataChanged(_name, _key, _key);\n        return true;\n    }\n\n    function setUint(bytes32 _name, string calldata _key, uint _value)\n        external\n        whenEntryRaw(_name)\n        onlyOwnerOf(_name)\n        returns (bool success)\n    {\n        entries[_name].data[_key] = bytes32(_value);\n        emit DataChanged(_name, _key, _key);\n        return true;\n    }\n\n    // Reverse registration functions\n    function proposeReverse(string calldata _name, address _who)\n        external\n        whenEntry(_name)\n        onlyOwnerOf(keccak256(bytes(_name)))\n        returns (bool success)\n    {\n        bytes32 sha3Name = keccak256(bytes(_name));\n        if (entries[sha3Name].reverse != address(0) && keccak256(bytes(reverses[entries[sha3Name].reverse])) == \n        sha3Name) {\n            delete reverses[entries[sha3Name].reverse];\n            emit ReverseRemoved(_name, entries[sha3Name].reverse);\n        }\n        entries[sha3Name].reverse = _who;\n        emit ReverseProposed(_name, _who);\n        return true;\n    }\n\n    function confirmReverse(string calldata _name)\n        external\n        whenEntry(_name)\n        whenProposed(_name)\n        returns (bool success)\n    {\n        reverses[msg.sender] = _name;\n        emit ReverseConfirmed(_name, msg.sender);\n        return true;\n    }\n\n    function confirmReverseAs(string calldata _name, address _who)\n        external\n        whenEntry(_name)\n        onlyOwner\n        returns (bool success)\n    {\n        reverses[_who] = _name;\n        emit ReverseConfirmed(_name, _who);\n        return true;\n    }\n\n    function removeReverse()\n        external\n        whenEntry(reverses[msg.sender])\n    {\n        emit ReverseRemoved(reverses[msg.sender], msg.sender);\n        delete entries[keccak256(bytes(reverses[msg.sender]))].reverse;\n        delete reverses[msg.sender];\n    }\n\n    // MetadataRegistry views\n    function getData(bytes32 _name, string calldata _key)\n        external\n        view\n        whenEntryRaw(_name)\n        returns (bytes32)\n    {\n        return entries[_name].data[_key];\n    }\n\n    function getAddress(bytes32 _name, string calldata _key)\n        external\n        view\n        whenEntryRaw(_name)\n        returns (address)\n    {\n        return address(uint256(entries[_name].data[_key]));\n    }\n\n    function getUint(bytes32 _name, string calldata _key)\n        external\n        view\n        whenEntryRaw(_name)\n        returns (uint)\n    {\n        return uint(entries[_name].data[_key]);\n    }\n\n    // OwnerRegistry views\n    function getOwner(bytes32 _name)\n        external\n        view\n        whenEntryRaw(_name)\n        returns (address)\n    {\n        return entries[_name].owner;\n    }\n\n    // ReversibleRegistry views\n    function hasReverse(bytes32 _name)\n        external\n        view\n        whenEntryRaw(_name)\n        returns (bool)\n    {\n        return entries[_name].reverse != address(0);\n    }\n\n    function getReverse(bytes32 _name)\n        external\n        view\n        whenEntryRaw(_name)\n        returns (address)\n    {\n        return entries[_name].reverse;\n    }\n\n    function canReverse(address _data)\n        external\n        view\n        returns (bool)\n    {\n        return bytes(reverses[_data]).length != 0;\n    }\n\n    function reverse(address _data)\n        external\n        view\n        returns (string memory)\n    {\n        return reverses[_data];\n    }\n\n    function reserved(bytes32 _name)\n        external\n        view\n        whenEntryRaw(_name)\n        returns (bool)\n    {\n        return entries[_name].owner != address(0);\n    }\n}\n",
  "sourcePath": "/Users/mikovainio/WebstormProjects/smarthub-system-contracts/contracts/registry/SimpleRegistry.sol",
  "compiler": {
    "name": "solc",
    "version": "0.5.8+commit.23d335f2.Emscripten.clang"
  },
  "schemaVersion": "3.0.10",
  "updatedAt": "2020-03-04T11:19:07.956Z",
  "devdoc": {
    "methods": {
      "isOwner()": {
        "return": "true if `msg.sender` is the owner of the contract."
      },
      "owner()": {
        "return": "the address of the owner."
      },
      "transferOwnership(address)": {
        "details": "Allows the current owner to transfer control of the contract to a newOwner.",
        "params": {
          "newOwner": "The address to transfer ownership to."
        }
      }
    }
  },
  "userdoc": {
    "methods": {}
  }
}