{
  "contractName": "ValidatorSetRelayed",
  "abi": [
    {
      "constant": true,
      "inputs": [
        {
          "name": "",
          "type": "address"
        }
      ],
      "name": "addressStatus",
      "outputs": [
        {
          "name": "state",
          "type": "uint8"
        },
        {
          "name": "index",
          "type": "uint256"
        }
      ],
      "payable": false,
      "stateMutability": "view",
      "type": "function"
    },
    {
      "constant": true,
      "inputs": [],
      "name": "owner",
      "outputs": [
        {
          "name": "",
          "type": "address"
        }
      ],
      "payable": false,
      "stateMutability": "view",
      "type": "function"
    },
    {
      "constant": true,
      "inputs": [],
      "name": "isOwner",
      "outputs": [
        {
          "name": "",
          "type": "bool"
        }
      ],
      "payable": false,
      "stateMutability": "view",
      "type": "function"
    },
    {
      "constant": true,
      "inputs": [],
      "name": "relaySet",
      "outputs": [
        {
          "name": "",
          "type": "address"
        }
      ],
      "payable": false,
      "stateMutability": "view",
      "type": "function"
    },
    {
      "constant": true,
      "inputs": [],
      "name": "finalized",
      "outputs": [
        {
          "name": "",
          "type": "bool"
        }
      ],
      "payable": false,
      "stateMutability": "view",
      "type": "function"
    },
    {
      "constant": false,
      "inputs": [
        {
          "name": "newOwner",
          "type": "address"
        }
      ],
      "name": "transferOwnership",
      "outputs": [],
      "payable": false,
      "stateMutability": "nonpayable",
      "type": "function"
    },
    {
      "inputs": [
        {
          "name": "_owner",
          "type": "address"
        },
        {
          "name": "_relaySet",
          "type": "address"
        },
        {
          "name": "_initial",
          "type": "address[]"
        }
      ],
      "payable": false,
      "stateMutability": "nonpayable",
      "type": "constructor"
    },
    {
      "anonymous": false,
      "inputs": [
        {
          "indexed": true,
          "name": "relay",
          "type": "address"
        }
      ],
      "name": "NewRelay",
      "type": "event"
    },
    {
      "anonymous": false,
      "inputs": [
        {
          "indexed": false,
          "name": "validatorSet",
          "type": "address[]"
        }
      ],
      "name": "ChangeFinalized",
      "type": "event"
    },
    {
      "anonymous": false,
      "inputs": [
        {
          "indexed": true,
          "name": "reporter",
          "type": "address"
        },
        {
          "indexed": true,
          "name": "reported",
          "type": "address"
        },
        {
          "indexed": true,
          "name": "blocknum",
          "type": "uint256"
        }
      ],
      "name": "ReportedMalicious",
      "type": "event"
    },
    {
      "anonymous": false,
      "inputs": [
        {
          "indexed": true,
          "name": "reporter",
          "type": "address"
        },
        {
          "indexed": true,
          "name": "reported",
          "type": "address"
        },
        {
          "indexed": true,
          "name": "blocknum",
          "type": "uint256"
        }
      ],
      "name": "ReportedBenign",
      "type": "event"
    },
    {
      "anonymous": false,
      "inputs": [
        {
          "indexed": true,
          "name": "previousOwner",
          "type": "address"
        },
        {
          "indexed": true,
          "name": "newOwner",
          "type": "address"
        }
      ],
      "name": "OwnershipTransferred",
      "type": "event"
    },
    {
      "constant": false,
      "inputs": [
        {
          "name": "_reporter",
          "type": "address"
        },
        {
          "name": "_reported",
          "type": "address"
        },
        {
          "name": "_blockNumber",
          "type": "uint256"
        }
      ],
      "name": "reportBenign",
      "outputs": [],
      "payable": false,
      "stateMutability": "nonpayable",
      "type": "function"
    },
    {
      "constant": false,
      "inputs": [
        {
          "name": "_reporter",
          "type": "address"
        },
        {
          "name": "_reported",
          "type": "address"
        },
        {
          "name": "_blockNumber",
          "type": "uint256"
        },
        {
          "name": "_proof",
          "type": "bytes"
        }
      ],
      "name": "reportMalicious",
      "outputs": [],
      "payable": false,
      "stateMutability": "nonpayable",
      "type": "function"
    },
    {
      "constant": false,
      "inputs": [
        {
          "name": "_relaySet",
          "type": "address"
        }
      ],
      "name": "setRelay",
      "outputs": [],
      "payable": false,
      "stateMutability": "nonpayable",
      "type": "function"
    },
    {
      "constant": false,
      "inputs": [],
      "name": "finalizeChange",
      "outputs": [],
      "payable": false,
      "stateMutability": "nonpayable",
      "type": "function"
    },
    {
      "constant": false,
      "inputs": [
        {
          "name": "_validator",
          "type": "address"
        }
      ],
      "name": "addValidator",
      "outputs": [],
      "payable": false,
      "stateMutability": "nonpayable",
      "type": "function"
    },
    {
      "constant": false,
      "inputs": [
        {
          "name": "_validator",
          "type": "address"
        }
      ],
      "name": "removeValidator",
      "outputs": [],
      "payable": false,
      "stateMutability": "nonpayable",
      "type": "function"
    },
    {
      "constant": true,
      "inputs": [],
      "name": "getValidators",
      "outputs": [
        {
          "name": "",
          "type": "address[]"
        }
      ],
      "payable": false,
      "stateMutability": "view",
      "type": "function"
    },
    {
      "constant": true,
      "inputs": [],
      "name": "getMigrationValidators",
      "outputs": [
        {
          "name": "",
          "type": "address[]"
        }
      ],
      "payable": false,
      "stateMutability": "view",
      "type": "function"
    },
    {
      "constant": true,
      "inputs": [],
      "name": "getUnion",
      "outputs": [
        {
          "name": "",
          "type": "address[]"
        }
      ],
      "payable": false,
      "stateMutability": "view",
      "type": "function"
    },
    {
      "constant": true,
      "inputs": [],
      "name": "getValidatorsNum",
      "outputs": [
        {
          "name": "",
          "type": "uint256"
        }
      ],
      "payable": false,
      "stateMutability": "view",
      "type": "function"
    },
    {
      "constant": true,
      "inputs": [
        {
          "name": "_somebody",
          "type": "address"
        }
      ],
      "name": "isPendingToBeAdded",
      "outputs": [
        {
          "name": "",
          "type": "bool"
        }
      ],
      "payable": false,
      "stateMutability": "view",
      "type": "function"
    },
    {
      "constant": true,
      "inputs": [
        {
          "name": "_somebody",
          "type": "address"
        }
      ],
      "name": "isPendingToBeRemoved",
      "outputs": [
        {
          "name": "",
          "type": "bool"
        }
      ],
      "payable": false,
      "stateMutability": "view",
      "type": "function"
    },
    {
      "constant": true,
      "inputs": [
        {
          "name": "_somebody",
          "type": "address"
        }
      ],
      "name": "isPending",
      "outputs": [
        {
          "name": "",
          "type": "bool"
        }
      ],
      "payable": false,
      "stateMutability": "view",
      "type": "function"
    },
    {
      "constant": true,
      "inputs": [
        {
          "name": "_somebody",
          "type": "address"
        }
      ],
      "name": "isActiveValidator",
      "outputs": [
        {
          "name": "",
          "type": "bool"
        }
      ],
      "payable": false,
      "stateMutability": "view",
      "type": "function"
    },
    {
      "constant": true,
      "inputs": [
        {
          "name": "_somebody",
          "type": "address"
        }
      ],
      "name": "isFinalizedValidator",
      "outputs": [
        {
          "name": "",
          "type": "bool"
        }
      ],
      "payable": false,
      "stateMutability": "view",
      "type": "function"
    }
  ],
  "bytecode": "0x60806040523480156200001157600080fd5b5060405162002d7138038062002d71833981018060405260608110156200003757600080fd5b81019080805190602001909291908051906020019092919080516401000000008111156200006457600080fd5b828101905060208101848111156200007b57600080fd5b81518560208202830111640100000000821117156200009957600080fd5b5050929190505050336000806101000a81548173ffffffffffffffffffffffffffffffffffffffff021916908373ffffffffffffffffffffffffffffffffffffffff1602179055506000809054906101000a900473ffffffffffffffffffffffffffffffffffffffff1673ffffffffffffffffffffffffffffffffffffffff16600073ffffffffffffffffffffffffffffffffffffffff167f8be0079c531659141344cd1fd0a4f28419497f9722a3daafe3b4186f6b6457e060405160405180910390a3600073ffffffffffffffffffffffffffffffffffffffff168273ffffffffffffffffffffffffffffffffffffffff161415620001e5576040517f08c379a000000000000000000000000000000000000000000000000000000000815260040180806020018281038252602481526020018062002d216024913960400191505060405180910390fd5b60018151101562000242576040517f08c379a000000000000000000000000000000000000000000000000000000000815260040180806020018281038252602c81526020018062002d45602c913960400191505060405180910390fd5b62000253836200046160201b60201c565b6200026482620005c360201b60201c565b60008090505b81518110156200040e57600073ffffffffffffffffffffffffffffffffffffffff168282815181106200029957fe5b602002602001015173ffffffffffffffffffffffffffffffffffffffff1614156200032c576040517f08c379a000000000000000000000000000000000000000000000000000000000815260040180806020018281038252601f8152602001807f56616c696461746f7220616464726573732063616e6e6f74206265203078300081525060200191505060405180910390fd5b6001600360008484815181106200033f57fe5b602002602001015173ffffffffffffffffffffffffffffffffffffffff1673ffffffffffffffffffffffffffffffffffffffff16815260200190815260200160002060000160006101000a81548160ff02191690836003811115620003a057fe5b02179055508060036000848481518110620003b757fe5b602002602001015173ffffffffffffffffffffffffffffffffffffffff1673ffffffffffffffffffffffffffffffffffffffff1681526020019081526020016000206001018190555080806001019150506200026a565b508060029080519060200190620004279291906200064a565b50600260019080546200043c929190620006d9565b506001600060146101000a81548160ff02191690831515021790555050505062000776565b600073ffffffffffffffffffffffffffffffffffffffff168173ffffffffffffffffffffffffffffffffffffffff16141562000505576040517f08c379a000000000000000000000000000000000000000000000000000000000815260040180806020018281038252601f8152602001807f4e6577206f776e657220616464726573732063616e6e6f74206265203078300081525060200191505060405180910390fd5b8073ffffffffffffffffffffffffffffffffffffffff166000809054906101000a900473ffffffffffffffffffffffffffffffffffffffff1673ffffffffffffffffffffffffffffffffffffffff167f8be0079c531659141344cd1fd0a4f28419497f9722a3daafe3b4186f6b6457e060405160405180910390a3806000806101000a81548173ffffffffffffffffffffffffffffffffffffffff021916908373ffffffffffffffffffffffffffffffffffffffff16021790555050565b80600560006101000a81548173ffffffffffffffffffffffffffffffffffffffff021916908373ffffffffffffffffffffffffffffffffffffffff1602179055508073ffffffffffffffffffffffffffffffffffffffff167fe8ec518081a7aa1fc5d586a5443a858ab130be8b8e39b545172c879a7e242c6b60405160405180910390a250565b828054828255906000526020600020908101928215620006c6579160200282015b82811115620006c55782518260006101000a81548173ffffffffffffffffffffffffffffffffffffffff021916908373ffffffffffffffffffffffffffffffffffffffff160217905550916020019190600101906200066b565b5b509050620006d5919062000730565b5090565b8280548282559060005260206000209081019282156200071d5760005260206000209182015b828111156200071c578254825591600101919060010190620006ff565b5b5090506200072c919062000730565b5090565b6200077391905b808211156200076f57600081816101000a81549073ffffffffffffffffffffffffffffffffffffffff02191690555060010162000737565b5090565b90565b61259b80620007866000396000f3fe608060405234801561001057600080fd5b50600436106101375760003560e01c80639f723637116100b8578063b98049091161007c578063b980490914610562578063bd21442a146105be578063c805f68b14610681578063d826b7f1146106c5578063f2fde38b14610733578063f3aeac021461077757610137565b80639f723637146103dc578063a00745b61461043b578063a6940b0714610497578063b3f05b97146104e1578063b7ab4db51461050357610137565b8063455701d6116100ff578063455701d6146102c35780634d238c8e1461032257806375286211146103665780638da5cb5b146103705780638f32d59b146103ba57610137565b8063267fa41d1461013c57806334ba3c1b1461019857806340550a1c146101b657806340a141ff146102125780634183495514610256575b600080fd5b61017e6004803603602081101561015257600080fd5b81019080803573ffffffffffffffffffffffffffffffffffffffff1690602001909291905050506107d3565b604051808215151515815260200191505060405180910390f35b6101a0610845565b6040518082815260200191505060405180910390f35b6101f8600480360360208110156101cc57600080fd5b81019080803573ffffffffffffffffffffffffffffffffffffffff169060200190929190505050610852565b604051808215151515815260200191505060405180910390f35b6102546004803603602081101561022857600080fd5b81019080803573ffffffffffffffffffffffffffffffffffffffff169060200190929190505050610933565b005b6102986004803603602081101561026c57600080fd5b81019080803573ffffffffffffffffffffffffffffffffffffffff169060200190929190505050610a7e565b604051808360038111156102a857fe5b60ff1681526020018281526020019250505060405180910390f35b6102cb610aaf565b6040518080602001828103825283818151815260200191508051906020019060200280838360005b8381101561030e5780820151818401526020810190506102f3565b505050509050019250505060405180910390f35b6103646004803603602081101561033857600080fd5b81019080803573ffffffffffffffffffffffffffffffffffffffff169060200190929190505050610b3d565b005b61036e610d47565b005b6103786111b2565b604051808273ffffffffffffffffffffffffffffffffffffffff1673ffffffffffffffffffffffffffffffffffffffff16815260200191505060405180910390f35b6103c26111db565b604051808215151515815260200191505060405180910390f35b6103e4611232565b6040518080602001828103825283818151815260200191508051906020019060200280838360005b8381101561042757808201518184015260208101905061040c565b505050509050019250505060405180910390f35b61047d6004803603602081101561045157600080fd5b81019080803573ffffffffffffffffffffffffffffffffffffffff169060200190929190505050611361565b604051808215151515815260200191505060405180910390f35b61049f611442565b604051808273ffffffffffffffffffffffffffffffffffffffff1673ffffffffffffffffffffffffffffffffffffffff16815260200191505060405180910390f35b6104e9611468565b604051808215151515815260200191505060405180910390f35b61050b61147b565b6040518080602001828103825283818151815260200191508051906020019060200280838360005b8381101561054e578082015181840152602081019050610533565b505050509050019250505060405180910390f35b6105a46004803603602081101561057857600080fd5b81019080803573ffffffffffffffffffffffffffffffffffffffff169060200190929190505050611509565b604051808215151515815260200191505060405180910390f35b61067f600480360360808110156105d457600080fd5b81019080803573ffffffffffffffffffffffffffffffffffffffff169060200190929190803573ffffffffffffffffffffffffffffffffffffffff169060200190929190803590602001909291908035906020019064010000000081111561063b57600080fd5b82018360208201111561064d57600080fd5b8035906020019184600183028401116401000000008311171561066f57600080fd5b909192939192939050505061157a565b005b6106c36004803603602081101561069757600080fd5b81019080803573ffffffffffffffffffffffffffffffffffffffff1690602001909291905050506117d6565b005b610731600480360360608110156106db57600080fd5b81019080803573ffffffffffffffffffffffffffffffffffffffff169060200190929190803573ffffffffffffffffffffffffffffffffffffffff16906020019092919080359060200190929190505050611989565b005b6107756004803603602081101561074957600080fd5b81019080803573ffffffffffffffffffffffffffffffffffffffff169060200190929190505050611be3565b005b6107b96004803603602081101561078d57600080fd5b81019080803573ffffffffffffffffffffffffffffffffffffffff169060200190929190505050611c69565b604051808215151515815260200191505060405180910390f35b6000600160038111156107e257fe5b600360008473ffffffffffffffffffffffffffffffffffffffff1673ffffffffffffffffffffffffffffffffffffffff16815260200190815260200160002060000160009054906101000a900460ff16600381111561083d57fe5b149050919050565b6000600180549050905090565b60006001600381111561086157fe5b600360008473ffffffffffffffffffffffffffffffffffffffff1673ffffffffffffffffffffffffffffffffffffffff16815260200190815260200160002060000160009054906101000a900460ff1660038111156108bc57fe5b148061092c57506003808111156108cf57fe5b600360008473ffffffffffffffffffffffffffffffffffffffff1673ffffffffffffffffffffffffffffffffffffffff16815260200190815260200160002060000160009054906101000a900460ff16600381111561092a57fe5b145b9050919050565b61093b6111db565b6109ad576040517f08c379a00000000000000000000000000000000000000000000000000000000081526004018080602001828103825260138152602001807f53656e646572206973206e6f74206f776e65720000000000000000000000000081525060200191505060405180910390fd5b600060149054906101000a900460ff16610a12576040517f08c379a00000000000000000000000000000000000000000000000000000000081526004018080602001828103825260228152602001806124e16022913960400191505060405180910390fd5b80610a1c81610852565b610a71576040517f08c379a00000000000000000000000000000000000000000000000000000000081526004018080602001828103825260228152602001806124bf6022913960400191505060405180910390fd5b610a7a82611cdb565b5050565b60036020528060005260406000206000915090508060000160009054906101000a900460ff16908060010154905082565b60606002805480602002602001604051908101604052809291908181526020018280548015610b3357602002820191906000526020600020905b8160009054906101000a900473ffffffffffffffffffffffffffffffffffffffff1673ffffffffffffffffffffffffffffffffffffffff1681526020019060010190808311610ae9575b5050505050905090565b610b456111db565b610bb7576040517f08c379a00000000000000000000000000000000000000000000000000000000081526004018080602001828103825260138152602001807f53656e646572206973206e6f74206f776e65720000000000000000000000000081525060200191505060405180910390fd5b600060149054906101000a900460ff16610c1c576040517f08c379a00000000000000000000000000000000000000000000000000000000081526004018080602001828103825260228152602001806124e16022913960400191505060405180910390fd5b600073ffffffffffffffffffffffffffffffffffffffff168173ffffffffffffffffffffffffffffffffffffffff161415610cbf576040517f08c379a000000000000000000000000000000000000000000000000000000000815260040180806020018281038252601f8152602001807f56616c696461746f7220616464726573732063616e6e6f74206265203078300081525060200191505060405180910390fd5b610cc881610852565b15610d3b576040517f08c379a00000000000000000000000000000000000000000000000000000000081526004018080602001828103825260208152602001807f546869732076616c696461746f7220697320616c72656164792061637469766581525060200191505060405180910390fd5b610d4481611f2e565b50565b600060149054906101000a900460ff1615610dca576040517f08c379a000000000000000000000000000000000000000000000000000000000815260040180806020018281038252601a8152602001807f56616c696461746f72207365742069732066696e616c697a656400000000000081525060200191505060405180910390fd5b600560009054906101000a900473ffffffffffffffffffffffffffffffffffffffff1673ffffffffffffffffffffffffffffffffffffffff163373ffffffffffffffffffffffffffffffffffffffff1614610e8d576040517f08c379a00000000000000000000000000000000000000000000000000000000081526004018080602001828103825260208152602001807f43616c6c6572206973206e6f74207468652052656c617920636f6e747261637481525060200191505060405180910390fd5b6001600060146101000a81548160ff021916908315150217905550600073ffffffffffffffffffffffffffffffffffffffff16600460009054906101000a900473ffffffffffffffffffffffffffffffffffffffff1673ffffffffffffffffffffffffffffffffffffffff161415610fbe57600060036000600260016002805490500381548110610f1a57fe5b9060005260206000200160009054906101000a900473ffffffffffffffffffffffffffffffffffffffff1673ffffffffffffffffffffffffffffffffffffffff1673ffffffffffffffffffffffffffffffffffffffff168152602001908152602001600020905060018160000160006101000a81548160ff02191690836003811115610fa257fe5b02179055506001600280549050038160010181905550506110f1565b600060036000600460009054906101000a900473ffffffffffffffffffffffffffffffffffffffff1673ffffffffffffffffffffffffffffffffffffffff1673ffffffffffffffffffffffffffffffffffffffff16815260200190815260200160002060000160006101000a81548160ff0219169083600381111561103f57fe5b0217905550600060036000600460009054906101000a900473ffffffffffffffffffffffffffffffffffffffff1673ffffffffffffffffffffffffffffffffffffffff1673ffffffffffffffffffffffffffffffffffffffff168152602001908152602001600020600101819055506000600460006101000a81548173ffffffffffffffffffffffffffffffffffffffff021916908373ffffffffffffffffffffffffffffffffffffffff1602179055505b6002600190805461110392919061238d565b507f8564cd629b15f47dc310d45bcbfc9bcf5420b0d51bf0659a16c67f91d27632536001604051808060200182810382528381815481526020019150805480156111a257602002820191906000526020600020905b8160009054906101000a900473ffffffffffffffffffffffffffffffffffffffff1673ffffffffffffffffffffffffffffffffffffffff1681526020019060010190808311611158575b50509250505060405180910390a1565b60008060009054906101000a900473ffffffffffffffffffffffffffffffffffffffff16905090565b60008060009054906101000a900473ffffffffffffffffffffffffffffffffffffffff1673ffffffffffffffffffffffffffffffffffffffff163373ffffffffffffffffffffffffffffffffffffffff1614905090565b606060018054905060028054905011156112d45760028054806020026020016040519081016040528092919081815260200182805480156112c857602002820191906000526020600020905b8160009054906101000a900473ffffffffffffffffffffffffffffffffffffffff1673ffffffffffffffffffffffffffffffffffffffff168152602001906001019080831161127e575b5050505050905061135e565b600180548060200260200160405190810160405280929190818152602001828054801561135657602002820191906000526020600020905b8160009054906101000a900473ffffffffffffffffffffffffffffffffffffffff1673ffffffffffffffffffffffffffffffffffffffff168152602001906001019080831161130c575b505050505090505b90565b60006002600381111561137057fe5b600360008473ffffffffffffffffffffffffffffffffffffffff1673ffffffffffffffffffffffffffffffffffffffff16815260200190815260200160002060000160009054906101000a900460ff1660038111156113cb57fe5b148061143b57506003808111156113de57fe5b600360008473ffffffffffffffffffffffffffffffffffffffff1673ffffffffffffffffffffffffffffffffffffffff16815260200190815260200160002060000160009054906101000a900460ff16600381111561143957fe5b145b9050919050565b600560009054906101000a900473ffffffffffffffffffffffffffffffffffffffff1681565b600060149054906101000a900460ff1681565b606060018054806020026020016040519081016040528092919081815260200182805480156114ff57602002820191906000526020600020905b8160009054906101000a900473ffffffffffffffffffffffffffffffffffffffff1673ffffffffffffffffffffffffffffffffffffffff16815260200190600101908083116114b5575b5050505050905090565b600060038081111561151757fe5b600360008473ffffffffffffffffffffffffffffffffffffffff1673ffffffffffffffffffffffffffffffffffffffff16815260200190815260200160002060000160009054906101000a900460ff16600381111561157257fe5b149050919050565b8461158481610852565b6115d9576040517f08c379a00000000000000000000000000000000000000000000000000000000081526004018080602001828103825260228152602001806124bf6022913960400191505060405180910390fd5b846115e381610852565b611638576040517f08c379a00000000000000000000000000000000000000000000000000000000081526004018080602001828103825260228152602001806124bf6022913960400191505060405180910390fd5b844381106116ae576040517f08c379a00000000000000000000000000000000000000000000000000000000081526004018080602001828103825260198152602001807f426c6f636b206e756d626572206973206e6f742076616c69640000000000000081525060200191505060405180910390fd5b600560009054906101000a900473ffffffffffffffffffffffffffffffffffffffff1673ffffffffffffffffffffffffffffffffffffffff163373ffffffffffffffffffffffffffffffffffffffff1614611771576040517f08c379a00000000000000000000000000000000000000000000000000000000081526004018080602001828103825260208152602001807f43616c6c6572206973206e6f74207468652052656c617920636f6e747261637481525060200191505060405180910390fd5b858773ffffffffffffffffffffffffffffffffffffffff168973ffffffffffffffffffffffffffffffffffffffff167f729a19138e072a5a8d3a56d74ae0b5c84530f09aacd6e12b24c5b2fdc3f8a3d060405160405180910390a45050505050505050565b6117de6111db565b611850576040517f08c379a00000000000000000000000000000000000000000000000000000000081526004018080602001828103825260138152602001807f53656e646572206973206e6f74206f776e65720000000000000000000000000081525060200191505060405180910390fd5b600073ffffffffffffffffffffffffffffffffffffffff168173ffffffffffffffffffffffffffffffffffffffff1614156118d6576040517f08c379a00000000000000000000000000000000000000000000000000000000081526004018080602001828103825260248152602001806124746024913960400191505060405180910390fd5b600560009054906101000a900473ffffffffffffffffffffffffffffffffffffffff1673ffffffffffffffffffffffffffffffffffffffff168173ffffffffffffffffffffffffffffffffffffffff16141561197d576040517f08c379a00000000000000000000000000000000000000000000000000000000081526004018080602001828103825260408152602001806125036040913960400191505060405180910390fd5b61198681612003565b50565b8261199381610852565b6119e8576040517f08c379a00000000000000000000000000000000000000000000000000000000081526004018080602001828103825260228152602001806124bf6022913960400191505060405180910390fd5b826119f281610852565b611a47576040517f08c379a00000000000000000000000000000000000000000000000000000000081526004018080602001828103825260228152602001806124bf6022913960400191505060405180910390fd5b82438110611abd576040517f08c379a00000000000000000000000000000000000000000000000000000000081526004018080602001828103825260198152602001807f426c6f636b206e756d626572206973206e6f742076616c69640000000000000081525060200191505060405180910390fd5b600560009054906101000a900473ffffffffffffffffffffffffffffffffffffffff1673ffffffffffffffffffffffffffffffffffffffff163373ffffffffffffffffffffffffffffffffffffffff1614611b80576040517f08c379a00000000000000000000000000000000000000000000000000000000081526004018080602001828103825260208152602001807f43616c6c6572206973206e6f74207468652052656c617920636f6e747261637481525060200191505060405180910390fd5b838573ffffffffffffffffffffffffffffffffffffffff168773ffffffffffffffffffffffffffffffffffffffff167fbc459bd9db54016b1966d0fe812bbe0a82cd627ae3eacd01727dc63a432ca41b60405160405180910390a4505050505050565b611beb6111db565b611c5d576040517f08c379a00000000000000000000000000000000000000000000000000000000081526004018080602001828103825260138152602001807f53656e646572206973206e6f74206f776e65720000000000000000000000000081525060200191505060405180910390fd5b611c668161208a565b50565b600060026003811115611c7857fe5b600360008473ffffffffffffffffffffffffffffffffffffffff1673ffffffffffffffffffffffffffffffffffffffff16815260200190815260200160002060000160009054906101000a900460ff166003811115611cd357fe5b149050919050565b600160028054905011611d39576040517f08c379a00000000000000000000000000000000000000000000000000000000081526004018080602001828103825260278152602001806124986027913960400191505060405180910390fd5b6000600360008373ffffffffffffffffffffffffffffffffffffffff1673ffffffffffffffffffffffffffffffffffffffff16815260200190815260200160002060010154905060006001600280549050039050600060028281548110611d9c57fe5b9060005260206000200160009054906101000a900473ffffffffffffffffffffffffffffffffffffffff1690508060028481548110611dd757fe5b9060005260206000200160006101000a81548173ffffffffffffffffffffffffffffffffffffffff021916908373ffffffffffffffffffffffffffffffffffffffff16021790555082600360008373ffffffffffffffffffffffffffffffffffffffff1673ffffffffffffffffffffffffffffffffffffffff168152602001908152602001600020600101819055506002805480919060019003611e7b91906123df565b5060038060008673ffffffffffffffffffffffffffffffffffffffff1673ffffffffffffffffffffffffffffffffffffffff16815260200190815260200160002060000160006101000a81548160ff02191690836003811115611eda57fe5b021790555083600460006101000a81548173ffffffffffffffffffffffffffffffffffffffff021916908373ffffffffffffffffffffffffffffffffffffffff160217905550611f286121eb565b50505050565b6002600360008373ffffffffffffffffffffffffffffffffffffffff1673ffffffffffffffffffffffffffffffffffffffff16815260200190815260200160002060000160006101000a81548160ff02191690836003811115611f8d57fe5b021790555060028190806001815401808255809150509060018203906000526020600020016000909192909190916101000a81548173ffffffffffffffffffffffffffffffffffffffff021916908373ffffffffffffffffffffffffffffffffffffffff160217905550506120006121eb565b50565b80600560006101000a81548173ffffffffffffffffffffffffffffffffffffffff021916908373ffffffffffffffffffffffffffffffffffffffff1602179055508073ffffffffffffffffffffffffffffffffffffffff167fe8ec518081a7aa1fc5d586a5443a858ab130be8b8e39b545172c879a7e242c6b60405160405180910390a250565b600073ffffffffffffffffffffffffffffffffffffffff168173ffffffffffffffffffffffffffffffffffffffff16141561212d576040517f08c379a000000000000000000000000000000000000000000000000000000000815260040180806020018281038252601f8152602001807f4e6577206f776e657220616464726573732063616e6e6f74206265203078300081525060200191505060405180910390fd5b8073ffffffffffffffffffffffffffffffffffffffff166000809054906101000a900473ffffffffffffffffffffffffffffffffffffffff1673ffffffffffffffffffffffffffffffffffffffff167f8be0079c531659141344cd1fd0a4f28419497f9722a3daafe3b4186f6b6457e060405160405180910390a3806000806101000a81548173ffffffffffffffffffffffffffffffffffffffff021916908373ffffffffffffffffffffffffffffffffffffffff16021790555050565b60008060146101000a81548160ff021916908315150217905550600560009054906101000a900473ffffffffffffffffffffffffffffffffffffffff1673ffffffffffffffffffffffffffffffffffffffff1663a084718a600143034060026040518363ffffffff1660e01b8152600401808381526020018060200182810382528381815481526020019150805480156122da57602002820191906000526020600020905b8160009054906101000a900473ffffffffffffffffffffffffffffffffffffffff1673ffffffffffffffffffffffffffffffffffffffff1681526020019060010190808311612290575b50509350505050602060405180830381600087803b1580156122fb57600080fd5b505af115801561230f573d6000803e3d6000fd5b505050506040513d602081101561232557600080fd5b810190808051906020019092919050505061238b576040517f08c379a000000000000000000000000000000000000000000000000000000000815260040180806020018281038252602d815260200180612543602d913960400191505060405180910390fd5b565b8280548282559060005260206000209081019282156123ce5760005260206000209182015b828111156123cd5782548255916001019190600101906123b2565b5b5090506123db919061240b565b5090565b81548183558181111561240657818360005260206000209182019101612405919061244e565b5b505050565b61244b91905b8082111561244757600081816101000a81549073ffffffffffffffffffffffffffffffffffffffff021916905550600101612411565b5090565b90565b61247091905b8082111561246c576000816000905550600101612454565b5090565b9056fe52656c617920636f6e747261637420616464726573732063616e6e6f74206265203078305468657265206d757374206265206174206c6561737420312076616c696461746f72206c65667441646472657373206973206e6f7420616e206163746976652076616c696461746f7256616c696461746f7220736574206973206e6f742066696e616c697a6564207965744e65772072656c617920636f6e747261637420616464726573732063616e6e6f74206265207468652073616d65206173207468652063757272656e74206f6e6552656c617920636f6e747261637420496e6974696174654368616e67652063616c6c6261636b206661696c6564a165627a7a72305820382ed117edb56e9fdc5a0aa0bdb2aa2c6ccc7914e9902f8b50121ad7650be55d002952656c617920636f6e747261637420616464726573732063616e6e6f74206265203078305468657265206d757374206265206174206c6561737420312076616c696461746f7220696e697469616c6c79",
  "source": "pragma solidity 0.5.8;\n\nimport \"../interfaces/IValidatorSetRelay.sol\";\nimport \"../interfaces/IValidatorSetRelayed.sol\";\nimport \"../misc/Ownable.sol\";\n\n\n/// @title Relayed Validator Set contract\n/// @notice This owned contract holds the actual validator-set logic. The Relay contract\n/// relays the function calls to this contract and they communicate through well defined interfaces.\ncontract ValidatorSetRelayed is IValidatorSetRelayed, Ownable {\n\n    /// Enum for the 4 possible state of validators\n    enum ValidatorState {\n        /// 1. Non-validator: the default enum option\n        NonValidator,\n        /// 2. Finalized-validator: validators in the currentValidators list who\n        /// are not pending to be removed either. They are active validators,\n        /// so they seal blocks\n        Finalized,\n        /// 3. Pending-to-be-added-validator: about to be added to the\n        /// currentValidators list, but not partake in sealing yet, thus not active\n        PendingToBeAdded,\n        /// 4. Pending-to-be-removed-validators: They are\n        /// about to be removed, but still in the currentValidators\n        /// list sealing blocks, thus active. They can still be\n        /// reported or submit reports\n        PendingToBeRemoved\n    }\n\n    /// Holds address validator status information\n    struct AddressStatus {\n        ValidatorState state;\n        /// Index in currentValidators list. This index\n        /// is only relevant if the validator is active.\n        /// Should be ignored otherwise\n        uint256 index;\n    }\n\n    /// Was the last validator change finalized. Implies currentValidators == migrationValidators\n    bool public finalized;\n\n    /// Current list of addresses entitled to participate in the consensus. Active validators\n    address[] private currentValidators;\n    /// Validators in the migration set. This contains the new list of validators\n    address[] private migrationValidators;\n    mapping(address => AddressStatus) public addressStatus;\n    // address of validator pending to be removed\n    address private toBeRemoved;\n\n    /// The Relay validator-set contract\n    IValidatorSetRelay public relaySet;\n\n    event NewRelay(address indexed relay);\n    event ChangeFinalized(address[] validatorSet);\n    event ReportedMalicious(address indexed reporter, address indexed reported, uint indexed blocknum);\n    event ReportedBenign(address indexed reporter, address indexed reported, uint indexed blocknum);\n\n    modifier onlyActiveValidator(address _somebody) {\n        require(isActiveValidator(_somebody), \"Address is not an active validator\");\n        _;\n    }\n\n    modifier onlyRelay() {\n        require(msg.sender == address(relaySet), \"Caller is not the Relay contract\");\n        _;\n    }\n\n    modifier whenFinalized() {\n        require(finalized, \"Validator set is not finalized yet\");\n        _;\n    }\n\n    modifier whenNotFinalized() {\n        require(!finalized, \"Validator set is finalized\");\n        _;\n    }\n\n    /// @notice throws if blocknumber is in the future\n    modifier blockNumberValid(uint _blockNumber) {\n        require(_blockNumber < block.number, \"Block number is not valid\");\n        _;\n    }\n\n    constructor(address _owner, address _relaySet, address[] memory _initial)\n        public\n    {\n        require(_relaySet != address(0), \"Relay contract address cannot be 0x0\");\n        require(_initial.length >= 1, \"There must be at least 1 validator initially\");\n        _transferOwnership(_owner);\n        _setRelay(_relaySet);\n\n        for (uint i = 0; i < _initial.length; i++) {\n            require(_initial[i] != address(0), \"Validator address cannot be 0x0\");\n            \n            addressStatus[_initial[i]].state = ValidatorState.Finalized;\n            addressStatus[_initial[i]].index = i;\n        }\n        migrationValidators = _initial;\n        currentValidators = migrationValidators;\n        // the initial validator set is finalized by default\n        finalized = true;\n    }\n\n    /// @notice called to log a benign report event\n    /// @param _reporter the reporting validator\n    /// @param _reported the validator who is reported\n    /// @param _blockNumber the block number which the report is for\n    function reportBenign(address _reporter, address _reported, uint _blockNumber)\n        external\n        onlyActiveValidator(_reporter)\n        onlyActiveValidator(_reported)\n        blockNumberValid(_blockNumber)\n        onlyRelay\n    {\n        emit ReportedBenign(_reporter, _reported, _blockNumber);\n    }\n\n    // solhint-disable no-unused-vars\n    /// @notice called to log a malicious report event\n    /// @param _reporter the reporting validator\n    /// @param _reported the validator who is reported\n    /// @param _blockNumber the block number which the report is for\n    /// @param _proof the proof. It is not used right now\n    function reportMalicious(\n        address _reporter,\n        address _reported,\n        uint _blockNumber,\n        bytes calldata _proof\n    )\n        external\n        onlyActiveValidator(_reporter)\n        onlyActiveValidator(_reported)\n        blockNumberValid(_blockNumber)\n        onlyRelay\n    {\n        emit ReportedMalicious(_reporter, _reported, _blockNumber);\n    }\n    // solhint-enable no-unused-vars\n\n    /// @notice Sets the Relay contract address\n    /// @dev The contract is assumed to implement the `IValidatorSetRelay` interface.\n    /// Only callable by the contract owner\n    /// @param _relaySet The new relay contract address\n    function setRelay(address _relaySet)\n        external\n        onlyOwner\n    {\n        require(_relaySet != address(0), \"Relay contract address cannot be 0x0\");\n        require(\n            _relaySet != address(relaySet),\n            \"New relay contract address cannot be the same as the current one\"\n        );\n        _setRelay(_relaySet);\n    }\n\n    /// @notice Called by the relay to finalize changes made to the validator set.\n    /// Callable only if there are changes to be finalized.\n    /// @dev The contract is assumed to implement the `IValidatorSetRelay` interface\n    /// Only callable by the relay contract, which forwards the call from SYSTEM\n    function finalizeChange()\n        external\n        whenNotFinalized\n        onlyRelay\n    {\n        finalized = true;\n\n        // Finalizing the addition or removal of a validator\n        if (toBeRemoved == address(0)) {\n            // Case adding a a validator\n            // The new added validator is always the last of `migrationValidators` array\n            AddressStatus storage vstatus = addressStatus[migrationValidators[migrationValidators.length - 1]];\n            vstatus.state = ValidatorState.Finalized;\n            vstatus.index = migrationValidators.length - 1;\n        } else {\n            // Case removing a validator\n            // The to-be-removed validator is explicitly assigned to `toBeRemoved` beforehand\n            addressStatus[toBeRemoved].state = ValidatorState.NonValidator;\n            addressStatus[toBeRemoved].index = 0;\n            toBeRemoved = address(0);\n        }\n\n        currentValidators = migrationValidators;\n        emit ChangeFinalized(currentValidators);\n    }\n\n    /// @notice Adds a validator to the pending list and initiates a change.\n    /// Can only be called if the validator is not in the active list, or\n    /// there are no changes to be finalized. The validator only becomes active when it is finalized.\n    /// @dev First adds the validator to the pending list, then calls the `callbackInitiateChange`\n    /// of the Relay contract which emits the `InitiateChange` event\n    /// @param _validator The address to be added as validator\n    function addValidator(address _validator)\n        external\n        onlyOwner\n        whenFinalized\n    {\n        require(_validator != address(0), \"Validator address cannot be 0x0\");\n        require(!isActiveValidator(_validator), \"This validator is already active\");\n        _addValidator(_validator);\n    }\n\n    /// @notice Removes a validator from the pending list and initiates a\n    /// change. Can only be called if the validator is in the current list, or\n    /// there are no changes to be finalized. Until the validator removal\n    /// is finalized, it is still active\n    /// @dev First removes the validator from `migrationValidators`, then\n    /// calls the `callbackInitiateChange` of the Relay contract which\n    /// emits the `InitiateChange` event\n    /// @param _validator The address to be removed\n    function removeValidator(address _validator)\n        external\n        onlyOwner\n        whenFinalized\n        onlyActiveValidator(_validator)\n    {\n        _removeValidator(_validator);\n    }\n\n    /// @notice Returns currently active validators\n    /// @return The list of addresses of currently active validators\n    function getValidators()\n        external\n        view\n        returns (address[] memory)\n    {\n        return currentValidators;\n    }\n\n    /// @notice Returns the migration validator set. If there are\n    /// no changes in progress, the migration list is the same\n    /// as the current list. If there are changes to the set, the\n    /// migration validators list is the new active validators\n    /// list that awaits finalization\n    /// @return The list of addresses of the migration validators\n    function getMigrationValidators()\n        external\n        view\n        returns (address[] memory)\n    {\n        return migrationValidators;\n    }\n\n    /// @notice Returns the union of current set and migration set.\n    /// Useful for tracking the statuses of all affected validators\n    /// in case of a change\n    /// @dev Returns the longer of the `current` and `migration` arrays\n    /// @return The list of addresses\n    function getUnion()\n        external\n        view\n        returns (address[] memory)\n    {\n        if (migrationValidators.length > currentValidators.length) {\n            return migrationValidators;\n        }\n        return currentValidators;\n    }\n\n    /// @notice Returns the count of currently active validators\n    /// @return The number of currently active validators\n    function getValidatorsNum()\n        external\n        view\n        returns(uint256)\n    {\n        return currentValidators.length;\n    }\n\n    /// @notice Checks whether the address is pending to\n    /// be added to the active validators list\n    /// @param _somebody The address to be queried\n    /// @return True if address is pending to be added, false otherwise\n    function isPendingToBeAdded(address _somebody)\n        external\n        view\n        returns (bool)\n    {\n        return (\n            addressStatus[_somebody].state == ValidatorState.PendingToBeAdded\n        );\n    }\n\n    /// @notice Checks whether the address is pending to\n    /// be removed from the active validators list\n    /// @param _somebody The address to be queried\n    /// @return True if address is pending to be removed, false otherwise\n    function isPendingToBeRemoved(address _somebody)\n        external\n        view\n        returns (bool)\n    {\n        return (\n            addressStatus[_somebody].state == ValidatorState.PendingToBeRemoved\n        );\n    }\n\n    /// @notice Checks whether the address is a pending-to-be-added\n    /// or a pending-to-be-removed validator\n    /// @param _somebody The address to check\n    /// @return True if address is pending, false otherwise\n    function isPending(address _somebody)\n        external\n        view\n        returns (bool)\n    {\n        return (\n            addressStatus[_somebody].state == ValidatorState.PendingToBeAdded\n            || addressStatus[_somebody].state == ValidatorState.PendingToBeRemoved\n        );\n    }\n\n    /// @notice Checks whether the address is a currently active (sealing) validator.\n    /// Note that it is not the same as `isFinalizedValidator`, because an unfinalized,\n    /// pending-to-be-removed validator is still an active one\n    /// @param _somebody The address to check\n    /// @return True if address is an active validator, false otherwise\n    function isActiveValidator(address _somebody)\n        public\n        view\n        returns(bool)\n    {\n        return (\n            addressStatus[_somebody].state == ValidatorState.Finalized\n            || addressStatus[_somebody].state == ValidatorState.PendingToBeRemoved\n        );\n    }\n\n    /// @notice Checks whether the address is a currently active finalized validator.\n    /// Note that it is not the same as `isActiveValidator`. This returns false if the\n    /// validator is still active but pending to be removed\n    /// @param _somebody The address to be queried\n    /// @return True if adress is a finalized validator, false otherwise\n    function isFinalizedValidator(address _somebody)\n        public\n        view\n        returns(bool)\n    {\n        return (\n            addressStatus[_somebody].state == ValidatorState.Finalized\n        );\n    }\n\n    /// @dev Sets `finalized` to false and initiates a change\n    /// with the Relay contract\n    function _triggerChange()\n        internal\n    {\n        finalized = false;\n        require(\n            relaySet.callbackInitiateChange(blockhash(block.number - 1), migrationValidators),\n            \"Relay contract InitiateChange callback failed\"\n        );\n    }\n\n    /// @dev Adds validator to the migration set, sets status flags and triggers change\n    /// @param _validator The address to add\n    function _addValidator(address _validator)\n        internal\n    {\n        addressStatus[_validator].state = ValidatorState.PendingToBeAdded;\n\n        migrationValidators.push(_validator);\n        _triggerChange();\n    }\n\n    /// @dev Removes validator from migration, sets status flags and triggers change.\n    /// Replaces the removed element with the last element. There must be at least 1\n    /// remaining validator at all times\n    /// @param _validator The address to remove\n    function _removeValidator(address _validator)\n        internal\n    {\n        require(migrationValidators.length > 1, \"There must be at least 1 validator left\");\n\n        uint256 removedIndex = addressStatus[_validator].index;\n        uint256 lastIndex = migrationValidators.length - 1;\n        address lastValidator = migrationValidators[lastIndex];\n        // Override the removed validator with the last one.\n        migrationValidators[removedIndex] = lastValidator;\n        addressStatus[lastValidator].index = removedIndex;\n        migrationValidators.length--;\n\n        addressStatus[_validator].state = ValidatorState.PendingToBeRemoved;\n\n        toBeRemoved = _validator;\n\n        _triggerChange();\n    }\n\n    /// @dev Sets the relay address and emits the `NewRelay` event\n    /// @param _relaySet The address of the new relay contract\n    function _setRelay(address _relaySet)\n        private\n    {\n        relaySet = IValidatorSetRelay(_relaySet);\n        emit NewRelay(_relaySet);\n    }\n}\n",
  "sourcePath": "/Users/mikovainio/WebstormProjects/smarthub-system-contracts/contracts/validatorset/ValidatorSetRelayed.sol",
  "compiler": {
    "name": "solc",
    "version": "0.5.8+commit.23d335f2.Emscripten.clang"
  },
  "schemaVersion": "3.0.10",
  "updatedAt": "2020-03-04T11:19:07.971Z",
  "devdoc": {
    "methods": {
      "addValidator(address)": {
        "details": "First adds the validator to the pending list, then calls the `callbackInitiateChange` of the Relay contract which emits the `InitiateChange` event",
        "params": {
          "_validator": "The address to be added as validator"
        }
      },
      "finalizeChange()": {
        "details": "The contract is assumed to implement the `IValidatorSetRelay` interface Only callable by the relay contract, which forwards the call from SYSTEM"
      },
      "getMigrationValidators()": {
        "return": "The list of addresses of the migration validators"
      },
      "getUnion()": {
        "details": "Returns the longer of the `current` and `migration` arrays",
        "return": "The list of addresses"
      },
      "getValidators()": {
        "return": "The list of addresses of currently active validators"
      },
      "getValidatorsNum()": {
        "return": "The number of currently active validators"
      },
      "isActiveValidator(address)": {
        "params": {
          "_somebody": "The address to check"
        },
        "return": "True if address is an active validator, false otherwise"
      },
      "isFinalizedValidator(address)": {
        "params": {
          "_somebody": "The address to be queried"
        },
        "return": "True if adress is a finalized validator, false otherwise"
      },
      "isOwner()": {
        "return": "true if `msg.sender` is the owner of the contract."
      },
      "isPending(address)": {
        "params": {
          "_somebody": "The address to check"
        },
        "return": "True if address is pending, false otherwise"
      },
      "isPendingToBeAdded(address)": {
        "params": {
          "_somebody": "The address to be queried"
        },
        "return": "True if address is pending to be added, false otherwise"
      },
      "isPendingToBeRemoved(address)": {
        "params": {
          "_somebody": "The address to be queried"
        },
        "return": "True if address is pending to be removed, false otherwise"
      },
      "owner()": {
        "return": "the address of the owner."
      },
      "removeValidator(address)": {
        "details": "First removes the validator from `migrationValidators`, then calls the `callbackInitiateChange` of the Relay contract which emits the `InitiateChange` event",
        "params": {
          "_validator": "The address to be removed"
        }
      },
      "reportBenign(address,address,uint256)": {
        "params": {
          "_blockNumber": "the block number which the report is for",
          "_reported": "the validator who is reported",
          "_reporter": "the reporting validator"
        }
      },
      "reportMalicious(address,address,uint256,bytes)": {
        "params": {
          "_blockNumber": "the block number which the report is for",
          "_proof": "the proof. It is not used right now",
          "_reported": "the validator who is reported",
          "_reporter": "the reporting validator"
        }
      },
      "setRelay(address)": {
        "details": "The contract is assumed to implement the `IValidatorSetRelay` interface. Only callable by the contract owner",
        "params": {
          "_relaySet": "The new relay contract address"
        }
      },
      "transferOwnership(address)": {
        "details": "Allows the current owner to transfer control of the contract to a newOwner.",
        "params": {
          "newOwner": "The address to transfer ownership to."
        }
      }
    },
    "title": "Relayed Validator Set contract"
  },
  "userdoc": {
    "methods": {
      "addValidator(address)": {
        "notice": "Adds a validator to the pending list and initiates a change. Can only be called if the validator is not in the active list, or there are no changes to be finalized. The validator only becomes active when it is finalized."
      },
      "finalizeChange()": {
        "notice": "Called by the relay to finalize changes made to the validator set. Callable only if there are changes to be finalized."
      },
      "getMigrationValidators()": {
        "notice": "Returns the migration validator set. If there are no changes in progress, the migration list is the same as the current list. If there are changes to the set, the migration validators list is the new active validators list that awaits finalization"
      },
      "getUnion()": {
        "notice": "Returns the union of current set and migration set. Useful for tracking the statuses of all affected validators in case of a change"
      },
      "getValidators()": {
        "notice": "Returns currently active validators"
      },
      "getValidatorsNum()": {
        "notice": "Returns the count of currently active validators"
      },
      "isActiveValidator(address)": {
        "notice": "Checks whether the address is a currently active (sealing) validator. Note that it is not the same as `isFinalizedValidator`, because an unfinalized, pending-to-be-removed validator is still an active one"
      },
      "isFinalizedValidator(address)": {
        "notice": "Checks whether the address is a currently active finalized validator. Note that it is not the same as `isActiveValidator`. This returns false if the validator is still active but pending to be removed"
      },
      "isPending(address)": {
        "notice": "Checks whether the address is a pending-to-be-added or a pending-to-be-removed validator"
      },
      "isPendingToBeAdded(address)": {
        "notice": "Checks whether the address is pending to be added to the active validators list"
      },
      "isPendingToBeRemoved(address)": {
        "notice": "Checks whether the address is pending to be removed from the active validators list"
      },
      "removeValidator(address)": {
        "notice": "Removes a validator from the pending list and initiates a change. Can only be called if the validator is in the current list, or there are no changes to be finalized. Until the validator removal is finalized, it is still active"
      },
      "reportBenign(address,address,uint256)": {
        "notice": "called to log a benign report event"
      },
      "reportMalicious(address,address,uint256,bytes)": {
        "notice": "called to log a malicious report event"
      },
      "setRelay(address)": {
        "notice": "Sets the Relay contract address"
      }
    },
    "notice": "This owned contract holds the actual validator-set logic. The Relay contract relays the function calls to this contract and they communicate through well defined interfaces."
  }
}