{
  "contractName": "ValidatorSetRelay",
  "abi": [
    {
      "constant": true,
      "inputs": [],
      "name": "owner",
      "outputs": [
        {
          "name": "",
          "type": "address"
        }
      ],
      "payable": false,
      "stateMutability": "view",
      "type": "function"
    },
    {
      "constant": true,
      "inputs": [],
      "name": "isOwner",
      "outputs": [
        {
          "name": "",
          "type": "bool"
        }
      ],
      "payable": false,
      "stateMutability": "view",
      "type": "function"
    },
    {
      "constant": true,
      "inputs": [],
      "name": "relayedSet",
      "outputs": [
        {
          "name": "",
          "type": "address"
        }
      ],
      "payable": false,
      "stateMutability": "view",
      "type": "function"
    },
    {
      "constant": true,
      "inputs": [],
      "name": "systemAddress",
      "outputs": [
        {
          "name": "",
          "type": "address"
        }
      ],
      "payable": false,
      "stateMutability": "view",
      "type": "function"
    },
    {
      "constant": false,
      "inputs": [
        {
          "name": "newOwner",
          "type": "address"
        }
      ],
      "name": "transferOwnership",
      "outputs": [],
      "payable": false,
      "stateMutability": "nonpayable",
      "type": "function"
    },
    {
      "inputs": [
        {
          "name": "_owner",
          "type": "address"
        },
        {
          "name": "_relayedSet",
          "type": "address"
        }
      ],
      "payable": false,
      "stateMutability": "nonpayable",
      "type": "constructor"
    },
    {
      "anonymous": false,
      "inputs": [
        {
          "indexed": true,
          "name": "old",
          "type": "address"
        },
        {
          "indexed": true,
          "name": "current",
          "type": "address"
        }
      ],
      "name": "NewRelayed",
      "type": "event"
    },
    {
      "anonymous": false,
      "inputs": [
        {
          "indexed": true,
          "name": "previousOwner",
          "type": "address"
        },
        {
          "indexed": true,
          "name": "newOwner",
          "type": "address"
        }
      ],
      "name": "OwnershipTransferred",
      "type": "event"
    },
    {
      "anonymous": false,
      "inputs": [
        {
          "indexed": true,
          "name": "_parentHash",
          "type": "bytes32"
        },
        {
          "indexed": false,
          "name": "_newSet",
          "type": "address[]"
        }
      ],
      "name": "InitiateChange",
      "type": "event"
    },
    {
      "constant": false,
      "inputs": [
        {
          "name": "_parentHash",
          "type": "bytes32"
        },
        {
          "name": "_newSet",
          "type": "address[]"
        }
      ],
      "name": "callbackInitiateChange",
      "outputs": [
        {
          "name": "",
          "type": "bool"
        }
      ],
      "payable": false,
      "stateMutability": "nonpayable",
      "type": "function"
    },
    {
      "constant": false,
      "inputs": [],
      "name": "finalizeChange",
      "outputs": [],
      "payable": false,
      "stateMutability": "nonpayable",
      "type": "function"
    },
    {
      "constant": false,
      "inputs": [
        {
          "name": "_validator",
          "type": "address"
        },
        {
          "name": "_blockNumber",
          "type": "uint256"
        }
      ],
      "name": "reportBenign",
      "outputs": [],
      "payable": false,
      "stateMutability": "nonpayable",
      "type": "function"
    },
    {
      "constant": false,
      "inputs": [
        {
          "name": "_validator",
          "type": "address"
        },
        {
          "name": "_blockNumber",
          "type": "uint256"
        },
        {
          "name": "_proof",
          "type": "bytes"
        }
      ],
      "name": "reportMalicious",
      "outputs": [],
      "payable": false,
      "stateMutability": "nonpayable",
      "type": "function"
    },
    {
      "constant": false,
      "inputs": [
        {
          "name": "_relayedSet",
          "type": "address"
        }
      ],
      "name": "setRelayed",
      "outputs": [],
      "payable": false,
      "stateMutability": "nonpayable",
      "type": "function"
    },
    {
      "constant": true,
      "inputs": [],
      "name": "getValidators",
      "outputs": [
        {
          "name": "",
          "type": "address[]"
        }
      ],
      "payable": false,
      "stateMutability": "view",
      "type": "function"
    }
  ],
  "bytecode": "0x608060405273fffffffffffffffffffffffffffffffffffffffe600160006101000a81548173ffffffffffffffffffffffffffffffffffffffff021916908373ffffffffffffffffffffffffffffffffffffffff16021790555034801561006557600080fd5b506040516040806114d48339810180604052604081101561008557600080fd5b810190808051906020019092919080519060200190929190505050336000806101000a81548173ffffffffffffffffffffffffffffffffffffffff021916908373ffffffffffffffffffffffffffffffffffffffff1602179055506000809054906101000a900473ffffffffffffffffffffffffffffffffffffffff1673ffffffffffffffffffffffffffffffffffffffff16600073ffffffffffffffffffffffffffffffffffffffff167f8be0079c531659141344cd1fd0a4f28419497f9722a3daafe3b4186f6b6457e060405160405180910390a361016b8261018160201b60201c565b61017a816102e260201b60201c565b50506104f4565b600073ffffffffffffffffffffffffffffffffffffffff168173ffffffffffffffffffffffffffffffffffffffff161415610224576040517f08c379a000000000000000000000000000000000000000000000000000000000815260040180806020018281038252601f8152602001807f4e6577206f776e657220616464726573732063616e6e6f74206265203078300081525060200191505060405180910390fd5b8073ffffffffffffffffffffffffffffffffffffffff166000809054906101000a900473ffffffffffffffffffffffffffffffffffffffff1673ffffffffffffffffffffffffffffffffffffffff167f8be0079c531659141344cd1fd0a4f28419497f9722a3daafe3b4186f6b6457e060405160405180910390a3806000806101000a81548173ffffffffffffffffffffffffffffffffffffffff021916908373ffffffffffffffffffffffffffffffffffffffff16021790555050565b80600073ffffffffffffffffffffffffffffffffffffffff168173ffffffffffffffffffffffffffffffffffffffff161415610386576040517f08c379a00000000000000000000000000000000000000000000000000000000081526004018080602001828103825260158152602001807f416464726573732063616e6e6f7420626520307830000000000000000000000081525060200191505060405180910390fd5b600260009054906101000a900473ffffffffffffffffffffffffffffffffffffffff1673ffffffffffffffffffffffffffffffffffffffff168273ffffffffffffffffffffffffffffffffffffffff16141561042d576040517f08c379a00000000000000000000000000000000000000000000000000000000081526004018080602001828103825260428152602001806114926042913960600191505060405180910390fd5b6000600260009054906101000a900473ffffffffffffffffffffffffffffffffffffffff16905082600260006101000a81548173ffffffffffffffffffffffffffffffffffffffff021916908373ffffffffffffffffffffffffffffffffffffffff1602179055508273ffffffffffffffffffffffffffffffffffffffff168173ffffffffffffffffffffffffffffffffffffffff167f4fea88aaf04c303804bb211ecc32a00ac8e5f0656bb854cad8a4a2e438256b7460405160405180910390a3505050565b610f8f806105036000396000f3fe608060405234801561001057600080fd5b50600436106100a95760003560e01c8063b7ab4db511610071578063b7ab4db514610209578063bd96567714610268578063c476dd40146102ac578063d3e848f11461034f578063d69f13bb14610399578063f2fde38b146103e7576100a9565b806375286211146100ae5780638da5cb5b146100b85780638f32d59b14610102578063a084718a14610124578063ae3783d6146101bf575b600080fd5b6100b661042b565b005b6100c0610572565b604051808273ffffffffffffffffffffffffffffffffffffffff1673ffffffffffffffffffffffffffffffffffffffff16815260200191505060405180910390f35b61010a61059b565b604051808215151515815260200191505060405180910390f35b6101a56004803603604081101561013a57600080fd5b81019080803590602001909291908035906020019064010000000081111561016157600080fd5b82018360208201111561017357600080fd5b8035906020019184602083028401116401000000008311171561019557600080fd5b90919293919293905050506105f2565b604051808215151515815260200191505060405180910390f35b6101c761070c565b604051808273ffffffffffffffffffffffffffffffffffffffff1673ffffffffffffffffffffffffffffffffffffffff16815260200191505060405180910390f35b610211610732565b6040518080602001828103825283818151815260200191508051906020019060200280838360005b83811015610254578082015181840152602081019050610239565b505050509050019250505060405180910390f35b6102aa6004803603602081101561027e57600080fd5b81019080803573ffffffffffffffffffffffffffffffffffffffff169060200190929190505050610832565b005b61034d600480360360608110156102c257600080fd5b81019080803573ffffffffffffffffffffffffffffffffffffffff169060200190929190803590602001909291908035906020019064010000000081111561030957600080fd5b82018360208201111561031b57600080fd5b8035906020019184600183028401116401000000008311171561033d57600080fd5b90919293919293905050506108b8565b005b6103576109e7565b604051808273ffffffffffffffffffffffffffffffffffffffff1673ffffffffffffffffffffffffffffffffffffffff16815260200191505060405180910390f35b6103e5600480360360408110156103af57600080fd5b81019080803573ffffffffffffffffffffffffffffffffffffffff16906020019092919080359060200190929190505050610a0d565b005b610429600480360360208110156103fd57600080fd5b81019080803573ffffffffffffffffffffffffffffffffffffffff169060200190929190505050610b06565b005b600160009054906101000a900473ffffffffffffffffffffffffffffffffffffffff1673ffffffffffffffffffffffffffffffffffffffff163373ffffffffffffffffffffffffffffffffffffffff16146104ee576040517f08c379a00000000000000000000000000000000000000000000000000000000081526004018080602001828103825260148152602001807f53656e646572206973206e6f742073797374656d00000000000000000000000081525060200191505060405180910390fd5b600260009054906101000a900473ffffffffffffffffffffffffffffffffffffffff1673ffffffffffffffffffffffffffffffffffffffff1663752862116040518163ffffffff1660e01b8152600401600060405180830381600087803b15801561055857600080fd5b505af115801561056c573d6000803e3d6000fd5b50505050565b60008060009054906101000a900473ffffffffffffffffffffffffffffffffffffffff16905090565b60008060009054906101000a900473ffffffffffffffffffffffffffffffffffffffff1673ffffffffffffffffffffffffffffffffffffffff163373ffffffffffffffffffffffffffffffffffffffff1614905090565b6000600260009054906101000a900473ffffffffffffffffffffffffffffffffffffffff1673ffffffffffffffffffffffffffffffffffffffff163373ffffffffffffffffffffffffffffffffffffffff161461069a576040517f08c379a0000000000000000000000000000000000000000000000000000000008152600401808060200182810382526022815260200180610f426022913960400191505060405180910390fd5b837f55252fa6eee4741b4e24a74a70e9c11fd2c2281df8d6ea13126ff845f7825c89848460405180806020018281038252848482818152602001925060200280828437600081840152601f19601f820116905080830192505050935050505060405180910390a2600190509392505050565b600260009054906101000a900473ffffffffffffffffffffffffffffffffffffffff1681565b6060600260009054906101000a900473ffffffffffffffffffffffffffffffffffffffff1673ffffffffffffffffffffffffffffffffffffffff1663b7ab4db56040518163ffffffff1660e01b815260040160006040518083038186803b15801561079c57600080fd5b505afa1580156107b0573d6000803e3d6000fd5b505050506040513d6000823e3d601f19601f8201168201806040525060208110156107da57600080fd5b8101908080516401000000008111156107f257600080fd5b8281019050602081018481111561080857600080fd5b815185602082028301116401000000008211171561082557600080fd5b5050929190505050905090565b61083a61059b565b6108ac576040517f08c379a00000000000000000000000000000000000000000000000000000000081526004018080602001828103825260138152602001807f53656e646572206973206e6f74206f776e65720000000000000000000000000081525060200191505060405180910390fd5b6108b581610b8c565b50565b600260009054906101000a900473ffffffffffffffffffffffffffffffffffffffff1673ffffffffffffffffffffffffffffffffffffffff1663bd21442a33868686866040518663ffffffff1660e01b8152600401808673ffffffffffffffffffffffffffffffffffffffff1673ffffffffffffffffffffffffffffffffffffffff1681526020018573ffffffffffffffffffffffffffffffffffffffff1673ffffffffffffffffffffffffffffffffffffffff168152602001848152602001806020018281038252848482818152602001925080828437600081840152601f19601f8201169050808301925050509650505050505050600060405180830381600087803b1580156109c957600080fd5b505af11580156109dd573d6000803e3d6000fd5b5050505050505050565b600160009054906101000a900473ffffffffffffffffffffffffffffffffffffffff1681565b600260009054906101000a900473ffffffffffffffffffffffffffffffffffffffff1673ffffffffffffffffffffffffffffffffffffffff1663d826b7f13384846040518463ffffffff1660e01b8152600401808473ffffffffffffffffffffffffffffffffffffffff1673ffffffffffffffffffffffffffffffffffffffff1681526020018373ffffffffffffffffffffffffffffffffffffffff1673ffffffffffffffffffffffffffffffffffffffff1681526020018281526020019350505050600060405180830381600087803b158015610aea57600080fd5b505af1158015610afe573d6000803e3d6000fd5b505050505050565b610b0e61059b565b610b80576040517f08c379a00000000000000000000000000000000000000000000000000000000081526004018080602001828103825260138152602001807f53656e646572206973206e6f74206f776e65720000000000000000000000000081525060200191505060405180910390fd5b610b8981610d9e565b50565b80600073ffffffffffffffffffffffffffffffffffffffff168173ffffffffffffffffffffffffffffffffffffffff161415610c30576040517f08c379a00000000000000000000000000000000000000000000000000000000081526004018080602001828103825260158152602001807f416464726573732063616e6e6f7420626520307830000000000000000000000081525060200191505060405180910390fd5b600260009054906101000a900473ffffffffffffffffffffffffffffffffffffffff1673ffffffffffffffffffffffffffffffffffffffff168273ffffffffffffffffffffffffffffffffffffffff161415610cd7576040517f08c379a0000000000000000000000000000000000000000000000000000000008152600401808060200182810382526042815260200180610f006042913960600191505060405180910390fd5b6000600260009054906101000a900473ffffffffffffffffffffffffffffffffffffffff16905082600260006101000a81548173ffffffffffffffffffffffffffffffffffffffff021916908373ffffffffffffffffffffffffffffffffffffffff1602179055508273ffffffffffffffffffffffffffffffffffffffff168173ffffffffffffffffffffffffffffffffffffffff167f4fea88aaf04c303804bb211ecc32a00ac8e5f0656bb854cad8a4a2e438256b7460405160405180910390a3505050565b600073ffffffffffffffffffffffffffffffffffffffff168173ffffffffffffffffffffffffffffffffffffffff161415610e41576040517f08c379a000000000000000000000000000000000000000000000000000000000815260040180806020018281038252601f8152602001807f4e6577206f776e657220616464726573732063616e6e6f74206265203078300081525060200191505060405180910390fd5b8073ffffffffffffffffffffffffffffffffffffffff166000809054906101000a900473ffffffffffffffffffffffffffffffffffffffff1673ffffffffffffffffffffffffffffffffffffffff167f8be0079c531659141344cd1fd0a4f28419497f9722a3daafe3b4186f6b6457e060405160405180910390a3806000806101000a81548173ffffffffffffffffffffffffffffffffffffffff021916908373ffffffffffffffffffffffffffffffffffffffff1602179055505056fe4e65772072656c6179656420636f6e747261637420616464726573732063616e6e6f74206265207468652073616d65206173207468652063757272656e74206f6e6553656e646572206973206e6f74207468652052656c6179656420636f6e7472616374a165627a7a723058205c88c999d764f5de8dd28b0deba122bde7ab2989134cb7944696da29b3f4e20b00294e65772072656c6179656420636f6e747261637420616464726573732063616e6e6f74206265207468652073616d65206173207468652063757272656e74206f6e65",
  "source": "pragma solidity 0.5.8;\n\nimport \"../misc/Ownable.sol\";\nimport \"../interfaces/IValidatorSetRelay.sol\";\nimport \"../interfaces/IValidatorSet.sol\";\nimport \"../interfaces/IValidatorSetRelayed.sol\";\n\n\n/// @title Validator Set Relay contract\n/// @notice This owned contract is present in the chainspec file. The Relay contract\n/// relays the function calls to a logic contract called Relayed for upgradeability\ncontract ValidatorSetRelay is IValidatorSet, IValidatorSetRelay, Ownable {\n\n    /// System address, used by the block sealer\n    /// Not constant cause it is changed for testing\n    address public systemAddress = 0xffffFFFfFFffffffffffffffFfFFFfffFFFfFFfE;\n    \n    /// Address of the inner validator set contract\n    IValidatorSetRelayed public relayedSet;\n\n    /// Emitted in case a new Relayed contract is set\n    event NewRelayed(address indexed old, address indexed current);\n\n    modifier nonDefaultAddress(address _address) {\n        require(_address != address(0), \"Address cannot be 0x0\");\n        _;\n    }\n\n    modifier onlySystem() {\n        require(msg.sender == systemAddress, \"Sender is not system\");\n        _;\n    }\n\n    modifier onlyRelayed() {\n        require(msg.sender == address(relayedSet), \"Sender is not the Relayed contract\");\n        _;\n    }\n\n    constructor(address _owner, address _relayedSet)\n        public\n    {\n        _transferOwnership(_owner);\n        _setRelayed(_relayedSet);\n    }\n\n    /// @notice This function is used by the Relayed logic contract\n    /// to iniate a change in the active validator set\n    /// @dev emits `InitiateChange` which is listened by the Parity client\n    /// @param _parentHash Blockhash of the parent block\n    /// @param _newSet List of addresses of the desired active validator set\n    /// @return True if event was emitted\n    function callbackInitiateChange(bytes32 _parentHash, address[] calldata _newSet)\n        external\n        onlyRelayed\n        returns (bool)\n    {\n        emit InitiateChange(_parentHash, _newSet);\n        return true;\n    }\n\n    /// @notice Finalizes changes of the active validator set.\n    /// Called by SYSTEM\n    function finalizeChange()\n        external\n        onlySystem\n    {\n        relayedSet.finalizeChange();\n    }\n\n    /// @notice This function is used by validators to submit Benign reports\n    /// on other validators. Can only be called by the validator who submits\n    /// the report\n    /// @dev emits `ReportedBenign` event in the Relayed logic contract\n    /// @param _validator The validator to report\n    /// @param _blockNumber The blocknumber to report on\n    function reportBenign(address _validator, uint256 _blockNumber)\n        external\n    {\n        relayedSet.reportBenign(\n            msg.sender,\n            _validator,\n            _blockNumber\n        );\n    }\n\n    /// @notice This function is used by validators to submit Malicious reports\n    /// on other validators. Can only be called by the validator who submits\n    /// the report\n    /// @dev emits `ReportedMalicious` event in the Relayed logic contract\n    /// @param _validator The validator to report\n    /// @param _blockNumber The blocknumber to report on\n    /// @param _proof Proof to submit. Right now it is not used for anything\n    function reportMalicious(address _validator, uint256 _blockNumber, bytes calldata _proof)\n        external\n    {\n        relayedSet.reportMalicious(\n            msg.sender,\n            _validator,\n            _blockNumber,\n            _proof\n        );\n    }\n\n    /// @notice Sets the Relayed logic contract address. Only callable by the owner.\n    /// The address is assumed to belong to a contract that implements the\n    /// `IValidatorSetRelayed` interface\n    /// @param _relayedSet The contract address\n    function setRelayed(address _relayedSet)\n        external\n        onlyOwner\n    {\n        _setRelayed(_relayedSet);\n    }\n\n    /// @notice Returns the currently active validators\n    /// @return The list of addresses of currently active validators\n    function getValidators()\n        external\n        view\n        returns (address[] memory)\n    {\n        return relayedSet.getValidators();\n    }\n\n    /// @dev The actual logic of setting the Relayed contract\n    function _setRelayed(address _relayedSet)\n        private\n        nonDefaultAddress(_relayedSet)\n    {\n        require(\n            _relayedSet != address(relayedSet),\n            \"New relayed contract address cannot be the same as the current one\"\n        );\n        address oldRelayed = address(relayedSet);\n        relayedSet = IValidatorSetRelayed(_relayedSet);\n        emit NewRelayed(oldRelayed, _relayedSet);\n    }\n}\n",
  "sourcePath": "/Users/mikovainio/WebstormProjects/smarthub-system-contracts/contracts/validatorset/ValidatorSetRelay.sol",
  "compiler": {
    "name": "solc",
    "version": "0.5.8+commit.23d335f2.Emscripten.clang"
  },
  "schemaVersion": "3.0.10",
  "updatedAt": "2020-03-04T11:19:07.969Z",
  "devdoc": {
    "methods": {
      "callbackInitiateChange(bytes32,address[])": {
        "details": "emits `InitiateChange` which is listened by the Parity client",
        "params": {
          "_newSet": "List of addresses of the desired active validator set",
          "_parentHash": "Blockhash of the parent block"
        },
        "return": "True if event was emitted"
      },
      "getValidators()": {
        "return": "The list of addresses of currently active validators"
      },
      "isOwner()": {
        "return": "true if `msg.sender` is the owner of the contract."
      },
      "owner()": {
        "return": "the address of the owner."
      },
      "reportBenign(address,uint256)": {
        "details": "emits `ReportedBenign` event in the Relayed logic contract",
        "params": {
          "_blockNumber": "The blocknumber to report on",
          "_validator": "The validator to report"
        }
      },
      "reportMalicious(address,uint256,bytes)": {
        "details": "emits `ReportedMalicious` event in the Relayed logic contract",
        "params": {
          "_blockNumber": "The blocknumber to report on",
          "_proof": "Proof to submit. Right now it is not used for anything",
          "_validator": "The validator to report"
        }
      },
      "setRelayed(address)": {
        "params": {
          "_relayedSet": "The contract address"
        }
      },
      "transferOwnership(address)": {
        "details": "Allows the current owner to transfer control of the contract to a newOwner.",
        "params": {
          "newOwner": "The address to transfer ownership to."
        }
      }
    },
    "title": "Validator Set Relay contract"
  },
  "userdoc": {
    "methods": {
      "callbackInitiateChange(bytes32,address[])": {
        "notice": "This function is used by the Relayed logic contract to iniate a change in the active validator set"
      },
      "finalizeChange()": {
        "notice": "Finalizes changes of the active validator set. Called by SYSTEM"
      },
      "getValidators()": {
        "notice": "Returns the currently active validators"
      },
      "reportBenign(address,uint256)": {
        "notice": "This function is used by validators to submit Benign reports on other validators. Can only be called by the validator who submits the report"
      },
      "reportMalicious(address,uint256,bytes)": {
        "notice": "This function is used by validators to submit Malicious reports on other validators. Can only be called by the validator who submits the report"
      },
      "setRelayed(address)": {
        "notice": "Sets the Relayed logic contract address. Only callable by the owner. The address is assumed to belong to a contract that implements the `IValidatorSetRelayed` interface"
      }
    },
    "notice": "This owned contract is present in the chainspec file. The Relay contract relays the function calls to a logic contract called Relayed for upgradeability"
  }
}